{
	"fixcontract/Token.sol": {
		"Token": {
			"abi": [
				{
					"inputs": [
						{
							"internalType": "string",
							"name": "name",
							"type": "string"
						},
						{
							"internalType": "string",
							"name": "symbol",
							"type": "string"
						},
						{
							"internalType": "uint256",
							"name": "initialSupply",
							"type": "uint256"
						},
						{
							"internalType": "address",
							"name": "owner",
							"type": "address"
						}
					],
					"stateMutability": "nonpayable",
					"type": "constructor"
				},
				{
					"anonymous": false,
					"inputs": [
						{
							"indexed": true,
							"internalType": "address",
							"name": "owner",
							"type": "address"
						},
						{
							"indexed": true,
							"internalType": "address",
							"name": "spender",
							"type": "address"
						},
						{
							"indexed": false,
							"internalType": "uint256",
							"name": "value",
							"type": "uint256"
						}
					],
					"name": "Approval",
					"type": "event"
				},
				{
					"anonymous": false,
					"inputs": [
						{
							"indexed": true,
							"internalType": "address",
							"name": "from",
							"type": "address"
						},
						{
							"indexed": true,
							"internalType": "address",
							"name": "to",
							"type": "address"
						},
						{
							"indexed": false,
							"internalType": "uint256",
							"name": "value",
							"type": "uint256"
						}
					],
					"name": "Transfer",
					"type": "event"
				},
				{
					"inputs": [],
					"name": "Ben",
					"outputs": [
						{
							"internalType": "address",
							"name": "",
							"type": "address"
						}
					],
					"stateMutability": "view",
					"type": "function"
				},
				{
					"inputs": [],
					"name": "Owner",
					"outputs": [
						{
							"internalType": "address",
							"name": "",
							"type": "address"
						}
					],
					"stateMutability": "view",
					"type": "function"
				},
				{
					"inputs": [],
					"name": "Rick",
					"outputs": [
						{
							"internalType": "address",
							"name": "",
							"type": "address"
						}
					],
					"stateMutability": "view",
					"type": "function"
				},
				{
					"inputs": [],
					"name": "Tom",
					"outputs": [
						{
							"internalType": "address",
							"name": "",
							"type": "address"
						}
					],
					"stateMutability": "view",
					"type": "function"
				},
				{
					"inputs": [
						{
							"internalType": "address",
							"name": "owner",
							"type": "address"
						},
						{
							"internalType": "address",
							"name": "spender",
							"type": "address"
						}
					],
					"name": "allowance",
					"outputs": [
						{
							"internalType": "uint256",
							"name": "",
							"type": "uint256"
						}
					],
					"stateMutability": "view",
					"type": "function"
				},
				{
					"inputs": [
						{
							"internalType": "address",
							"name": "spender",
							"type": "address"
						},
						{
							"internalType": "uint256",
							"name": "amount",
							"type": "uint256"
						}
					],
					"name": "approve",
					"outputs": [
						{
							"internalType": "bool",
							"name": "",
							"type": "bool"
						}
					],
					"stateMutability": "nonpayable",
					"type": "function"
				},
				{
					"inputs": [
						{
							"internalType": "address",
							"name": "account",
							"type": "address"
						}
					],
					"name": "balanceOf",
					"outputs": [
						{
							"internalType": "uint256",
							"name": "",
							"type": "uint256"
						}
					],
					"stateMutability": "view",
					"type": "function"
				},
				{
					"inputs": [],
					"name": "decimals",
					"outputs": [
						{
							"internalType": "uint8",
							"name": "",
							"type": "uint8"
						}
					],
					"stateMutability": "pure",
					"type": "function"
				},
				{
					"inputs": [
						{
							"internalType": "address",
							"name": "spender",
							"type": "address"
						},
						{
							"internalType": "uint256",
							"name": "subtractedValue",
							"type": "uint256"
						}
					],
					"name": "decreaseAllowance",
					"outputs": [
						{
							"internalType": "bool",
							"name": "",
							"type": "bool"
						}
					],
					"stateMutability": "nonpayable",
					"type": "function"
				},
				{
					"inputs": [
						{
							"internalType": "uint256",
							"name": "amount",
							"type": "uint256"
						}
					],
					"name": "giveStartTokensToUsers",
					"outputs": [],
					"stateMutability": "nonpayable",
					"type": "function"
				},
				{
					"inputs": [
						{
							"internalType": "address",
							"name": "spender",
							"type": "address"
						},
						{
							"internalType": "uint256",
							"name": "addedValue",
							"type": "uint256"
						}
					],
					"name": "increaseAllowance",
					"outputs": [
						{
							"internalType": "bool",
							"name": "",
							"type": "bool"
						}
					],
					"stateMutability": "nonpayable",
					"type": "function"
				},
				{
					"inputs": [
						{
							"internalType": "address",
							"name": "account",
							"type": "address"
						},
						{
							"internalType": "uint256",
							"name": "amount",
							"type": "uint256"
						}
					],
					"name": "mint",
					"outputs": [],
					"stateMutability": "nonpayable",
					"type": "function"
				},
				{
					"inputs": [],
					"name": "name",
					"outputs": [
						{
							"internalType": "string",
							"name": "",
							"type": "string"
						}
					],
					"stateMutability": "view",
					"type": "function"
				},
				{
					"inputs": [],
					"name": "symbol",
					"outputs": [
						{
							"internalType": "string",
							"name": "",
							"type": "string"
						}
					],
					"stateMutability": "view",
					"type": "function"
				},
				{
					"inputs": [],
					"name": "totalSupply",
					"outputs": [
						{
							"internalType": "uint256",
							"name": "",
							"type": "uint256"
						}
					],
					"stateMutability": "view",
					"type": "function"
				},
				{
					"inputs": [
						{
							"internalType": "address",
							"name": "to",
							"type": "address"
						},
						{
							"internalType": "uint256",
							"name": "amount",
							"type": "uint256"
						}
					],
					"name": "transfer",
					"outputs": [
						{
							"internalType": "bool",
							"name": "",
							"type": "bool"
						}
					],
					"stateMutability": "nonpayable",
					"type": "function"
				},
				{
					"inputs": [
						{
							"internalType": "address",
							"name": "from",
							"type": "address"
						},
						{
							"internalType": "address",
							"name": "to",
							"type": "address"
						},
						{
							"internalType": "uint256",
							"name": "amount",
							"type": "uint256"
						}
					],
					"name": "transferFrom",
					"outputs": [
						{
							"internalType": "bool",
							"name": "",
							"type": "bool"
						}
					],
					"stateMutability": "nonpayable",
					"type": "function"
				},
				{
					"inputs": [
						{
							"internalType": "address",
							"name": "from",
							"type": "address"
						},
						{
							"internalType": "address",
							"name": "to",
							"type": "address"
						},
						{
							"internalType": "uint256",
							"name": "amount",
							"type": "uint256"
						}
					],
					"name": "transferTokens",
					"outputs": [
						{
							"internalType": "bool",
							"name": "",
							"type": "bool"
						}
					],
					"stateMutability": "nonpayable",
					"type": "function"
				}
			],
			"devdoc": {
				"events": {
					"Approval(address,address,uint256)": {
						"details": "Emitted when the allowance of a `spender` for an `owner` is set by a call to {approve}. `value` is the new allowance."
					},
					"Transfer(address,address,uint256)": {
						"details": "Emitted when `value` tokens are moved from one account (`from`) to another (`to`). Note that `value` may be zero."
					}
				},
				"kind": "dev",
				"methods": {
					"allowance(address,address)": {
						"details": "See {IERC20-allowance}."
					},
					"approve(address,uint256)": {
						"details": "See {IERC20-approve}. NOTE: If `amount` is the maximum `uint256`, the allowance is not updated on `transferFrom`. This is semantically equivalent to an infinite approval. Requirements: - `spender` cannot be the zero address."
					},
					"balanceOf(address)": {
						"details": "See {IERC20-balanceOf}."
					},
					"decimals()": {
						"details": "Returns the number of decimals used to get its user representation. For example, if `decimals` equals `2`, a balance of `505` tokens should be displayed to a user as `5.05` (`505 / 10 ** 2`). Tokens usually opt for a value of 18, imitating the relationship between Ether and Wei. This is the default value returned by this function, unless it's overridden. NOTE: This information is only used for _display_ purposes: it in no way affects any of the arithmetic of the contract, including {IERC20-balanceOf} and {IERC20-transfer}."
					},
					"decreaseAllowance(address,uint256)": {
						"details": "Atomically decreases the allowance granted to `spender` by the caller. This is an alternative to {approve} that can be used as a mitigation for problems described in {IERC20-approve}. Emits an {Approval} event indicating the updated allowance. Requirements: - `spender` cannot be the zero address. - `spender` must have allowance for the caller of at least `subtractedValue`."
					},
					"increaseAllowance(address,uint256)": {
						"details": "Atomically increases the allowance granted to `spender` by the caller. This is an alternative to {approve} that can be used as a mitigation for problems described in {IERC20-approve}. Emits an {Approval} event indicating the updated allowance. Requirements: - `spender` cannot be the zero address."
					},
					"name()": {
						"details": "Returns the name of the token."
					},
					"symbol()": {
						"details": "Returns the symbol of the token, usually a shorter version of the name."
					},
					"totalSupply()": {
						"details": "See {IERC20-totalSupply}."
					},
					"transfer(address,uint256)": {
						"details": "See {IERC20-transfer}. Requirements: - `to` cannot be the zero address. - the caller must have a balance of at least `amount`."
					},
					"transferFrom(address,address,uint256)": {
						"details": "See {IERC20-transferFrom}. Emits an {Approval} event indicating the updated allowance. This is not required by the EIP. See the note at the beginning of {ERC20}. NOTE: Does not update the allowance if the current allowance is the maximum `uint256`. Requirements: - `from` and `to` cannot be the zero address. - `from` must have a balance of at least `amount`. - the caller must have allowance for ``from``'s tokens of at least `amount`."
					}
				},
				"version": 1
			},
			"evm": {
				"assembly": "    /* \"fixcontract/Token.sol\":84:2106  contract Token is ERC20 {... */\n  mstore(0x40, 0x80)\n    /* \"fixcontract/Token.sol\":140:203  address public Tom = 0x6f5c8CFc8FC4fF2C003d5d4Dfe6673F23E17ee4c */\n  0x06\n  dup1\n  sload\n  not(sub(shl(0xa0, 0x01), 0x01))\n  swap1\n  dup2\n  and\n    /* \"fixcontract/Token.sol\":161:203  0x6f5c8CFc8FC4fF2C003d5d4Dfe6673F23E17ee4c */\n  0x6f5c8cfc8fc4ff2c003d5d4dfe6673f23e17ee4c\n    /* \"fixcontract/Token.sol\":140:203  address public Tom = 0x6f5c8CFc8FC4fF2C003d5d4Dfe6673F23E17ee4c */\n  or\n  swap1\n  swap2\n  sstore\n    /* \"fixcontract/Token.sol\":209:272  address public Ben = 0xe40ec4fBd2Dd72CA3E9A825B570c2182370d0569 */\n  0x07\n  dup1\n  sload\n  dup3\n  and\n    /* \"fixcontract/Token.sol\":230:272  0xe40ec4fBd2Dd72CA3E9A825B570c2182370d0569 */\n  0xe40ec4fbd2dd72ca3e9a825b570c2182370d0569\n    /* \"fixcontract/Token.sol\":209:272  address public Ben = 0xe40ec4fBd2Dd72CA3E9A825B570c2182370d0569 */\n  or\n  swap1\n  sstore\n    /* \"fixcontract/Token.sol\":278:342  address public Rick = 0xB0c9eB3164E940df84FDdc65167AA00AA466AE5b */\n  0x08\n  dup1\n  sload\n  swap1\n  swap2\n  and\n    /* \"fixcontract/Token.sol\":300:342  0xB0c9eB3164E940df84FDdc65167AA00AA466AE5b */\n  0xb0c9eb3164e940df84fddc65167aa00aa466ae5b\n    /* \"fixcontract/Token.sol\":278:342  address public Rick = 0xB0c9eB3164E940df84FDdc65167AA00AA466AE5b */\n  or\n  swap1\n  sstore\n    /* \"fixcontract/Token.sol\":349:616  constructor(... */\n  callvalue\n  dup1\n  iszero\n  tag_1\n  jumpi\n  0x00\n  dup1\n  revert\ntag_1:\n  pop\n  mload(0x40)\n  sub(codesize, bytecodeSize)\n  dup1\n  bytecodeSize\n  dup4\n  codecopy\n  dup2\n  add\n  0x40\n  dup2\n  swap1\n  mstore\n  tag_2\n  swap2\n  tag_3\n  jump\t// in\ntag_2:\n    /* \"fixcontract/Token.sol\":485:489  name */\n  dup4\n    /* \"fixcontract/Token.sol\":491:497  symbol */\n  dup4\n    /* \"fixcontract/ERC20.sol\":5204:5209  _name */\n  0x03\n    /* \"fixcontract/ERC20.sol\":5204:5217  _name = name_ */\n  tag_7\n    /* \"fixcontract/Token.sol\":485:489  name */\n  dup4\n    /* \"fixcontract/ERC20.sol\":5204:5209  _name */\n  dup3\n    /* \"fixcontract/ERC20.sol\":5204:5217  _name = name_ */\n  tag_8\n  jump\t// in\ntag_7:\n  pop\n    /* \"fixcontract/ERC20.sol\":5227:5234  _symbol */\n  0x04\n    /* \"fixcontract/ERC20.sol\":5227:5244  _symbol = symbol_ */\n  tag_9\n    /* \"fixcontract/ERC20.sol\":5237:5244  symbol_ */\n  dup3\n    /* \"fixcontract/ERC20.sol\":5227:5234  _symbol */\n  dup3\n    /* \"fixcontract/ERC20.sol\":5227:5244  _symbol = symbol_ */\n  tag_8\n  jump\t// in\ntag_9:\n  pop\n  pop\n    /* \"fixcontract/Token.sol\":509:514  Owner */\n  0x05\n    /* \"fixcontract/Token.sol\":509:522  Owner = owner */\n  dup1\n  sload\n  not(sub(shl(0xa0, 0x01), 0x01))\n  and\n  sub(shl(0xa0, 0x01), 0x01)\n  dup5\n  and\n  swap1\n  dup2\n  or\n  swap1\n  swap2\n  sstore\n    /* \"fixcontract/Token.sol\":566:609  mint(Owner, initialSupply * 10**decimals()) */\n  tag_11\n  swap2\n  pop\n    /* \"fixcontract/Token.sol\":598:608  decimals() */\n  tag_12\n    /* \"fixcontract/Token.sol\":2095:2097  12 */\n  0x0c\n  swap1\n    /* \"fixcontract/Token.sol\":2021:2104  function decimals() public pure override returns (uint8) {... */\n  jump\n    /* \"fixcontract/Token.sol\":598:608  decimals() */\ntag_12:\n    /* \"fixcontract/Token.sol\":594:608  10**decimals() */\n  tag_14\n  swap1\n    /* \"fixcontract/Token.sol\":594:596  10 */\n  0x0a\n    /* \"fixcontract/Token.sol\":594:608  10**decimals() */\n  tag_15\n  jump\t// in\ntag_14:\n    /* \"fixcontract/Token.sol\":578:608  initialSupply * 10**decimals() */\n  tag_16\n  swap1\n    /* \"fixcontract/Token.sol\":578:591  initialSupply */\n  dup6\n    /* \"fixcontract/Token.sol\":578:608  initialSupply * 10**decimals() */\n  tag_17\n  jump\t// in\ntag_16:\n    /* \"fixcontract/Token.sol\":566:570  mint */\n  tag_18\n    /* \"fixcontract/Token.sol\":566:609  mint(Owner, initialSupply * 10**decimals()) */\n  jump\t// in\ntag_11:\n    /* \"fixcontract/Token.sol\":349:616  constructor(... */\n  pop\n  pop\n  pop\n  pop\n    /* \"fixcontract/Token.sol\":84:2106  contract Token is ERC20 {... */\n  jump(tag_47)\n    /* \"fixcontract/Token.sol\":1278:1371  function mint(address account, uint256 amount) public {... */\ntag_18:\n    /* \"fixcontract/Token.sol\":1342:1364  _mint(account, amount) */\n  tag_22\n    /* \"fixcontract/Token.sol\":1348:1355  account */\n  dup3\n    /* \"fixcontract/Token.sol\":1357:1363  amount */\n  dup3\n    /* \"fixcontract/Token.sol\":1342:1347  _mint */\n  tag_23\n    /* \"fixcontract/Token.sol\":1342:1364  _mint(account, amount) */\n  jump\t// in\ntag_22:\n    /* \"fixcontract/Token.sol\":1278:1371  function mint(address account, uint256 amount) public {... */\n  pop\n  pop\n  jump\t// out\n    /* \"fixcontract/ERC20.sol\":11678:12213  function _mint(address account, uint256 amount) internal virtual {... */\ntag_23:\n  sub(shl(0xa0, 0x01), 0x01)\n    /* \"fixcontract/ERC20.sol\":11761:11782  account != address(0) */\n  dup3\n  and\n    /* \"fixcontract/ERC20.sol\":11753:11818  require(account != address(0), \"ERC20: mint to the zero address\") */\n  tag_25\n  jumpi\n  mload(0x40)\n  shl(0xe5, 0x461bcd)\n  dup2\n  mstore\n    /* \"#utility.yul\":6224:6226   */\n  0x20\n    /* \"fixcontract/ERC20.sol\":11753:11818  require(account != address(0), \"ERC20: mint to the zero address\") */\n  0x04\n  dup3\n  add\n    /* \"#utility.yul\":6206:6227   */\n  mstore\n    /* \"#utility.yul\":6263:6265   */\n  0x1f\n    /* \"#utility.yul\":6243:6261   */\n  0x24\n  dup3\n  add\n    /* \"#utility.yul\":6236:6266   */\n  mstore\n    /* \"#utility.yul\":6302:6335   */\n  0x45524332303a206d696e7420746f20746865207a65726f206164647265737300\n    /* \"#utility.yul\":6282:6300   */\n  0x44\n  dup3\n  add\n    /* \"#utility.yul\":6275:6336   */\n  mstore\n    /* \"#utility.yul\":6353:6371   */\n  0x64\n  add\n    /* \"fixcontract/ERC20.sol\":11753:11818  require(account != address(0), \"ERC20: mint to the zero address\") */\n  mload(0x40)\n  dup1\n  swap2\n  sub\n  swap1\n  revert\ntag_25:\n    /* \"fixcontract/ERC20.sol\":11905:11911  amount */\n  dup1\n    /* \"fixcontract/ERC20.sol\":11889:11901  _totalSupply */\n  0x02\n  0x00\n    /* \"fixcontract/ERC20.sol\":11889:11911  _totalSupply += amount */\n  dup3\n  dup3\n  sload\n  tag_30\n  swap2\n  swap1\n  tag_31\n  jump\t// in\ntag_30:\n  swap1\n  swap2\n  sstore\n  pop\n  pop\n  sub(shl(0xa0, 0x01), 0x01)\n    /* \"fixcontract/ERC20.sol\":12057:12075  _balances[account] */\n  dup3\n  and\n    /* \"fixcontract/ERC20.sol\":12057:12066  _balances */\n  0x00\n    /* \"fixcontract/ERC20.sol\":12057:12075  _balances[account] */\n  dup2\n  dup2\n  mstore\n  0x20\n  dup2\n  dup2\n  mstore\n  0x40\n  dup1\n  dup4\n  keccak256\n    /* \"fixcontract/ERC20.sol\":12057:12085  _balances[account] += amount */\n  dup1\n  sload\n  dup7\n  add\n  swap1\n  sstore\n    /* \"fixcontract/ERC20.sol\":12110:12147  Transfer(address(0), account, amount) */\n  mload\n    /* \"#utility.yul\":6658:6683   */\n  dup5\n  dup2\n  mstore\n    /* \"fixcontract/ERC20.sol\":12110:12147  Transfer(address(0), account, amount) */\n  0xddf252ad1be2c89b69c2b068fc378daa952ba7f163c4a11628f55a4df523b3ef\n  swap2\n    /* \"#utility.yul\":6631:6649   */\n  add\n    /* \"fixcontract/ERC20.sol\":12110:12147  Transfer(address(0), account, amount) */\n  mload(0x40)\n  dup1\n  swap2\n  sub\n  swap1\n  log3\n    /* \"fixcontract/ERC20.sol\":12158:12206  _afterTokenTransfer(address(0), account, amount) */\n  tag_22\n    /* \"fixcontract/ERC20.sol\":12186:12187  0 */\n  0x00\n    /* \"fixcontract/ERC20.sol\":12190:12197  account */\n  dup4\n    /* \"fixcontract/ERC20.sol\":12199:12205  amount */\n  dup4\n    /* \"fixcontract/ERC20.sol\":15231:15322  function _beforeTokenTransfer(address from, address to, uint256 amount) internal virtual {} */\ntag_29:\n  pop\n  pop\n  pop\n  jump\t// out\n    /* \"#utility.yul\":14:141   */\ntag_38:\n    /* \"#utility.yul\":75:85   */\n  0x4e487b71\n    /* \"#utility.yul\":70:73   */\n  0xe0\n    /* \"#utility.yul\":66:86   */\n  shl\n    /* \"#utility.yul\":63:64   */\n  0x00\n    /* \"#utility.yul\":56:87   */\n  mstore\n    /* \"#utility.yul\":106:110   */\n  0x41\n    /* \"#utility.yul\":103:104   */\n  0x04\n    /* \"#utility.yul\":96:111   */\n  mstore\n    /* \"#utility.yul\":130:134   */\n  0x24\n    /* \"#utility.yul\":127:128   */\n  0x00\n    /* \"#utility.yul\":120:135   */\n  revert\n    /* \"#utility.yul\":146:980   */\ntag_39:\n    /* \"#utility.yul\":200:205   */\n  0x00\n    /* \"#utility.yul\":253:256   */\n  dup3\n    /* \"#utility.yul\":246:250   */\n  0x1f\n    /* \"#utility.yul\":238:244   */\n  dup4\n    /* \"#utility.yul\":234:251   */\n  add\n    /* \"#utility.yul\":230:257   */\n  slt\n    /* \"#utility.yul\":220:275   */\n  tag_50\n  jumpi\n    /* \"#utility.yul\":271:272   */\n  0x00\n    /* \"#utility.yul\":268:269   */\n  dup1\n    /* \"#utility.yul\":261:273   */\n  revert\n    /* \"#utility.yul\":220:275   */\ntag_50:\n    /* \"#utility.yul\":298:311   */\n  dup2\n  mload\n  sub(shl(0x40, 0x01), 0x01)\n    /* \"#utility.yul\":323:353   */\n  dup2\n  gt\n    /* \"#utility.yul\":320:376   */\n  iszero\n  tag_52\n  jumpi\n    /* \"#utility.yul\":356:374   */\n  tag_52\n  tag_38\n  jump\t// in\ntag_52:\n    /* \"#utility.yul\":405:407   */\n  0x40\n    /* \"#utility.yul\":399:408   */\n  mload\n    /* \"#utility.yul\":497:499   */\n  0x1f\n    /* \"#utility.yul\":459:476   */\n  dup3\n  add\n  not(0x1f)\n    /* \"#utility.yul\":455:486   */\n  swap1\n  dup2\n  and\n    /* \"#utility.yul\":488:490   */\n  0x3f\n    /* \"#utility.yul\":451:491   */\n  add\n    /* \"#utility.yul\":447:501   */\n  and\n    /* \"#utility.yul\":435:502   */\n  dup2\n  add\n  sub(shl(0x40, 0x01), 0x01)\n    /* \"#utility.yul\":517:551   */\n  dup2\n  gt\n    /* \"#utility.yul\":553:575   */\n  dup3\n  dup3\n  lt\n    /* \"#utility.yul\":514:576   */\n  or\n    /* \"#utility.yul\":511:599   */\n  iszero\n  tag_54\n  jumpi\n    /* \"#utility.yul\":579:597   */\n  tag_54\n  tag_38\n  jump\t// in\ntag_54:\n    /* \"#utility.yul\":615:617   */\n  0x40\n    /* \"#utility.yul\":608:630   */\n  mstore\n    /* \"#utility.yul\":639:661   */\n  dup2\n  dup2\n  mstore\n    /* \"#utility.yul\":680:699   */\n  dup4\n  dup3\n  add\n    /* \"#utility.yul\":701:705   */\n  0x20\n    /* \"#utility.yul\":676:706   */\n  add\n    /* \"#utility.yul\":673:712   */\n  dup6\n  lt\n    /* \"#utility.yul\":670:729   */\n  iszero\n  tag_55\n  jumpi\n    /* \"#utility.yul\":725:726   */\n  0x00\n    /* \"#utility.yul\":722:723   */\n  dup1\n    /* \"#utility.yul\":715:727   */\n  revert\n    /* \"#utility.yul\":670:729   */\ntag_55:\n    /* \"#utility.yul\":747:748   */\n  0x00\n    /* \"#utility.yul\":757:900   */\ntag_56:\n    /* \"#utility.yul\":771:777   */\n  dup3\n    /* \"#utility.yul\":768:769   */\n  dup2\n    /* \"#utility.yul\":765:778   */\n  lt\n    /* \"#utility.yul\":757:900   */\n  iszero\n  tag_58\n  jumpi\n    /* \"#utility.yul\":883:887   */\n  0x20\n    /* \"#utility.yul\":867:881   */\n  dup2\n  dup7\n  add\n    /* \"#utility.yul\":863:888   */\n  dup2\n  add\n    /* \"#utility.yul\":857:889   */\n  mload\n    /* \"#utility.yul\":834:848   */\n  dup4\n  dup4\n  add\n    /* \"#utility.yul\":830:855   */\n  dup3\n  add\n    /* \"#utility.yul\":823:890   */\n  mstore\n    /* \"#utility.yul\":786:798   */\n  add\n    /* \"#utility.yul\":757:900   */\n  jump(tag_56)\ntag_58:\n  pop\n    /* \"#utility.yul\":948:949   */\n  0x00\n    /* \"#utility.yul\":920:939   */\n  swap2\n  dup2\n  add\n    /* \"#utility.yul\":941:945   */\n  0x20\n    /* \"#utility.yul\":916:946   */\n  add\n    /* \"#utility.yul\":909:950   */\n  swap2\n  swap1\n  swap2\n  mstore\n    /* \"#utility.yul\":924:930   */\n  swap4\n    /* \"#utility.yul\":146:980   */\n  swap3\n  pop\n  pop\n  pop\n  jump\t// out\n    /* \"#utility.yul\":985:1771   */\ntag_3:\n    /* \"#utility.yul\":1102:1108   */\n  0x00\n    /* \"#utility.yul\":1110:1116   */\n  dup1\n    /* \"#utility.yul\":1118:1124   */\n  0x00\n    /* \"#utility.yul\":1126:1132   */\n  dup1\n    /* \"#utility.yul\":1179:1182   */\n  0x80\n    /* \"#utility.yul\":1167:1176   */\n  dup6\n    /* \"#utility.yul\":1158:1165   */\n  dup8\n    /* \"#utility.yul\":1154:1177   */\n  sub\n    /* \"#utility.yul\":1150:1183   */\n  slt\n    /* \"#utility.yul\":1147:1200   */\n  iszero\n  tag_60\n  jumpi\n    /* \"#utility.yul\":1196:1197   */\n  0x00\n    /* \"#utility.yul\":1193:1194   */\n  dup1\n    /* \"#utility.yul\":1186:1198   */\n  revert\n    /* \"#utility.yul\":1147:1200   */\ntag_60:\n    /* \"#utility.yul\":1223:1239   */\n  dup5\n  mload\n  sub(shl(0x40, 0x01), 0x01)\n    /* \"#utility.yul\":1251:1281   */\n  dup2\n  gt\n    /* \"#utility.yul\":1248:1298   */\n  iszero\n  tag_61\n  jumpi\n    /* \"#utility.yul\":1294:1295   */\n  0x00\n    /* \"#utility.yul\":1291:1292   */\n  dup1\n    /* \"#utility.yul\":1284:1296   */\n  revert\n    /* \"#utility.yul\":1248:1298   */\ntag_61:\n    /* \"#utility.yul\":1317:1378   */\n  tag_62\n    /* \"#utility.yul\":1370:1377   */\n  dup8\n    /* \"#utility.yul\":1361:1367   */\n  dup3\n    /* \"#utility.yul\":1350:1359   */\n  dup9\n    /* \"#utility.yul\":1346:1368   */\n  add\n    /* \"#utility.yul\":1317:1378   */\n  tag_39\n  jump\t// in\ntag_62:\n    /* \"#utility.yul\":1424:1426   */\n  0x20\n    /* \"#utility.yul\":1409:1427   */\n  dup8\n  add\n    /* \"#utility.yul\":1403:1428   */\n  mload\n    /* \"#utility.yul\":1307:1378   */\n  swap1\n  swap6\n  pop\n    /* \"#utility.yul\":1403:1428   */\n  swap1\n  pop\n  sub(shl(0x40, 0x01), 0x01)\n    /* \"#utility.yul\":1440:1472   */\n  dup2\n  gt\n    /* \"#utility.yul\":1437:1489   */\n  iszero\n  tag_63\n  jumpi\n    /* \"#utility.yul\":1485:1486   */\n  0x00\n    /* \"#utility.yul\":1482:1483   */\n  dup1\n    /* \"#utility.yul\":1475:1487   */\n  revert\n    /* \"#utility.yul\":1437:1489   */\ntag_63:\n    /* \"#utility.yul\":1508:1571   */\n  tag_64\n    /* \"#utility.yul\":1563:1570   */\n  dup8\n    /* \"#utility.yul\":1552:1560   */\n  dup3\n    /* \"#utility.yul\":1541:1550   */\n  dup9\n    /* \"#utility.yul\":1537:1561   */\n  add\n    /* \"#utility.yul\":1508:1571   */\n  tag_39\n  jump\t// in\ntag_64:\n    /* \"#utility.yul\":1611:1613   */\n  0x40\n    /* \"#utility.yul\":1596:1614   */\n  dup8\n  add\n    /* \"#utility.yul\":1590:1615   */\n  mload\n    /* \"#utility.yul\":1658:1660   */\n  0x60\n    /* \"#utility.yul\":1643:1661   */\n  dup9\n  add\n    /* \"#utility.yul\":1637:1662   */\n  mload\n    /* \"#utility.yul\":1498:1571   */\n  swap2\n  swap6\n  pop\n    /* \"#utility.yul\":1590:1615   */\n  swap4\n  pop\n    /* \"#utility.yul\":1637:1662   */\n  swap1\n  pop\n  sub(shl(0xa0, 0x01), 0x01)\n    /* \"#utility.yul\":1691:1722   */\n  dup2\n  and\n    /* \"#utility.yul\":1681:1723   */\n  dup2\n  eq\n    /* \"#utility.yul\":1671:1741   */\n  tag_65\n  jumpi\n    /* \"#utility.yul\":1737:1738   */\n  0x00\n    /* \"#utility.yul\":1734:1735   */\n  dup1\n    /* \"#utility.yul\":1727:1739   */\n  revert\n    /* \"#utility.yul\":1671:1741   */\ntag_65:\n    /* \"#utility.yul\":985:1771   */\n  swap4\n  swap7\n  swap3\n  swap6\n  pop\n  swap1\n  swap4\n  pop\n  pop\n  jump\t// out\n    /* \"#utility.yul\":1776:2156   */\ntag_40:\n    /* \"#utility.yul\":1855:1856   */\n  0x01\n    /* \"#utility.yul\":1851:1863   */\n  dup2\n  dup2\n  shr\n  swap1\n    /* \"#utility.yul\":1898:1910   */\n  dup3\n  and\n  dup1\n    /* \"#utility.yul\":1919:1980   */\n  tag_67\n  jumpi\n    /* \"#utility.yul\":1973:1977   */\n  0x7f\n    /* \"#utility.yul\":1965:1971   */\n  dup3\n    /* \"#utility.yul\":1961:1978   */\n  and\n    /* \"#utility.yul\":1951:1978   */\n  swap2\n  pop\n    /* \"#utility.yul\":1919:1980   */\ntag_67:\n    /* \"#utility.yul\":2026:2028   */\n  0x20\n    /* \"#utility.yul\":2018:2024   */\n  dup3\n    /* \"#utility.yul\":2015:2029   */\n  lt\n    /* \"#utility.yul\":1995:2013   */\n  dup2\n    /* \"#utility.yul\":1992:2030   */\n  sub\n    /* \"#utility.yul\":1989:2150   */\n  tag_68\n  jumpi\n    /* \"#utility.yul\":2072:2082   */\n  0x4e487b71\n    /* \"#utility.yul\":2067:2070   */\n  0xe0\n    /* \"#utility.yul\":2063:2083   */\n  shl\n    /* \"#utility.yul\":2060:2061   */\n  0x00\n    /* \"#utility.yul\":2053:2084   */\n  mstore\n    /* \"#utility.yul\":2107:2111   */\n  0x22\n    /* \"#utility.yul\":2104:2105   */\n  0x04\n    /* \"#utility.yul\":2097:2112   */\n  mstore\n    /* \"#utility.yul\":2135:2139   */\n  0x24\n    /* \"#utility.yul\":2132:2133   */\n  0x00\n    /* \"#utility.yul\":2125:2140   */\n  revert\n    /* \"#utility.yul\":1989:2150   */\ntag_68:\n  pop\n    /* \"#utility.yul\":1776:2156   */\n  swap2\n  swap1\n  pop\n  jump\t// out\n    /* \"#utility.yul\":2287:2805   */\ntag_42:\n    /* \"#utility.yul\":2389:2391   */\n  0x1f\n    /* \"#utility.yul\":2384:2387   */\n  dup3\n    /* \"#utility.yul\":2381:2392   */\n  gt\n    /* \"#utility.yul\":2378:2799   */\n  iszero\n  tag_29\n  jumpi\n    /* \"#utility.yul\":2425:2430   */\n  dup1\n    /* \"#utility.yul\":2422:2423   */\n  0x00\n    /* \"#utility.yul\":2415:2431   */\n  mstore\n    /* \"#utility.yul\":2469:2473   */\n  0x20\n    /* \"#utility.yul\":2466:2467   */\n  0x00\n    /* \"#utility.yul\":2456:2474   */\n  keccak256\n    /* \"#utility.yul\":2539:2541   */\n  0x1f\n    /* \"#utility.yul\":2527:2537   */\n  dup5\n    /* \"#utility.yul\":2523:2542   */\n  add\n    /* \"#utility.yul\":2520:2521   */\n  0x05\n    /* \"#utility.yul\":2516:2543   */\n  shr\n    /* \"#utility.yul\":2510:2514   */\n  dup2\n    /* \"#utility.yul\":2506:2544   */\n  add\n    /* \"#utility.yul\":2575:2579   */\n  0x20\n    /* \"#utility.yul\":2563:2573   */\n  dup6\n    /* \"#utility.yul\":2560:2580   */\n  lt\n    /* \"#utility.yul\":2557:2604   */\n  iszero\n  tag_72\n  jumpi\n  pop\n    /* \"#utility.yul\":2598:2602   */\n  dup1\n    /* \"#utility.yul\":2557:2604   */\ntag_72:\n    /* \"#utility.yul\":2653:2655   */\n  0x1f\n    /* \"#utility.yul\":2648:2651   */\n  dup5\n    /* \"#utility.yul\":2644:2656   */\n  add\n    /* \"#utility.yul\":2641:2642   */\n  0x05\n    /* \"#utility.yul\":2637:2657   */\n  shr\n    /* \"#utility.yul\":2631:2635   */\n  dup3\n    /* \"#utility.yul\":2627:2658   */\n  add\n    /* \"#utility.yul\":2617:2658   */\n  swap2\n  pop\n    /* \"#utility.yul\":2708:2789   */\ntag_73:\n    /* \"#utility.yul\":2726:2728   */\n  dup2\n    /* \"#utility.yul\":2719:2724   */\n  dup2\n    /* \"#utility.yul\":2716:2729   */\n  lt\n    /* \"#utility.yul\":2708:2789   */\n  iszero\n  tag_75\n  jumpi\n    /* \"#utility.yul\":2785:2786   */\n  0x00\n    /* \"#utility.yul\":2771:2787   */\n  dup2\n  sstore\n    /* \"#utility.yul\":2752:2753   */\n  0x01\n    /* \"#utility.yul\":2741:2754   */\n  add\n    /* \"#utility.yul\":2708:2789   */\n  jump(tag_73)\ntag_75:\n    /* \"#utility.yul\":2712:2715   */\n  pop\n  pop\n    /* \"#utility.yul\":2287:2805   */\n  pop\n  pop\n  pop\n  jump\t// out\n    /* \"#utility.yul\":2981:4280   */\ntag_8:\n    /* \"#utility.yul\":3101:3111   */\n  dup2\n  mload\n  sub(shl(0x40, 0x01), 0x01)\n    /* \"#utility.yul\":3123:3153   */\n  dup2\n  gt\n    /* \"#utility.yul\":3120:3176   */\n  iszero\n  tag_79\n  jumpi\n    /* \"#utility.yul\":3156:3174   */\n  tag_79\n  tag_38\n  jump\t// in\ntag_79:\n    /* \"#utility.yul\":3185:3282   */\n  tag_80\n    /* \"#utility.yul\":3275:3281   */\n  dup2\n    /* \"#utility.yul\":3235:3273   */\n  tag_81\n    /* \"#utility.yul\":3267:3271   */\n  dup5\n    /* \"#utility.yul\":3261:3272   */\n  sload\n    /* \"#utility.yul\":3235:3273   */\n  tag_40\n  jump\t// in\ntag_81:\n    /* \"#utility.yul\":3229:3233   */\n  dup5\n    /* \"#utility.yul\":3185:3282   */\n  tag_42\n  jump\t// in\ntag_80:\n    /* \"#utility.yul\":3331:3335   */\n  0x20\n    /* \"#utility.yul\":3362:3364   */\n  0x1f\n    /* \"#utility.yul\":3351:3365   */\n  dup3\n  gt\n    /* \"#utility.yul\":3379:3380   */\n  0x01\n    /* \"#utility.yul\":3374:4023   */\n  dup2\n  eq\n  tag_83\n  jumpi\n    /* \"#utility.yul\":4067:4068   */\n  0x00\n    /* \"#utility.yul\":4084:4090   */\n  dup4\n    /* \"#utility.yul\":4081:4170   */\n  iszero\n  tag_84\n  jumpi\n  pop\n    /* \"#utility.yul\":4136:4155   */\n  dup5\n  dup3\n  add\n    /* \"#utility.yul\":4130:4156   */\n  mload\n    /* \"#utility.yul\":4081:4170   */\ntag_84:\n  not(0x00)\n    /* \"#utility.yul\":2938:2939   */\n  0x03\n    /* \"#utility.yul\":2934:2945   */\n  dup6\n  swap1\n  shl\n    /* \"#utility.yul\":2930:2954   */\n  shr\n    /* \"#utility.yul\":2926:2955   */\n  not\n    /* \"#utility.yul\":2916:2956   */\n  and\n    /* \"#utility.yul\":2962:2963   */\n  0x01\n    /* \"#utility.yul\":2958:2969   */\n  dup5\n  swap1\n  shl\n    /* \"#utility.yul\":2913:2970   */\n  or\n    /* \"#utility.yul\":4183:4264   */\n  dup5\n  sstore\n    /* \"#utility.yul\":3344:4274   */\n  jump(tag_75)\n    /* \"#utility.yul\":3374:4023   */\ntag_83:\n    /* \"#utility.yul\":2234:2235   */\n  0x00\n    /* \"#utility.yul\":2227:2241   */\n  dup5\n  dup2\n  mstore\n    /* \"#utility.yul\":2271:2275   */\n  0x20\n    /* \"#utility.yul\":2258:2276   */\n  dup2\n  keccak256\n  not(0x1f)\n    /* \"#utility.yul\":3410:3430   */\n  dup6\n  and\n  swap2\n    /* \"#utility.yul\":3528:3750   */\ntag_87:\n    /* \"#utility.yul\":3542:3549   */\n  dup3\n    /* \"#utility.yul\":3539:3540   */\n  dup2\n    /* \"#utility.yul\":3536:3550   */\n  lt\n    /* \"#utility.yul\":3528:3750   */\n  iszero\n  tag_89\n  jumpi\n    /* \"#utility.yul\":3624:3643   */\n  dup8\n  dup6\n  add\n    /* \"#utility.yul\":3618:3644   */\n  mload\n    /* \"#utility.yul\":3603:3645   */\n  dup3\n  sstore\n    /* \"#utility.yul\":3731:3735   */\n  0x20\n    /* \"#utility.yul\":3716:3736   */\n  swap5\n  dup6\n  add\n  swap5\n    /* \"#utility.yul\":3684:3685   */\n  0x01\n    /* \"#utility.yul\":3672:3686   */\n  swap1\n  swap3\n  add\n  swap2\n    /* \"#utility.yul\":3558:3570   */\n  add\n    /* \"#utility.yul\":3528:3750   */\n  jump(tag_87)\ntag_89:\n    /* \"#utility.yul\":3532:3535   */\n  pop\n    /* \"#utility.yul\":3778:3784   */\n  dup5\n    /* \"#utility.yul\":3769:3776   */\n  dup3\n    /* \"#utility.yul\":3766:3785   */\n  lt\n    /* \"#utility.yul\":3763:3964   */\n  iszero\n  tag_90\n  jumpi\n    /* \"#utility.yul\":3839:3858   */\n  dup7\n  dup5\n  add\n    /* \"#utility.yul\":3833:3859   */\n  mload\n  not(0x00)\n    /* \"#utility.yul\":3922:3923   */\n  0x03\n    /* \"#utility.yul\":3918:3932   */\n  dup8\n  swap1\n  shl\n    /* \"#utility.yul\":3934:3937   */\n  0xf8\n    /* \"#utility.yul\":3914:3938   */\n  and\n    /* \"#utility.yul\":3910:3947   */\n  shr\n    /* \"#utility.yul\":3906:3948   */\n  not\n    /* \"#utility.yul\":3891:3949   */\n  and\n    /* \"#utility.yul\":3876:3950   */\n  dup2\n  sstore\n    /* \"#utility.yul\":3763:3964   */\ntag_90:\n  pop\n  pop\n  pop\n  pop\n    /* \"#utility.yul\":4010:4011   */\n  0x01\n    /* \"#utility.yul\":3994:4008   */\n  swap1\n  dup2\n  shl\n    /* \"#utility.yul\":3990:4012   */\n  add\n    /* \"#utility.yul\":3977:4013   */\n  swap1\n  sstore\n  pop\n    /* \"#utility.yul\":2981:4280   */\n  jump\t// out\n    /* \"#utility.yul\":4285:4412   */\ntag_44:\n    /* \"#utility.yul\":4346:4356   */\n  0x4e487b71\n    /* \"#utility.yul\":4341:4344   */\n  0xe0\n    /* \"#utility.yul\":4337:4357   */\n  shl\n    /* \"#utility.yul\":4334:4335   */\n  0x00\n    /* \"#utility.yul\":4327:4358   */\n  mstore\n    /* \"#utility.yul\":4377:4381   */\n  0x11\n    /* \"#utility.yul\":4374:4375   */\n  0x04\n    /* \"#utility.yul\":4367:4382   */\n  mstore\n    /* \"#utility.yul\":4401:4405   */\n  0x24\n    /* \"#utility.yul\":4398:4399   */\n  0x00\n    /* \"#utility.yul\":4391:4406   */\n  revert\n    /* \"#utility.yul\":4417:4792   */\ntag_45:\n    /* \"#utility.yul\":4505:4506   */\n  0x01\n    /* \"#utility.yul\":4523:4528   */\n  dup2\n    /* \"#utility.yul\":4537:4786   */\ntag_93:\n    /* \"#utility.yul\":4558:4559   */\n  0x01\n    /* \"#utility.yul\":4548:4556   */\n  dup5\n    /* \"#utility.yul\":4545:4560   */\n  gt\n    /* \"#utility.yul\":4537:4786   */\n  iszero\n  tag_95\n  jumpi\n    /* \"#utility.yul\":4608:4612   */\n  dup1\n    /* \"#utility.yul\":4603:4606   */\n  dup6\n    /* \"#utility.yul\":4599:4613   */\n  div\n    /* \"#utility.yul\":4593:4597   */\n  dup2\n    /* \"#utility.yul\":4590:4614   */\n  gt\n    /* \"#utility.yul\":4587:4637   */\n  iszero\n  tag_97\n  jumpi\n    /* \"#utility.yul\":4617:4635   */\n  tag_97\n  tag_44\n  jump\t// in\ntag_97:\n    /* \"#utility.yul\":4667:4668   */\n  0x01\n    /* \"#utility.yul\":4657:4665   */\n  dup5\n    /* \"#utility.yul\":4653:4669   */\n  and\n    /* \"#utility.yul\":4650:4699   */\n  iszero\n  tag_98\n  jumpi\n    /* \"#utility.yul\":4681:4697   */\n  swap1\n  dup2\n  mul\n  swap1\n    /* \"#utility.yul\":4650:4699   */\ntag_98:\n    /* \"#utility.yul\":4764:4765   */\n  0x01\n    /* \"#utility.yul\":4760:4776   */\n  swap4\n  swap1\n  swap4\n  shr\n  swap3\n    /* \"#utility.yul\":4720:4735   */\n  dup1\n  mul\n    /* \"#utility.yul\":4537:4786   */\n  jump(tag_93)\ntag_95:\n    /* \"#utility.yul\":4417:4792   */\n  swap4\n  pop\n  swap4\n  swap2\n  pop\n  pop\n  jump\t// out\n    /* \"#utility.yul\":4797:5699   */\ntag_46:\n    /* \"#utility.yul\":4846:4851   */\n  0x00\n    /* \"#utility.yul\":4876:4884   */\n  dup3\n    /* \"#utility.yul\":4866:4946   */\n  tag_100\n  jumpi\n  pop\n    /* \"#utility.yul\":4917:4918   */\n  0x01\n    /* \"#utility.yul\":4931:4936   */\n  jump(tag_99)\n    /* \"#utility.yul\":4866:4946   */\ntag_100:\n    /* \"#utility.yul\":4965:4969   */\n  dup2\n    /* \"#utility.yul\":4955:5031   */\n  tag_101\n  jumpi\n  pop\n    /* \"#utility.yul\":5002:5003   */\n  0x00\n    /* \"#utility.yul\":5016:5021   */\n  jump(tag_99)\n    /* \"#utility.yul\":4955:5031   */\ntag_101:\n    /* \"#utility.yul\":5047:5051   */\n  dup2\n    /* \"#utility.yul\":5065:5066   */\n  0x01\n    /* \"#utility.yul\":5060:5119   */\n  dup2\n  eq\n  tag_103\n  jumpi\n    /* \"#utility.yul\":5133:5134   */\n  0x02\n    /* \"#utility.yul\":5128:5302   */\n  dup2\n  eq\n  tag_104\n  jumpi\n    /* \"#utility.yul\":5040:5302   */\n  jump(tag_102)\n    /* \"#utility.yul\":5060:5119   */\ntag_103:\n    /* \"#utility.yul\":5090:5091   */\n  0x01\n    /* \"#utility.yul\":5081:5091   */\n  swap2\n  pop\n    /* \"#utility.yul\":5104:5109   */\n  pop\n  jump(tag_99)\n    /* \"#utility.yul\":5128:5302   */\ntag_104:\n    /* \"#utility.yul\":5165:5168   */\n  0xff\n    /* \"#utility.yul\":5155:5163   */\n  dup5\n    /* \"#utility.yul\":5152:5169   */\n  gt\n    /* \"#utility.yul\":5149:5192   */\n  iszero\n  tag_106\n  jumpi\n    /* \"#utility.yul\":5172:5190   */\n  tag_106\n  tag_44\n  jump\t// in\ntag_106:\n  pop\n  pop\n    /* \"#utility.yul\":5228:5229   */\n  0x01\n    /* \"#utility.yul\":5214:5230   */\n  dup3\n  shl\n    /* \"#utility.yul\":5287:5292   */\n  jump(tag_99)\n    /* \"#utility.yul\":5040:5302   */\ntag_102:\n  pop\n    /* \"#utility.yul\":5386:5388   */\n  0x20\n    /* \"#utility.yul\":5376:5384   */\n  dup4\n    /* \"#utility.yul\":5373:5389   */\n  lt\n    /* \"#utility.yul\":5367:5370   */\n  0x0133\n    /* \"#utility.yul\":5361:5365   */\n  dup4\n    /* \"#utility.yul\":5358:5371   */\n  lt\n    /* \"#utility.yul\":5354:5390   */\n  and\n    /* \"#utility.yul\":5348:5350   */\n  0x4e\n    /* \"#utility.yul\":5338:5346   */\n  dup5\n    /* \"#utility.yul\":5335:5351   */\n  lt\n    /* \"#utility.yul\":5330:5332   */\n  0x0b\n    /* \"#utility.yul\":5324:5328   */\n  dup5\n    /* \"#utility.yul\":5321:5333   */\n  lt\n    /* \"#utility.yul\":5317:5352   */\n  and\n    /* \"#utility.yul\":5314:5391   */\n  or\n    /* \"#utility.yul\":5311:5514   */\n  iszero\n  tag_107\n  jumpi\n  pop\n    /* \"#utility.yul\":5423:5442   */\n  dup2\n  dup2\n  exp\n    /* \"#utility.yul\":5499:5504   */\n  jump(tag_99)\n    /* \"#utility.yul\":5311:5514   */\ntag_107:\n    /* \"#utility.yul\":5546:5588   */\n  tag_108\n  not(0x00)\n    /* \"#utility.yul\":5571:5579   */\n  dup5\n    /* \"#utility.yul\":5565:5569   */\n  dup5\n    /* \"#utility.yul\":5546:5588   */\n  tag_45\n  jump\t// in\ntag_108:\n    /* \"#utility.yul\":5624:5630   */\n  dup1\n    /* \"#utility.yul\":5620:5621   */\n  0x00\n    /* \"#utility.yul\":5616:5622   */\n  not\n    /* \"#utility.yul\":5612:5631   */\n  div\n    /* \"#utility.yul\":5603:5610   */\n  dup3\n    /* \"#utility.yul\":5600:5632   */\n  gt\n    /* \"#utility.yul\":5597:5655   */\n  iszero\n  tag_110\n  jumpi\n    /* \"#utility.yul\":5635:5653   */\n  tag_110\n  tag_44\n  jump\t// in\ntag_110:\n    /* \"#utility.yul\":5673:5693   */\n  mul\n  swap1\n  pop\n    /* \"#utility.yul\":4797:5699   */\ntag_99:\n  swap3\n  swap2\n  pop\n  pop\n  jump\t// out\n    /* \"#utility.yul\":5704:5844   */\ntag_15:\n    /* \"#utility.yul\":5762:5767   */\n  0x00\n    /* \"#utility.yul\":5791:5838   */\n  tag_112\n    /* \"#utility.yul\":5832:5836   */\n  0xff\n    /* \"#utility.yul\":5822:5830   */\n  dup5\n    /* \"#utility.yul\":5818:5837   */\n  and\n    /* \"#utility.yul\":5812:5816   */\n  dup4\n    /* \"#utility.yul\":5791:5838   */\n  tag_46\n  jump\t// in\ntag_112:\n    /* \"#utility.yul\":5782:5838   */\n  swap4\n    /* \"#utility.yul\":5704:5844   */\n  swap3\n  pop\n  pop\n  pop\n  jump\t// out\n    /* \"#utility.yul\":5849:6017   */\ntag_17:\n    /* \"#utility.yul\":5922:5931   */\n  dup1\n  dup3\n  mul\n    /* \"#utility.yul\":5953:5962   */\n  dup2\n  iszero\n    /* \"#utility.yul\":5970:5985   */\n  dup3\n  dup3\n  div\n    /* \"#utility.yul\":5964:5986   */\n  dup5\n  eq\n    /* \"#utility.yul\":5950:5987   */\n  or\n    /* \"#utility.yul\":5940:6011   */\n  tag_99\n  jumpi\n    /* \"#utility.yul\":5991:6009   */\n  tag_99\n  tag_44\n  jump\t// in\n    /* \"#utility.yul\":6382:6507   */\ntag_31:\n    /* \"#utility.yul\":6447:6456   */\n  dup1\n  dup3\n  add\n    /* \"#utility.yul\":6468:6478   */\n  dup1\n  dup3\n  gt\n    /* \"#utility.yul\":6465:6501   */\n  iszero\n  tag_99\n  jumpi\n    /* \"#utility.yul\":6481:6499   */\n  tag_99\n  tag_44\n  jump\t// in\n    /* \"#utility.yul\":6512:6689   */\ntag_47:\n    /* \"fixcontract/Token.sol\":84:2106  contract Token is ERC20 {... */\n  dataSize(sub_0)\n  dup1\n  dataOffset(sub_0)\n  0x00\n  codecopy\n  0x00\n  return\nstop\n\nsub_0: assembly {\n        /* \"fixcontract/Token.sol\":84:2106  contract Token is ERC20 {... */\n      mstore(0x40, 0x80)\n      callvalue\n      dup1\n      iszero\n      tag_1\n      jumpi\n      0x00\n      dup1\n      revert\n    tag_1:\n      pop\n      jumpi(tag_2, lt(calldatasize, 0x04))\n      shr(0xe0, calldataload(0x00))\n      dup1\n      0x70a08231\n      gt\n      tag_21\n      jumpi\n      dup1\n      0xa64b6e5f\n      gt\n      tag_22\n      jumpi\n      dup1\n      0xa64b6e5f\n      eq\n      tag_16\n      jumpi\n      dup1\n      0xa9059cbb\n      eq\n      tag_17\n      jumpi\n      dup1\n      0xb4a99a4e\n      eq\n      tag_18\n      jumpi\n      dup1\n      0xd616f1bd\n      eq\n      tag_19\n      jumpi\n      dup1\n      0xdd62ed3e\n      eq\n      tag_20\n      jumpi\n      0x00\n      dup1\n      revert\n    tag_22:\n      dup1\n      0x70a08231\n      eq\n      tag_12\n      jumpi\n      dup1\n      0x70d20fde\n      eq\n      tag_13\n      jumpi\n      dup1\n      0x95d89b41\n      eq\n      tag_14\n      jumpi\n      dup1\n      0xa457c2d7\n      eq\n      tag_15\n      jumpi\n      0x00\n      dup1\n      revert\n    tag_21:\n      dup1\n      0x23b872dd\n      gt\n      tag_23\n      jumpi\n      dup1\n      0x23b872dd\n      eq\n      tag_7\n      jumpi\n      dup1\n      0x266e588c\n      eq\n      tag_8\n      jumpi\n      dup1\n      0x313ce567\n      eq\n      tag_9\n      jumpi\n      dup1\n      0x39509351\n      eq\n      tag_10\n      jumpi\n      dup1\n      0x40c10f19\n      eq\n      tag_11\n      jumpi\n      0x00\n      dup1\n      revert\n    tag_23:\n      dup1\n      0x06fdde03\n      eq\n      tag_3\n      jumpi\n      dup1\n      0x095ea7b3\n      eq\n      tag_4\n      jumpi\n      dup1\n      0x0b8b4b24\n      eq\n      tag_5\n      jumpi\n      dup1\n      0x18160ddd\n      eq\n      tag_6\n      jumpi\n    tag_2:\n      0x00\n      dup1\n      revert\n        /* \"fixcontract/ERC20.sol\":5316:5414  function name() public view virtual override returns (string memory) {... */\n    tag_3:\n      tag_24\n      tag_25\n      jump\t// in\n    tag_24:\n      mload(0x40)\n      tag_26\n      swap2\n      swap1\n      tag_27\n      jump\t// in\n    tag_26:\n      mload(0x40)\n      dup1\n      swap2\n      sub\n      swap1\n      return\n        /* \"fixcontract/ERC20.sol\":7602:7799  function approve(address spender, uint256 amount) public virtual override returns (bool) {... */\n    tag_4:\n      tag_28\n      tag_29\n      calldatasize\n      0x04\n      tag_30\n      jump\t// in\n    tag_29:\n      tag_31\n      jump\t// in\n    tag_28:\n      mload(0x40)\n        /* \"#utility.yul\":1194:1208   */\n      swap1\n      iszero\n        /* \"#utility.yul\":1187:1209   */\n      iszero\n        /* \"#utility.yul\":1169:1210   */\n      dup2\n      mstore\n        /* \"#utility.yul\":1157:1159   */\n      0x20\n        /* \"#utility.yul\":1142:1160   */\n      add\n        /* \"fixcontract/ERC20.sol\":7602:7799  function approve(address spender, uint256 amount) public virtual override returns (bool) {... */\n      tag_26\n        /* \"#utility.yul\":1029:1216   */\n      jump\n        /* \"fixcontract/Token.sol\":140:203  address public Tom = 0x6f5c8CFc8FC4fF2C003d5d4Dfe6673F23E17ee4c */\n    tag_5:\n      sload(0x06)\n      tag_34\n      swap1\n      sub(shl(0xa0, 0x01), 0x01)\n      and\n      dup2\n      jump\n    tag_34:\n      mload(0x40)\n      sub(shl(0xa0, 0x01), 0x01)\n        /* \"#utility.yul\":1385:1417   */\n      swap1\n      swap2\n      and\n        /* \"#utility.yul\":1367:1418   */\n      dup2\n      mstore\n        /* \"#utility.yul\":1355:1357   */\n      0x20\n        /* \"#utility.yul\":1340:1358   */\n      add\n        /* \"fixcontract/Token.sol\":140:203  address public Tom = 0x6f5c8CFc8FC4fF2C003d5d4Dfe6673F23E17ee4c */\n      tag_26\n        /* \"#utility.yul\":1221:1424   */\n      jump\n        /* \"fixcontract/ERC20.sol\":6413:6519  function totalSupply() public view virtual override returns (uint256) {... */\n    tag_6:\n        /* \"fixcontract/ERC20.sol\":6500:6512  _totalSupply */\n      sload(0x02)\n        /* \"fixcontract/ERC20.sol\":6413:6519  function totalSupply() public view virtual override returns (uint256) {... */\n    tag_38:\n      mload(0x40)\n        /* \"#utility.yul\":1575:1600   */\n      swap1\n      dup2\n      mstore\n        /* \"#utility.yul\":1563:1565   */\n      0x20\n        /* \"#utility.yul\":1548:1566   */\n      add\n        /* \"fixcontract/ERC20.sol\":6413:6519  function totalSupply() public view virtual override returns (uint256) {... */\n      tag_26\n        /* \"#utility.yul\":1429:1606   */\n      jump\n        /* \"fixcontract/ERC20.sol\":8361:8617  function transferFrom(address from, address to, uint256 amount) public virtual override returns (bool) {... */\n    tag_7:\n      tag_28\n      tag_43\n      calldatasize\n      0x04\n      tag_44\n      jump\t// in\n    tag_43:\n      tag_45\n      jump\t// in\n        /* \"fixcontract/Token.sol\":1551:1799  function giveStartTokensToUsers(uint256 amount) external {... */\n    tag_8:\n      tag_47\n      tag_48\n      calldatasize\n      0x04\n      tag_49\n      jump\t// in\n    tag_48:\n      tag_50\n      jump\t// in\n    tag_47:\n      stop\n        /* \"fixcontract/Token.sol\":2021:2104  function decimals() public pure override returns (uint8) {... */\n    tag_9:\n      mload(0x40)\n        /* \"fixcontract/Token.sol\":2095:2097  12 */\n      0x0c\n        /* \"#utility.yul\":2363:2399   */\n      dup2\n      mstore\n        /* \"#utility.yul\":2351:2353   */\n      0x20\n        /* \"#utility.yul\":2336:2354   */\n      add\n        /* \"fixcontract/Token.sol\":2021:2104  function decimals() public pure override returns (uint8) {... */\n      tag_26\n        /* \"#utility.yul\":2221:2405   */\n      jump\n        /* \"fixcontract/ERC20.sol\":9012:9246  function increaseAllowance(address spender, uint256 addedValue) public virtual returns (bool) {... */\n    tag_10:\n      tag_28\n      tag_56\n      calldatasize\n      0x04\n      tag_30\n      jump\t// in\n    tag_56:\n      tag_57\n      jump\t// in\n        /* \"fixcontract/Token.sol\":1278:1371  function mint(address account, uint256 amount) public {... */\n    tag_11:\n      tag_47\n      tag_60\n      calldatasize\n      0x04\n      tag_30\n      jump\t// in\n    tag_60:\n      tag_61\n      jump\t// in\n        /* \"fixcontract/ERC20.sol\":6577:6702  function balanceOf(address account) public view virtual override returns (uint256) {... */\n    tag_12:\n      tag_38\n      tag_63\n      calldatasize\n      0x04\n      tag_64\n      jump\t// in\n    tag_63:\n      sub(shl(0xa0, 0x01), 0x01)\n        /* \"fixcontract/ERC20.sol\":6677:6695  _balances[account] */\n      and\n        /* \"fixcontract/ERC20.sol\":6651:6658  uint256 */\n      0x00\n        /* \"fixcontract/ERC20.sol\":6677:6695  _balances[account] */\n      swap1\n      dup2\n      mstore\n      0x20\n      dup2\n      swap1\n      mstore\n      0x40\n      swap1\n      keccak256\n      sload\n      swap1\n        /* \"fixcontract/ERC20.sol\":6577:6702  function balanceOf(address account) public view virtual override returns (uint256) {... */\n      jump\n        /* \"fixcontract/Token.sol\":278:342  address public Rick = 0xB0c9eB3164E940df84FDdc65167AA00AA466AE5b */\n    tag_13:\n      sload(0x08)\n      tag_34\n      swap1\n      sub(shl(0xa0, 0x01), 0x01)\n      and\n      dup2\n      jump\n        /* \"fixcontract/ERC20.sol\":5527:5629  function symbol() public view virtual override returns (string memory) {... */\n    tag_14:\n      tag_24\n      tag_71\n      jump\t// in\n        /* \"fixcontract/ERC20.sol\":9733:10160  function decreaseAllowance(address spender, uint256 subtractedValue) public virtual returns (bool) {... */\n    tag_15:\n      tag_28\n      tag_74\n      calldatasize\n      0x04\n      tag_30\n      jump\t// in\n    tag_74:\n      tag_75\n      jump\t// in\n        /* \"fixcontract/Token.sol\":884:1068  function transferTokens(... */\n    tag_16:\n      tag_28\n      tag_78\n      calldatasize\n      0x04\n      tag_44\n      jump\t// in\n    tag_78:\n      tag_79\n      jump\t// in\n        /* \"fixcontract/ERC20.sol\":6898:7087  function transfer(address to, uint256 amount) public virtual override returns (bool) {... */\n    tag_17:\n      tag_28\n      tag_82\n      calldatasize\n      0x04\n      tag_30\n      jump\t// in\n    tag_82:\n      tag_83\n      jump\t// in\n        /* \"fixcontract/Token.sol\":114:134  address public Owner */\n    tag_18:\n      sload(0x05)\n      tag_34\n      swap1\n      sub(shl(0xa0, 0x01), 0x01)\n      and\n      dup2\n      jump\n        /* \"fixcontract/Token.sol\":209:272  address public Ben = 0xe40ec4fBd2Dd72CA3E9A825B570c2182370d0569 */\n    tag_19:\n      sload(0x07)\n      tag_34\n      swap1\n      sub(shl(0xa0, 0x01), 0x01)\n      and\n      dup2\n      jump\n        /* \"fixcontract/ERC20.sol\":7145:7294  function allowance(address owner, address spender) public view virtual override returns (uint256) {... */\n    tag_20:\n      tag_38\n      tag_92\n      calldatasize\n      0x04\n      tag_93\n      jump\t// in\n    tag_92:\n      tag_94\n      jump\t// in\n        /* \"fixcontract/ERC20.sol\":5316:5414  function name() public view virtual override returns (string memory) {... */\n    tag_25:\n        /* \"fixcontract/ERC20.sol\":5370:5383  string memory */\n      0x60\n        /* \"fixcontract/ERC20.sol\":5402:5407  _name */\n      0x03\n        /* \"fixcontract/ERC20.sol\":5395:5407  return _name */\n      dup1\n      sload\n      tag_97\n      swap1\n      tag_98\n      jump\t// in\n    tag_97:\n      dup1\n      0x1f\n      add\n      0x20\n      dup1\n      swap2\n      div\n      mul\n      0x20\n      add\n      mload(0x40)\n      swap1\n      dup2\n      add\n      0x40\n      mstore\n      dup1\n      swap3\n      swap2\n      swap1\n      dup2\n      dup2\n      mstore\n      0x20\n      add\n      dup3\n      dup1\n      sload\n      tag_99\n      swap1\n      tag_98\n      jump\t// in\n    tag_99:\n      dup1\n      iszero\n      tag_100\n      jumpi\n      dup1\n      0x1f\n      lt\n      tag_101\n      jumpi\n      0x0100\n      dup1\n      dup4\n      sload\n      div\n      mul\n      dup4\n      mstore\n      swap2\n      0x20\n      add\n      swap2\n      jump(tag_100)\n    tag_101:\n      dup3\n      add\n      swap2\n      swap1\n      0x00\n      mstore\n      keccak256(0x00, 0x20)\n      swap1\n    tag_102:\n      dup2\n      sload\n      dup2\n      mstore\n      swap1\n      0x01\n      add\n      swap1\n      0x20\n      add\n      dup1\n      dup4\n      gt\n      tag_102\n      jumpi\n      dup3\n      swap1\n      sub\n      0x1f\n      and\n      dup3\n      add\n      swap2\n    tag_100:\n      pop\n      pop\n      pop\n      pop\n      pop\n      swap1\n      pop\n        /* \"fixcontract/ERC20.sol\":5316:5414  function name() public view virtual override returns (string memory) {... */\n      swap1\n      jump\t// out\n        /* \"fixcontract/ERC20.sol\":7602:7799  function approve(address spender, uint256 amount) public virtual override returns (bool) {... */\n    tag_31:\n        /* \"fixcontract/ERC20.sol\":7685:7689  bool */\n      0x00\n        /* \"fixcontract/ERC20.sol\":3259:3269  msg.sender */\n      caller\n        /* \"fixcontract/ERC20.sol\":7739:7771  _approve(owner, spender, amount) */\n      tag_106\n        /* \"fixcontract/ERC20.sol\":3259:3269  msg.sender */\n      dup2\n        /* \"fixcontract/ERC20.sol\":7755:7762  spender */\n      dup6\n        /* \"fixcontract/ERC20.sol\":7764:7770  amount */\n      dup6\n        /* \"fixcontract/ERC20.sol\":7739:7747  _approve */\n      tag_107\n        /* \"fixcontract/ERC20.sol\":7739:7771  _approve(owner, spender, amount) */\n      jump\t// in\n    tag_106:\n        /* \"fixcontract/ERC20.sol\":7788:7792  true */\n      0x01\n        /* \"fixcontract/ERC20.sol\":7781:7792  return true */\n      swap2\n      pop\n      pop\n        /* \"fixcontract/ERC20.sol\":7602:7799  function approve(address spender, uint256 amount) public virtual override returns (bool) {... */\n    tag_103:\n      swap3\n      swap2\n      pop\n      pop\n      jump\t// out\n        /* \"fixcontract/ERC20.sol\":8361:8617  function transferFrom(address from, address to, uint256 amount) public virtual override returns (bool) {... */\n    tag_45:\n        /* \"fixcontract/ERC20.sol\":8458:8462  bool */\n      0x00\n        /* \"fixcontract/ERC20.sol\":3259:3269  msg.sender */\n      caller\n        /* \"fixcontract/ERC20.sol\":8514:8552  _spendAllowance(from, spender, amount) */\n      tag_111\n        /* \"fixcontract/ERC20.sol\":8530:8534  from */\n      dup6\n        /* \"fixcontract/ERC20.sol\":3259:3269  msg.sender */\n      dup3\n        /* \"fixcontract/ERC20.sol\":8545:8551  amount */\n      dup6\n        /* \"fixcontract/ERC20.sol\":8514:8529  _spendAllowance */\n      tag_112\n        /* \"fixcontract/ERC20.sol\":8514:8552  _spendAllowance(from, spender, amount) */\n      jump\t// in\n    tag_111:\n        /* \"fixcontract/ERC20.sol\":8562:8589  _transfer(from, to, amount) */\n      tag_113\n        /* \"fixcontract/ERC20.sol\":8572:8576  from */\n      dup6\n        /* \"fixcontract/ERC20.sol\":8578:8580  to */\n      dup6\n        /* \"fixcontract/ERC20.sol\":8582:8588  amount */\n      dup6\n        /* \"fixcontract/ERC20.sol\":8562:8571  _transfer */\n      tag_114\n        /* \"fixcontract/ERC20.sol\":8562:8589  _transfer(from, to, amount) */\n      jump\t// in\n    tag_113:\n      pop\n        /* \"fixcontract/ERC20.sol\":8606:8610  true */\n      0x01\n      swap5\n        /* \"fixcontract/ERC20.sol\":8361:8617  function transferFrom(address from, address to, uint256 amount) public virtual override returns (bool) {... */\n      swap4\n      pop\n      pop\n      pop\n      pop\n      jump\t// out\n        /* \"fixcontract/Token.sol\":1551:1799  function giveStartTokensToUsers(uint256 amount) external {... */\n    tag_50:\n        /* \"fixcontract/Token.sol\":1633:1638  Owner */\n      sload(0x05)\n        /* \"fixcontract/Token.sol\":1640:1643  Tom */\n      sload(0x06)\n        /* \"fixcontract/Token.sol\":1618:1669  transferTokens(Owner, Tom, amount * 10**decimals()) */\n      tag_116\n      swap2\n      sub(shl(0xa0, 0x01), 0x01)\n        /* \"fixcontract/Token.sol\":1633:1638  Owner */\n      swap1\n      dup2\n      and\n      swap2\n        /* \"fixcontract/Token.sol\":1640:1643  Tom */\n      and\n        /* \"fixcontract/Token.sol\":2095:2097  12 */\n      0x0c\n        /* \"fixcontract/Token.sol\":1658:1668  decimals() */\n    tag_117:\n        /* \"fixcontract/Token.sol\":1654:1668  10**decimals() */\n      tag_118\n      swap1\n        /* \"fixcontract/Token.sol\":1654:1656  10 */\n      0x0a\n        /* \"fixcontract/Token.sol\":1654:1668  10**decimals() */\n      tag_119\n      jump\t// in\n    tag_118:\n        /* \"fixcontract/Token.sol\":1645:1668  amount * 10**decimals() */\n      tag_78\n      swap1\n        /* \"fixcontract/Token.sol\":1645:1651  amount */\n      dup6\n        /* \"fixcontract/Token.sol\":1645:1668  amount * 10**decimals() */\n      tag_121\n      jump\t// in\n        /* \"fixcontract/Token.sol\":1618:1669  transferTokens(Owner, Tom, amount * 10**decimals()) */\n    tag_116:\n      pop\n        /* \"fixcontract/Token.sol\":1694:1699  Owner */\n      sload(0x05)\n        /* \"fixcontract/Token.sol\":1701:1704  Ben */\n      sload(0x07)\n        /* \"fixcontract/Token.sol\":1679:1730  transferTokens(Owner, Ben, amount * 10**decimals()) */\n      tag_122\n      swap2\n      sub(shl(0xa0, 0x01), 0x01)\n        /* \"fixcontract/Token.sol\":1694:1699  Owner */\n      swap1\n      dup2\n      and\n      swap2\n        /* \"fixcontract/Token.sol\":1701:1704  Ben */\n      and\n        /* \"fixcontract/Token.sol\":2095:2097  12 */\n      0x0c\n        /* \"fixcontract/Token.sol\":1719:1729  decimals() */\n      tag_117\n        /* \"fixcontract/Token.sol\":2021:2104  function decimals() public pure override returns (uint8) {... */\n      jump\n        /* \"fixcontract/Token.sol\":1679:1730  transferTokens(Owner, Ben, amount * 10**decimals()) */\n    tag_122:\n      pop\n        /* \"fixcontract/Token.sol\":1755:1760  Owner */\n      sload(0x05)\n        /* \"fixcontract/Token.sol\":1762:1766  Rick */\n      sload(0x08)\n        /* \"fixcontract/Token.sol\":1740:1792  transferTokens(Owner, Rick, amount * 10**decimals()) */\n      tag_126\n      swap2\n      sub(shl(0xa0, 0x01), 0x01)\n        /* \"fixcontract/Token.sol\":1755:1760  Owner */\n      swap1\n      dup2\n      and\n      swap2\n        /* \"fixcontract/Token.sol\":1762:1766  Rick */\n      and\n        /* \"fixcontract/Token.sol\":2095:2097  12 */\n      0x0c\n        /* \"fixcontract/Token.sol\":1781:1791  decimals() */\n      tag_117\n        /* \"fixcontract/Token.sol\":2021:2104  function decimals() public pure override returns (uint8) {... */\n      jump\n        /* \"fixcontract/Token.sol\":1740:1792  transferTokens(Owner, Rick, amount * 10**decimals()) */\n    tag_126:\n      pop\n        /* \"fixcontract/Token.sol\":1551:1799  function giveStartTokensToUsers(uint256 amount) external {... */\n      pop\n      jump\t// out\n        /* \"fixcontract/ERC20.sol\":9012:9246  function increaseAllowance(address spender, uint256 addedValue) public virtual returns (bool) {... */\n    tag_57:\n        /* \"fixcontract/ERC20.sol\":9100:9104  bool */\n      0x00\n        /* \"fixcontract/ERC20.sol\":3259:3269  msg.sender */\n      caller\n        /* \"fixcontract/ERC20.sol\":9154:9218  _approve(owner, spender, allowance(owner, spender) + addedValue) */\n      tag_106\n        /* \"fixcontract/ERC20.sol\":3259:3269  msg.sender */\n      dup2\n        /* \"fixcontract/ERC20.sol\":9170:9177  spender */\n      dup6\n        /* \"fixcontract/ERC20.sol\":9207:9217  addedValue */\n      dup6\n        /* \"fixcontract/ERC20.sol\":9179:9204  allowance(owner, spender) */\n      tag_134\n        /* \"fixcontract/ERC20.sol\":3259:3269  msg.sender */\n      dup4\n        /* \"fixcontract/ERC20.sol\":9170:9177  spender */\n      dup4\n        /* \"fixcontract/ERC20.sol\":9179:9188  allowance */\n      tag_94\n        /* \"fixcontract/ERC20.sol\":9179:9204  allowance(owner, spender) */\n      jump\t// in\n    tag_134:\n        /* \"fixcontract/ERC20.sol\":9179:9217  allowance(owner, spender) + addedValue */\n      tag_135\n      swap2\n      swap1\n      tag_136\n      jump\t// in\n    tag_135:\n        /* \"fixcontract/ERC20.sol\":9154:9162  _approve */\n      tag_107\n        /* \"fixcontract/ERC20.sol\":9154:9218  _approve(owner, spender, allowance(owner, spender) + addedValue) */\n      jump\t// in\n        /* \"fixcontract/Token.sol\":1278:1371  function mint(address account, uint256 amount) public {... */\n    tag_61:\n        /* \"fixcontract/Token.sol\":1342:1364  _mint(account, amount) */\n      tag_126\n        /* \"fixcontract/Token.sol\":1348:1355  account */\n      dup3\n        /* \"fixcontract/Token.sol\":1357:1363  amount */\n      dup3\n        /* \"fixcontract/Token.sol\":1342:1347  _mint */\n      tag_139\n        /* \"fixcontract/Token.sol\":1342:1364  _mint(account, amount) */\n      jump\t// in\n        /* \"fixcontract/ERC20.sol\":5527:5629  function symbol() public view virtual override returns (string memory) {... */\n    tag_71:\n        /* \"fixcontract/ERC20.sol\":5583:5596  string memory */\n      0x60\n        /* \"fixcontract/ERC20.sol\":5615:5622  _symbol */\n      0x04\n        /* \"fixcontract/ERC20.sol\":5608:5622  return _symbol */\n      dup1\n      sload\n      tag_97\n      swap1\n      tag_98\n      jump\t// in\n        /* \"fixcontract/ERC20.sol\":9733:10160  function decreaseAllowance(address spender, uint256 subtractedValue) public virtual returns (bool) {... */\n    tag_75:\n        /* \"fixcontract/ERC20.sol\":9826:9830  bool */\n      0x00\n        /* \"fixcontract/ERC20.sol\":3259:3269  msg.sender */\n      caller\n        /* \"fixcontract/ERC20.sol\":9826:9830  bool */\n      dup2\n        /* \"fixcontract/ERC20.sol\":9907:9932  allowance(owner, spender) */\n      tag_149\n        /* \"fixcontract/ERC20.sol\":3259:3269  msg.sender */\n      dup3\n        /* \"fixcontract/ERC20.sol\":9924:9931  spender */\n      dup7\n        /* \"fixcontract/ERC20.sol\":9907:9916  allowance */\n      tag_94\n        /* \"fixcontract/ERC20.sol\":9907:9932  allowance(owner, spender) */\n      jump\t// in\n    tag_149:\n        /* \"fixcontract/ERC20.sol\":9880:9932  uint256 currentAllowance = allowance(owner, spender) */\n      swap1\n      pop\n        /* \"fixcontract/ERC20.sol\":9970:9985  subtractedValue */\n      dup4\n        /* \"fixcontract/ERC20.sol\":9950:9966  currentAllowance */\n      dup2\n        /* \"fixcontract/ERC20.sol\":9950:9985  currentAllowance >= subtractedValue */\n      lt\n      iszero\n        /* \"fixcontract/ERC20.sol\":9942:10027  require(currentAllowance >= subtractedValue, \"ERC20: decreased allowance below zero\") */\n      tag_150\n      jumpi\n      mload(0x40)\n      shl(0xe5, 0x461bcd)\n      dup2\n      mstore\n        /* \"#utility.yul\":5320:5322   */\n      0x20\n        /* \"fixcontract/ERC20.sol\":9942:10027  require(currentAllowance >= subtractedValue, \"ERC20: decreased allowance below zero\") */\n      0x04\n      dup3\n      add\n        /* \"#utility.yul\":5302:5323   */\n      mstore\n        /* \"#utility.yul\":5359:5361   */\n      0x25\n        /* \"#utility.yul\":5339:5357   */\n      0x24\n      dup3\n      add\n        /* \"#utility.yul\":5332:5362   */\n      mstore\n        /* \"#utility.yul\":5398:5432   */\n      0x45524332303a2064656372656173656420616c6c6f77616e63652062656c6f77\n        /* \"#utility.yul\":5378:5396   */\n      0x44\n      dup3\n      add\n        /* \"#utility.yul\":5371:5433   */\n      mstore\n      shl(0xd8, 0x207a65726f)\n        /* \"#utility.yul\":5449:5467   */\n      0x64\n      dup3\n      add\n        /* \"#utility.yul\":5442:5477   */\n      mstore\n        /* \"#utility.yul\":5494:5513   */\n      0x84\n      add\n        /* \"fixcontract/ERC20.sol\":9942:10027  require(currentAllowance >= subtractedValue, \"ERC20: decreased allowance below zero\") */\n    tag_151:\n      mload(0x40)\n      dup1\n      swap2\n      sub\n      swap1\n      revert\n    tag_150:\n        /* \"fixcontract/ERC20.sol\":10061:10121  _approve(owner, spender, currentAllowance - subtractedValue) */\n      tag_113\n        /* \"fixcontract/ERC20.sol\":10070:10075  owner */\n      dup3\n        /* \"fixcontract/ERC20.sol\":10077:10084  spender */\n      dup7\n        /* \"fixcontract/ERC20.sol\":10105:10120  subtractedValue */\n      dup7\n        /* \"fixcontract/ERC20.sol\":10086:10102  currentAllowance */\n      dup5\n        /* \"fixcontract/ERC20.sol\":10086:10120  currentAllowance - subtractedValue */\n      sub\n        /* \"fixcontract/ERC20.sol\":10061:10069  _approve */\n      tag_107\n        /* \"fixcontract/ERC20.sol\":10061:10121  _approve(owner, spender, currentAllowance - subtractedValue) */\n      jump\t// in\n        /* \"fixcontract/Token.sol\":884:1068  function transferTokens(... */\n    tag_79:\n        /* \"fixcontract/Token.sol\":996:1000  bool */\n      0x00\n        /* \"fixcontract/Token.sol\":1012:1039  _transfer(from, to, amount) */\n      tag_155\n        /* \"fixcontract/Token.sol\":1022:1026  from */\n      dup5\n        /* \"fixcontract/Token.sol\":1028:1030  to */\n      dup5\n        /* \"fixcontract/Token.sol\":1032:1038  amount */\n      dup5\n        /* \"fixcontract/Token.sol\":1012:1021  _transfer */\n      tag_114\n        /* \"fixcontract/Token.sol\":1012:1039  _transfer(from, to, amount) */\n      jump\t// in\n    tag_155:\n      pop\n        /* \"fixcontract/Token.sol\":1057:1061  true */\n      0x01\n        /* \"fixcontract/Token.sol\":884:1068  function transferTokens(... */\n      swap4\n      swap3\n      pop\n      pop\n      pop\n      jump\t// out\n        /* \"fixcontract/ERC20.sol\":6898:7087  function transfer(address to, uint256 amount) public virtual override returns (bool) {... */\n    tag_83:\n        /* \"fixcontract/ERC20.sol\":6977:6981  bool */\n      0x00\n        /* \"fixcontract/ERC20.sol\":3259:3269  msg.sender */\n      caller\n        /* \"fixcontract/ERC20.sol\":7031:7059  _transfer(owner, to, amount) */\n      tag_106\n        /* \"fixcontract/ERC20.sol\":3259:3269  msg.sender */\n      dup2\n        /* \"fixcontract/ERC20.sol\":7048:7050  to */\n      dup6\n        /* \"fixcontract/ERC20.sol\":7052:7058  amount */\n      dup6\n        /* \"fixcontract/ERC20.sol\":7031:7040  _transfer */\n      tag_114\n        /* \"fixcontract/ERC20.sol\":7031:7059  _transfer(owner, to, amount) */\n      jump\t// in\n        /* \"fixcontract/ERC20.sol\":7145:7294  function allowance(address owner, address spender) public view virtual override returns (uint256) {... */\n    tag_94:\n      sub(shl(0xa0, 0x01), 0x01)\n        /* \"fixcontract/ERC20.sol\":7260:7278  _allowances[owner] */\n      swap2\n      dup3\n      and\n        /* \"fixcontract/ERC20.sol\":7234:7241  uint256 */\n      0x00\n        /* \"fixcontract/ERC20.sol\":7260:7278  _allowances[owner] */\n      swap1\n      dup2\n      mstore\n        /* \"fixcontract/ERC20.sol\":7260:7271  _allowances */\n      0x01\n        /* \"fixcontract/ERC20.sol\":7260:7278  _allowances[owner] */\n      0x20\n      swap1\n      dup2\n      mstore\n      0x40\n      dup1\n      dup4\n      keccak256\n        /* \"fixcontract/ERC20.sol\":7260:7287  _allowances[owner][spender] */\n      swap4\n      swap1\n      swap5\n      and\n      dup3\n      mstore\n      swap2\n      swap1\n      swap2\n      mstore\n      keccak256\n      sload\n      swap1\n        /* \"fixcontract/ERC20.sol\":7145:7294  function allowance(address owner, address spender) public view virtual override returns (uint256) {... */\n      jump\t// out\n        /* \"fixcontract/ERC20.sol\":13615:13955  function _approve(address owner, address spender, uint256 amount) internal virtual {... */\n    tag_107:\n      sub(shl(0xa0, 0x01), 0x01)\n        /* \"fixcontract/ERC20.sol\":13716:13735  owner != address(0) */\n      dup4\n      and\n        /* \"fixcontract/ERC20.sol\":13708:13776  require(owner != address(0), \"ERC20: approve from the zero address\") */\n      tag_162\n      jumpi\n      mload(0x40)\n      shl(0xe5, 0x461bcd)\n      dup2\n      mstore\n        /* \"#utility.yul\":5726:5728   */\n      0x20\n        /* \"fixcontract/ERC20.sol\":13708:13776  require(owner != address(0), \"ERC20: approve from the zero address\") */\n      0x04\n      dup3\n      add\n        /* \"#utility.yul\":5708:5729   */\n      mstore\n        /* \"#utility.yul\":5765:5767   */\n      0x24\n        /* \"#utility.yul\":5745:5763   */\n      dup1\n      dup3\n      add\n        /* \"#utility.yul\":5738:5768   */\n      mstore\n        /* \"#utility.yul\":5804:5838   */\n      0x45524332303a20617070726f76652066726f6d20746865207a65726f20616464\n        /* \"#utility.yul\":5784:5802   */\n      0x44\n      dup3\n      add\n        /* \"#utility.yul\":5777:5839   */\n      mstore\n      shl(0xe0, 0x72657373)\n        /* \"#utility.yul\":5855:5873   */\n      0x64\n      dup3\n      add\n        /* \"#utility.yul\":5848:5882   */\n      mstore\n        /* \"#utility.yul\":5899:5918   */\n      0x84\n      add\n        /* \"fixcontract/ERC20.sol\":13708:13776  require(owner != address(0), \"ERC20: approve from the zero address\") */\n      tag_151\n        /* \"#utility.yul\":5524:5924   */\n      jump\n        /* \"fixcontract/ERC20.sol\":13708:13776  require(owner != address(0), \"ERC20: approve from the zero address\") */\n    tag_162:\n      sub(shl(0xa0, 0x01), 0x01)\n        /* \"fixcontract/ERC20.sol\":13794:13815  spender != address(0) */\n      dup3\n      and\n        /* \"fixcontract/ERC20.sol\":13786:13854  require(spender != address(0), \"ERC20: approve to the zero address\") */\n      tag_165\n      jumpi\n      mload(0x40)\n      shl(0xe5, 0x461bcd)\n      dup2\n      mstore\n        /* \"#utility.yul\":6131:6133   */\n      0x20\n        /* \"fixcontract/ERC20.sol\":13786:13854  require(spender != address(0), \"ERC20: approve to the zero address\") */\n      0x04\n      dup3\n      add\n        /* \"#utility.yul\":6113:6134   */\n      mstore\n        /* \"#utility.yul\":6170:6172   */\n      0x22\n        /* \"#utility.yul\":6150:6168   */\n      0x24\n      dup3\n      add\n        /* \"#utility.yul\":6143:6173   */\n      mstore\n        /* \"#utility.yul\":6209:6243   */\n      0x45524332303a20617070726f766520746f20746865207a65726f206164647265\n        /* \"#utility.yul\":6189:6207   */\n      0x44\n      dup3\n      add\n        /* \"#utility.yul\":6182:6244   */\n      mstore\n      shl(0xf0, 0x7373)\n        /* \"#utility.yul\":6260:6278   */\n      0x64\n      dup3\n      add\n        /* \"#utility.yul\":6253:6285   */\n      mstore\n        /* \"#utility.yul\":6302:6321   */\n      0x84\n      add\n        /* \"fixcontract/ERC20.sol\":13786:13854  require(spender != address(0), \"ERC20: approve to the zero address\") */\n      tag_151\n        /* \"#utility.yul\":5929:6327   */\n      jump\n        /* \"fixcontract/ERC20.sol\":13786:13854  require(spender != address(0), \"ERC20: approve to the zero address\") */\n    tag_165:\n      sub(shl(0xa0, 0x01), 0x01)\n        /* \"fixcontract/ERC20.sol\":13865:13883  _allowances[owner] */\n      dup4\n      dup2\n      and\n      0x00\n      dup2\n      dup2\n      mstore\n        /* \"fixcontract/ERC20.sol\":13865:13876  _allowances */\n      0x01\n        /* \"fixcontract/ERC20.sol\":13865:13883  _allowances[owner] */\n      0x20\n      swap1\n      dup2\n      mstore\n      0x40\n      dup1\n      dup4\n      keccak256\n        /* \"fixcontract/ERC20.sol\":13865:13892  _allowances[owner][spender] */\n      swap5\n      dup8\n      and\n      dup1\n      dup5\n      mstore\n      swap5\n      dup3\n      mstore\n      swap2\n      dup3\n      swap1\n      keccak256\n        /* \"fixcontract/ERC20.sol\":13865:13901  _allowances[owner][spender] = amount */\n      dup6\n      swap1\n      sstore\n        /* \"fixcontract/ERC20.sol\":13916:13948  Approval(owner, spender, amount) */\n      swap1\n      mload\n        /* \"#utility.yul\":1575:1600   */\n      dup5\n      dup2\n      mstore\n        /* \"fixcontract/ERC20.sol\":13916:13948  Approval(owner, spender, amount) */\n      0x8c5be1e5ebec7d5bd14f71427d1e84f3dd0314c0f7b2291e5b200ac8c7c3b925\n      swap2\n        /* \"#utility.yul\":1548:1566   */\n      add\n        /* \"fixcontract/ERC20.sol\":13916:13948  Approval(owner, spender, amount) */\n      mload(0x40)\n      dup1\n      swap2\n      sub\n      swap1\n      log3\n        /* \"fixcontract/ERC20.sol\":13615:13955  function _approve(address owner, address spender, uint256 amount) internal virtual {... */\n      pop\n      pop\n      pop\n      jump\t// out\n        /* \"fixcontract/ERC20.sol\":14236:14647  function _spendAllowance(address owner, address spender, uint256 amount) internal virtual {... */\n    tag_112:\n        /* \"fixcontract/ERC20.sol\":14336:14360  uint256 currentAllowance */\n      0x00\n        /* \"fixcontract/ERC20.sol\":14363:14388  allowance(owner, spender) */\n      tag_170\n        /* \"fixcontract/ERC20.sol\":14373:14378  owner */\n      dup5\n        /* \"fixcontract/ERC20.sol\":14380:14387  spender */\n      dup5\n        /* \"fixcontract/ERC20.sol\":14363:14372  allowance */\n      tag_94\n        /* \"fixcontract/ERC20.sol\":14363:14388  allowance(owner, spender) */\n      jump\t// in\n    tag_170:\n        /* \"fixcontract/ERC20.sol\":14336:14388  uint256 currentAllowance = allowance(owner, spender) */\n      swap1\n      pop\n      not(0x00)\n        /* \"fixcontract/ERC20.sol\":14402:14418  currentAllowance */\n      dup2\n        /* \"fixcontract/ERC20.sol\":14402:14439  currentAllowance != type(uint256).max */\n      eq\n        /* \"fixcontract/ERC20.sol\":14398:14641  if (currentAllowance != type(uint256).max) {... */\n      tag_175\n      jumpi\n        /* \"fixcontract/ERC20.sol\":14483:14489  amount */\n      dup2\n        /* \"fixcontract/ERC20.sol\":14463:14479  currentAllowance */\n      dup2\n        /* \"fixcontract/ERC20.sol\":14463:14489  currentAllowance >= amount */\n      lt\n      iszero\n        /* \"fixcontract/ERC20.sol\":14455:14523  require(currentAllowance >= amount, \"ERC20: insufficient allowance\") */\n      tag_172\n      jumpi\n      mload(0x40)\n      shl(0xe5, 0x461bcd)\n      dup2\n      mstore\n        /* \"#utility.yul\":6534:6536   */\n      0x20\n        /* \"fixcontract/ERC20.sol\":14455:14523  require(currentAllowance >= amount, \"ERC20: insufficient allowance\") */\n      0x04\n      dup3\n      add\n        /* \"#utility.yul\":6516:6537   */\n      mstore\n        /* \"#utility.yul\":6573:6575   */\n      0x1d\n        /* \"#utility.yul\":6553:6571   */\n      0x24\n      dup3\n      add\n        /* \"#utility.yul\":6546:6576   */\n      mstore\n        /* \"#utility.yul\":6612:6643   */\n      0x45524332303a20696e73756666696369656e7420616c6c6f77616e6365000000\n        /* \"#utility.yul\":6592:6610   */\n      0x44\n      dup3\n      add\n        /* \"#utility.yul\":6585:6644   */\n      mstore\n        /* \"#utility.yul\":6661:6679   */\n      0x64\n      add\n        /* \"fixcontract/ERC20.sol\":14455:14523  require(currentAllowance >= amount, \"ERC20: insufficient allowance\") */\n      tag_151\n        /* \"#utility.yul\":6332:6685   */\n      jump\n        /* \"fixcontract/ERC20.sol\":14455:14523  require(currentAllowance >= amount, \"ERC20: insufficient allowance\") */\n    tag_172:\n        /* \"fixcontract/ERC20.sol\":14565:14616  _approve(owner, spender, currentAllowance - amount) */\n      tag_175\n        /* \"fixcontract/ERC20.sol\":14574:14579  owner */\n      dup5\n        /* \"fixcontract/ERC20.sol\":14581:14588  spender */\n      dup5\n        /* \"fixcontract/ERC20.sol\":14609:14615  amount */\n      dup5\n        /* \"fixcontract/ERC20.sol\":14590:14606  currentAllowance */\n      dup5\n        /* \"fixcontract/ERC20.sol\":14590:14615  currentAllowance - amount */\n      sub\n        /* \"fixcontract/ERC20.sol\":14565:14573  _approve */\n      tag_107\n        /* \"fixcontract/ERC20.sol\":14565:14616  _approve(owner, spender, currentAllowance - amount) */\n      jump\t// in\n    tag_175:\n        /* \"fixcontract/ERC20.sol\":14326:14647  {... */\n      pop\n        /* \"fixcontract/ERC20.sol\":14236:14647  function _spendAllowance(address owner, address spender, uint256 amount) internal virtual {... */\n      pop\n      pop\n      pop\n      jump\t// out\n        /* \"fixcontract/ERC20.sol\":10614:11402  function _transfer(address from, address to, uint256 amount) internal virtual {... */\n    tag_114:\n      sub(shl(0xa0, 0x01), 0x01)\n        /* \"fixcontract/ERC20.sol\":10710:10728  from != address(0) */\n      dup4\n      and\n        /* \"fixcontract/ERC20.sol\":10702:10770  require(from != address(0), \"ERC20: transfer from the zero address\") */\n      tag_177\n      jumpi\n      mload(0x40)\n      shl(0xe5, 0x461bcd)\n      dup2\n      mstore\n        /* \"#utility.yul\":6892:6894   */\n      0x20\n        /* \"fixcontract/ERC20.sol\":10702:10770  require(from != address(0), \"ERC20: transfer from the zero address\") */\n      0x04\n      dup3\n      add\n        /* \"#utility.yul\":6874:6895   */\n      mstore\n        /* \"#utility.yul\":6931:6933   */\n      0x25\n        /* \"#utility.yul\":6911:6929   */\n      0x24\n      dup3\n      add\n        /* \"#utility.yul\":6904:6934   */\n      mstore\n        /* \"#utility.yul\":6970:7004   */\n      0x45524332303a207472616e736665722066726f6d20746865207a65726f206164\n        /* \"#utility.yul\":6950:6968   */\n      0x44\n      dup3\n      add\n        /* \"#utility.yul\":6943:7005   */\n      mstore\n      shl(0xd8, 0x6472657373)\n        /* \"#utility.yul\":7021:7039   */\n      0x64\n      dup3\n      add\n        /* \"#utility.yul\":7014:7049   */\n      mstore\n        /* \"#utility.yul\":7066:7085   */\n      0x84\n      add\n        /* \"fixcontract/ERC20.sol\":10702:10770  require(from != address(0), \"ERC20: transfer from the zero address\") */\n      tag_151\n        /* \"#utility.yul\":6690:7091   */\n      jump\n        /* \"fixcontract/ERC20.sol\":10702:10770  require(from != address(0), \"ERC20: transfer from the zero address\") */\n    tag_177:\n      sub(shl(0xa0, 0x01), 0x01)\n        /* \"fixcontract/ERC20.sol\":10788:10804  to != address(0) */\n      dup3\n      and\n        /* \"fixcontract/ERC20.sol\":10780:10844  require(to != address(0), \"ERC20: transfer to the zero address\") */\n      tag_180\n      jumpi\n      mload(0x40)\n      shl(0xe5, 0x461bcd)\n      dup2\n      mstore\n        /* \"#utility.yul\":7298:7300   */\n      0x20\n        /* \"fixcontract/ERC20.sol\":10780:10844  require(to != address(0), \"ERC20: transfer to the zero address\") */\n      0x04\n      dup3\n      add\n        /* \"#utility.yul\":7280:7301   */\n      mstore\n        /* \"#utility.yul\":7337:7339   */\n      0x23\n        /* \"#utility.yul\":7317:7335   */\n      0x24\n      dup3\n      add\n        /* \"#utility.yul\":7310:7340   */\n      mstore\n        /* \"#utility.yul\":7376:7410   */\n      0x45524332303a207472616e7366657220746f20746865207a65726f2061646472\n        /* \"#utility.yul\":7356:7374   */\n      0x44\n      dup3\n      add\n        /* \"#utility.yul\":7349:7411   */\n      mstore\n      shl(0xe8, 0x657373)\n        /* \"#utility.yul\":7427:7445   */\n      0x64\n      dup3\n      add\n        /* \"#utility.yul\":7420:7453   */\n      mstore\n        /* \"#utility.yul\":7470:7489   */\n      0x84\n      add\n        /* \"fixcontract/ERC20.sol\":10780:10844  require(to != address(0), \"ERC20: transfer to the zero address\") */\n      tag_151\n        /* \"#utility.yul\":7096:7495   */\n      jump\n        /* \"fixcontract/ERC20.sol\":10780:10844  require(to != address(0), \"ERC20: transfer to the zero address\") */\n    tag_180:\n      sub(shl(0xa0, 0x01), 0x01)\n        /* \"fixcontract/ERC20.sol\":10926:10941  _balances[from] */\n      dup4\n      and\n        /* \"fixcontract/ERC20.sol\":10904:10923  uint256 fromBalance */\n      0x00\n        /* \"fixcontract/ERC20.sol\":10926:10941  _balances[from] */\n      swap1\n      dup2\n      mstore\n      0x20\n      dup2\n      swap1\n      mstore\n      0x40\n      swap1\n      keccak256\n      sload\n        /* \"fixcontract/ERC20.sol\":10959:10980  fromBalance >= amount */\n      dup2\n      dup2\n      lt\n      iszero\n        /* \"fixcontract/ERC20.sol\":10951:11023  require(fromBalance >= amount, \"ERC20: transfer amount exceeds balance\") */\n      tag_185\n      jumpi\n      mload(0x40)\n      shl(0xe5, 0x461bcd)\n      dup2\n      mstore\n        /* \"#utility.yul\":7702:7704   */\n      0x20\n        /* \"fixcontract/ERC20.sol\":10951:11023  require(fromBalance >= amount, \"ERC20: transfer amount exceeds balance\") */\n      0x04\n      dup3\n      add\n        /* \"#utility.yul\":7684:7705   */\n      mstore\n        /* \"#utility.yul\":7741:7743   */\n      0x26\n        /* \"#utility.yul\":7721:7739   */\n      0x24\n      dup3\n      add\n        /* \"#utility.yul\":7714:7744   */\n      mstore\n        /* \"#utility.yul\":7780:7814   */\n      0x45524332303a207472616e7366657220616d6f756e7420657863656564732062\n        /* \"#utility.yul\":7760:7778   */\n      0x44\n      dup3\n      add\n        /* \"#utility.yul\":7753:7815   */\n      mstore\n      shl(0xd0, 0x616c616e6365)\n        /* \"#utility.yul\":7831:7849   */\n      0x64\n      dup3\n      add\n        /* \"#utility.yul\":7824:7860   */\n      mstore\n        /* \"#utility.yul\":7877:7896   */\n      0x84\n      add\n        /* \"fixcontract/ERC20.sol\":10951:11023  require(fromBalance >= amount, \"ERC20: transfer amount exceeds balance\") */\n      tag_151\n        /* \"#utility.yul\":7500:7902   */\n      jump\n        /* \"fixcontract/ERC20.sol\":10951:11023  require(fromBalance >= amount, \"ERC20: transfer amount exceeds balance\") */\n    tag_185:\n      sub(shl(0xa0, 0x01), 0x01)\n        /* \"fixcontract/ERC20.sol\":11057:11072  _balances[from] */\n      dup5\n      dup2\n      and\n        /* \"fixcontract/ERC20.sol\":11057:11066  _balances */\n      0x00\n        /* \"fixcontract/ERC20.sol\":11057:11072  _balances[from] */\n      dup2\n      dup2\n      mstore\n      0x20\n      dup2\n      dup2\n      mstore\n      0x40\n      dup1\n      dup4\n      keccak256\n        /* \"fixcontract/ERC20.sol\":11075:11095  fromBalance - amount */\n      dup8\n      dup8\n      sub\n        /* \"fixcontract/ERC20.sol\":11057:11095  _balances[from] = fromBalance - amount */\n      swap1\n      sstore\n        /* \"fixcontract/ERC20.sol\":11272:11285  _balances[to] */\n      swap4\n      dup8\n      and\n      dup1\n      dup4\n      mstore\n      swap2\n      dup5\n      swap1\n      keccak256\n        /* \"fixcontract/ERC20.sol\":11272:11295  _balances[to] += amount */\n      dup1\n      sload\n      dup8\n      add\n      swap1\n      sstore\n        /* \"fixcontract/ERC20.sol\":11321:11347  Transfer(from, to, amount) */\n      swap3\n      mload\n        /* \"#utility.yul\":1575:1600   */\n      dup6\n      dup2\n      mstore\n        /* \"fixcontract/ERC20.sol\":11272:11285  _balances[to] */\n      swap1\n      swap3\n        /* \"fixcontract/ERC20.sol\":11321:11347  Transfer(from, to, amount) */\n      0xddf252ad1be2c89b69c2b068fc378daa952ba7f163c4a11628f55a4df523b3ef\n      swap2\n        /* \"#utility.yul\":1548:1566   */\n      add\n        /* \"fixcontract/ERC20.sol\":11321:11347  Transfer(from, to, amount) */\n      mload(0x40)\n      dup1\n      swap2\n      sub\n      swap1\n      log3\n        /* \"fixcontract/ERC20.sol\":11358:11395  _afterTokenTransfer(from, to, amount) */\n      tag_175\n        /* \"fixcontract/ERC20.sol\":15231:15322  function _beforeTokenTransfer(address from, address to, uint256 amount) internal virtual {} */\n      jump\n        /* \"fixcontract/ERC20.sol\":11678:12213  function _mint(address account, uint256 amount) internal virtual {... */\n    tag_139:\n      sub(shl(0xa0, 0x01), 0x01)\n        /* \"fixcontract/ERC20.sol\":11761:11782  account != address(0) */\n      dup3\n      and\n        /* \"fixcontract/ERC20.sol\":11753:11818  require(account != address(0), \"ERC20: mint to the zero address\") */\n      tag_192\n      jumpi\n      mload(0x40)\n      shl(0xe5, 0x461bcd)\n      dup2\n      mstore\n        /* \"#utility.yul\":8109:8111   */\n      0x20\n        /* \"fixcontract/ERC20.sol\":11753:11818  require(account != address(0), \"ERC20: mint to the zero address\") */\n      0x04\n      dup3\n      add\n        /* \"#utility.yul\":8091:8112   */\n      mstore\n        /* \"#utility.yul\":8148:8150   */\n      0x1f\n        /* \"#utility.yul\":8128:8146   */\n      0x24\n      dup3\n      add\n        /* \"#utility.yul\":8121:8151   */\n      mstore\n        /* \"#utility.yul\":8187:8220   */\n      0x45524332303a206d696e7420746f20746865207a65726f206164647265737300\n        /* \"#utility.yul\":8167:8185   */\n      0x44\n      dup3\n      add\n        /* \"#utility.yul\":8160:8221   */\n      mstore\n        /* \"#utility.yul\":8238:8256   */\n      0x64\n      add\n        /* \"fixcontract/ERC20.sol\":11753:11818  require(account != address(0), \"ERC20: mint to the zero address\") */\n      tag_151\n        /* \"#utility.yul\":7907:8262   */\n      jump\n        /* \"fixcontract/ERC20.sol\":11753:11818  require(account != address(0), \"ERC20: mint to the zero address\") */\n    tag_192:\n        /* \"fixcontract/ERC20.sol\":11905:11911  amount */\n      dup1\n        /* \"fixcontract/ERC20.sol\":11889:11901  _totalSupply */\n      0x02\n      0x00\n        /* \"fixcontract/ERC20.sol\":11889:11911  _totalSupply += amount */\n      dup3\n      dup3\n      sload\n      tag_196\n      swap2\n      swap1\n      tag_136\n      jump\t// in\n    tag_196:\n      swap1\n      swap2\n      sstore\n      pop\n      pop\n      sub(shl(0xa0, 0x01), 0x01)\n        /* \"fixcontract/ERC20.sol\":12057:12075  _balances[account] */\n      dup3\n      and\n        /* \"fixcontract/ERC20.sol\":12057:12066  _balances */\n      0x00\n        /* \"fixcontract/ERC20.sol\":12057:12075  _balances[account] */\n      dup2\n      dup2\n      mstore\n      0x20\n      dup2\n      dup2\n      mstore\n      0x40\n      dup1\n      dup4\n      keccak256\n        /* \"fixcontract/ERC20.sol\":12057:12085  _balances[account] += amount */\n      dup1\n      sload\n      dup7\n      add\n      swap1\n      sstore\n        /* \"fixcontract/ERC20.sol\":12110:12147  Transfer(address(0), account, amount) */\n      mload\n        /* \"#utility.yul\":1575:1600   */\n      dup5\n      dup2\n      mstore\n        /* \"fixcontract/ERC20.sol\":12110:12147  Transfer(address(0), account, amount) */\n      0xddf252ad1be2c89b69c2b068fc378daa952ba7f163c4a11628f55a4df523b3ef\n      swap2\n        /* \"#utility.yul\":1548:1566   */\n      add\n        /* \"fixcontract/ERC20.sol\":12110:12147  Transfer(address(0), account, amount) */\n      mload(0x40)\n      dup1\n      swap2\n      sub\n      swap1\n      log3\n        /* \"fixcontract/Token.sol\":1740:1792  transferTokens(Owner, Rick, amount * 10**decimals()) */\n      pop\n        /* \"fixcontract/Token.sol\":1551:1799  function giveStartTokensToUsers(uint256 amount) external {... */\n      pop\n      jump\t// out\n        /* \"#utility.yul\":14:541   */\n    tag_27:\n        /* \"#utility.yul\":163:165   */\n      0x20\n        /* \"#utility.yul\":152:161   */\n      dup2\n        /* \"#utility.yul\":145:166   */\n      mstore\n        /* \"#utility.yul\":126:130   */\n      0x00\n        /* \"#utility.yul\":195:201   */\n      dup3\n        /* \"#utility.yul\":189:202   */\n      mload\n        /* \"#utility.yul\":238:244   */\n      dup1\n        /* \"#utility.yul\":233:235   */\n      0x20\n        /* \"#utility.yul\":222:231   */\n      dup5\n        /* \"#utility.yul\":218:236   */\n      add\n        /* \"#utility.yul\":211:245   */\n      mstore\n        /* \"#utility.yul\":263:264   */\n      0x00\n        /* \"#utility.yul\":273:413   */\n    tag_207:\n        /* \"#utility.yul\":287:293   */\n      dup2\n        /* \"#utility.yul\":284:285   */\n      dup2\n        /* \"#utility.yul\":281:294   */\n      lt\n        /* \"#utility.yul\":273:413   */\n      iszero\n      tag_209\n      jumpi\n        /* \"#utility.yul\":398:400   */\n      0x20\n        /* \"#utility.yul\":382:396   */\n      dup2\n      dup7\n      add\n        /* \"#utility.yul\":378:401   */\n      dup2\n      add\n        /* \"#utility.yul\":372:402   */\n      mload\n        /* \"#utility.yul\":367:369   */\n      0x40\n        /* \"#utility.yul\":348:365   */\n      dup7\n      dup5\n      add\n        /* \"#utility.yul\":344:370   */\n      add\n        /* \"#utility.yul\":337:403   */\n      mstore\n        /* \"#utility.yul\":302:312   */\n      add\n        /* \"#utility.yul\":273:413   */\n      jump(tag_207)\n    tag_209:\n        /* \"#utility.yul\":277:280   */\n      pop\n        /* \"#utility.yul\":462:463   */\n      0x00\n        /* \"#utility.yul\":457:459   */\n      0x40\n        /* \"#utility.yul\":448:454   */\n      dup3\n        /* \"#utility.yul\":437:446   */\n      dup6\n        /* \"#utility.yul\":433:455   */\n      add\n        /* \"#utility.yul\":429:460   */\n      add\n        /* \"#utility.yul\":422:464   */\n      mstore\n        /* \"#utility.yul\":532:534   */\n      0x40\n        /* \"#utility.yul\":525:527   */\n      0x1f\n        /* \"#utility.yul\":521:528   */\n      not\n        /* \"#utility.yul\":516:518   */\n      0x1f\n        /* \"#utility.yul\":508:514   */\n      dup4\n        /* \"#utility.yul\":504:519   */\n      add\n        /* \"#utility.yul\":500:529   */\n      and\n        /* \"#utility.yul\":489:498   */\n      dup5\n        /* \"#utility.yul\":485:530   */\n      add\n        /* \"#utility.yul\":481:535   */\n      add\n        /* \"#utility.yul\":473:535   */\n      swap2\n      pop\n      pop\n        /* \"#utility.yul\":14:541   */\n      swap3\n      swap2\n      pop\n      pop\n      jump\t// out\n        /* \"#utility.yul\":546:719   */\n    tag_201:\n        /* \"#utility.yul\":614:634   */\n      dup1\n      calldataload\n      sub(shl(0xa0, 0x01), 0x01)\n        /* \"#utility.yul\":663:694   */\n      dup2\n      and\n        /* \"#utility.yul\":653:695   */\n      dup2\n      eq\n        /* \"#utility.yul\":643:713   */\n      tag_211\n      jumpi\n        /* \"#utility.yul\":709:710   */\n      0x00\n        /* \"#utility.yul\":706:707   */\n      dup1\n        /* \"#utility.yul\":699:711   */\n      revert\n        /* \"#utility.yul\":643:713   */\n    tag_211:\n        /* \"#utility.yul\":546:719   */\n      swap2\n      swap1\n      pop\n      jump\t// out\n        /* \"#utility.yul\":724:1024   */\n    tag_30:\n        /* \"#utility.yul\":792:798   */\n      0x00\n        /* \"#utility.yul\":800:806   */\n      dup1\n        /* \"#utility.yul\":853:855   */\n      0x40\n        /* \"#utility.yul\":841:850   */\n      dup4\n        /* \"#utility.yul\":832:839   */\n      dup6\n        /* \"#utility.yul\":828:851   */\n      sub\n        /* \"#utility.yul\":824:856   */\n      slt\n        /* \"#utility.yul\":821:873   */\n      iszero\n      tag_213\n      jumpi\n        /* \"#utility.yul\":869:870   */\n      0x00\n        /* \"#utility.yul\":866:867   */\n      dup1\n        /* \"#utility.yul\":859:871   */\n      revert\n        /* \"#utility.yul\":821:873   */\n    tag_213:\n        /* \"#utility.yul\":892:921   */\n      tag_214\n        /* \"#utility.yul\":911:920   */\n      dup4\n        /* \"#utility.yul\":892:921   */\n      tag_201\n      jump\t// in\n    tag_214:\n        /* \"#utility.yul\":882:921   */\n      swap5\n        /* \"#utility.yul\":990:992   */\n      0x20\n        /* \"#utility.yul\":975:993   */\n      swap4\n      swap1\n      swap4\n      add\n        /* \"#utility.yul\":962:994   */\n      calldataload\n      swap4\n      pop\n      pop\n      pop\n        /* \"#utility.yul\":724:1024   */\n      jump\t// out\n        /* \"#utility.yul\":1611:1985   */\n    tag_44:\n        /* \"#utility.yul\":1688:1694   */\n      0x00\n        /* \"#utility.yul\":1696:1702   */\n      dup1\n        /* \"#utility.yul\":1704:1710   */\n      0x00\n        /* \"#utility.yul\":1757:1759   */\n      0x60\n        /* \"#utility.yul\":1745:1754   */\n      dup5\n        /* \"#utility.yul\":1736:1743   */\n      dup7\n        /* \"#utility.yul\":1732:1755   */\n      sub\n        /* \"#utility.yul\":1728:1760   */\n      slt\n        /* \"#utility.yul\":1725:1777   */\n      iszero\n      tag_219\n      jumpi\n        /* \"#utility.yul\":1773:1774   */\n      0x00\n        /* \"#utility.yul\":1770:1771   */\n      dup1\n        /* \"#utility.yul\":1763:1775   */\n      revert\n        /* \"#utility.yul\":1725:1777   */\n    tag_219:\n        /* \"#utility.yul\":1796:1825   */\n      tag_220\n        /* \"#utility.yul\":1815:1824   */\n      dup5\n        /* \"#utility.yul\":1796:1825   */\n      tag_201\n      jump\t// in\n    tag_220:\n        /* \"#utility.yul\":1786:1825   */\n      swap3\n      pop\n        /* \"#utility.yul\":1844:1882   */\n      tag_221\n        /* \"#utility.yul\":1878:1880   */\n      0x20\n        /* \"#utility.yul\":1867:1876   */\n      dup6\n        /* \"#utility.yul\":1863:1881   */\n      add\n        /* \"#utility.yul\":1844:1882   */\n      tag_201\n      jump\t// in\n    tag_221:\n        /* \"#utility.yul\":1611:1985   */\n      swap3\n      swap6\n        /* \"#utility.yul\":1834:1882   */\n      swap3\n      swap5\n      pop\n      pop\n      pop\n        /* \"#utility.yul\":1951:1953   */\n      0x40\n        /* \"#utility.yul\":1936:1954   */\n      swap2\n      swap1\n      swap2\n      add\n        /* \"#utility.yul\":1923:1955   */\n      calldataload\n      swap1\n        /* \"#utility.yul\":1611:1985   */\n      jump\t// out\n        /* \"#utility.yul\":1990:2216   */\n    tag_49:\n        /* \"#utility.yul\":2049:2055   */\n      0x00\n        /* \"#utility.yul\":2102:2104   */\n      0x20\n        /* \"#utility.yul\":2090:2099   */\n      dup3\n        /* \"#utility.yul\":2081:2088   */\n      dup5\n        /* \"#utility.yul\":2077:2100   */\n      sub\n        /* \"#utility.yul\":2073:2105   */\n      slt\n        /* \"#utility.yul\":2070:2122   */\n      iszero\n      tag_223\n      jumpi\n        /* \"#utility.yul\":2118:2119   */\n      0x00\n        /* \"#utility.yul\":2115:2116   */\n      dup1\n        /* \"#utility.yul\":2108:2120   */\n      revert\n        /* \"#utility.yul\":2070:2122   */\n    tag_223:\n      pop\n        /* \"#utility.yul\":2163:2186   */\n      calldataload\n      swap2\n        /* \"#utility.yul\":1990:2216   */\n      swap1\n      pop\n      jump\t// out\n        /* \"#utility.yul\":2410:2596   */\n    tag_64:\n        /* \"#utility.yul\":2469:2475   */\n      0x00\n        /* \"#utility.yul\":2522:2524   */\n      0x20\n        /* \"#utility.yul\":2510:2519   */\n      dup3\n        /* \"#utility.yul\":2501:2508   */\n      dup5\n        /* \"#utility.yul\":2497:2520   */\n      sub\n        /* \"#utility.yul\":2493:2525   */\n      slt\n        /* \"#utility.yul\":2490:2542   */\n      iszero\n      tag_226\n      jumpi\n        /* \"#utility.yul\":2538:2539   */\n      0x00\n        /* \"#utility.yul\":2535:2536   */\n      dup1\n        /* \"#utility.yul\":2528:2540   */\n      revert\n        /* \"#utility.yul\":2490:2542   */\n    tag_226:\n        /* \"#utility.yul\":2561:2590   */\n      tag_227\n        /* \"#utility.yul\":2580:2589   */\n      dup3\n        /* \"#utility.yul\":2561:2590   */\n      tag_201\n      jump\t// in\n    tag_227:\n        /* \"#utility.yul\":2551:2590   */\n      swap4\n        /* \"#utility.yul\":2410:2596   */\n      swap3\n      pop\n      pop\n      pop\n      jump\t// out\n        /* \"#utility.yul\":2601:2861   */\n    tag_93:\n        /* \"#utility.yul\":2669:2675   */\n      0x00\n        /* \"#utility.yul\":2677:2683   */\n      dup1\n        /* \"#utility.yul\":2730:2732   */\n      0x40\n        /* \"#utility.yul\":2718:2727   */\n      dup4\n        /* \"#utility.yul\":2709:2716   */\n      dup6\n        /* \"#utility.yul\":2705:2728   */\n      sub\n        /* \"#utility.yul\":2701:2733   */\n      slt\n        /* \"#utility.yul\":2698:2750   */\n      iszero\n      tag_229\n      jumpi\n        /* \"#utility.yul\":2746:2747   */\n      0x00\n        /* \"#utility.yul\":2743:2744   */\n      dup1\n        /* \"#utility.yul\":2736:2748   */\n      revert\n        /* \"#utility.yul\":2698:2750   */\n    tag_229:\n        /* \"#utility.yul\":2769:2798   */\n      tag_230\n        /* \"#utility.yul\":2788:2797   */\n      dup4\n        /* \"#utility.yul\":2769:2798   */\n      tag_201\n      jump\t// in\n    tag_230:\n        /* \"#utility.yul\":2759:2798   */\n      swap2\n      pop\n        /* \"#utility.yul\":2817:2855   */\n      tag_231\n        /* \"#utility.yul\":2851:2853   */\n      0x20\n        /* \"#utility.yul\":2840:2849   */\n      dup5\n        /* \"#utility.yul\":2836:2854   */\n      add\n        /* \"#utility.yul\":2817:2855   */\n      tag_201\n      jump\t// in\n    tag_231:\n        /* \"#utility.yul\":2807:2855   */\n      swap1\n      pop\n        /* \"#utility.yul\":2601:2861   */\n      swap3\n      pop\n      swap3\n      swap1\n      pop\n      jump\t// out\n        /* \"#utility.yul\":2866:3246   */\n    tag_98:\n        /* \"#utility.yul\":2945:2946   */\n      0x01\n        /* \"#utility.yul\":2941:2953   */\n      dup2\n      dup2\n      shr\n      swap1\n        /* \"#utility.yul\":2988:3000   */\n      dup3\n      and\n      dup1\n        /* \"#utility.yul\":3009:3070   */\n      tag_233\n      jumpi\n        /* \"#utility.yul\":3063:3067   */\n      0x7f\n        /* \"#utility.yul\":3055:3061   */\n      dup3\n        /* \"#utility.yul\":3051:3068   */\n      and\n        /* \"#utility.yul\":3041:3068   */\n      swap2\n      pop\n        /* \"#utility.yul\":3009:3070   */\n    tag_233:\n        /* \"#utility.yul\":3116:3118   */\n      0x20\n        /* \"#utility.yul\":3108:3114   */\n      dup3\n        /* \"#utility.yul\":3105:3119   */\n      lt\n        /* \"#utility.yul\":3085:3103   */\n      dup2\n        /* \"#utility.yul\":3082:3120   */\n      sub\n        /* \"#utility.yul\":3079:3240   */\n      tag_234\n      jumpi\n        /* \"#utility.yul\":3162:3172   */\n      0x4e487b71\n        /* \"#utility.yul\":3157:3160   */\n      0xe0\n        /* \"#utility.yul\":3153:3173   */\n      shl\n        /* \"#utility.yul\":3150:3151   */\n      0x00\n        /* \"#utility.yul\":3143:3174   */\n      mstore\n        /* \"#utility.yul\":3197:3201   */\n      0x22\n        /* \"#utility.yul\":3194:3195   */\n      0x04\n        /* \"#utility.yul\":3187:3202   */\n      mstore\n        /* \"#utility.yul\":3225:3229   */\n      0x24\n        /* \"#utility.yul\":3222:3223   */\n      0x00\n        /* \"#utility.yul\":3215:3230   */\n      revert\n        /* \"#utility.yul\":3079:3240   */\n    tag_234:\n      pop\n        /* \"#utility.yul\":2866:3246   */\n      swap2\n      swap1\n      pop\n      jump\t// out\n        /* \"#utility.yul\":3251:3378   */\n    tag_202:\n        /* \"#utility.yul\":3312:3322   */\n      0x4e487b71\n        /* \"#utility.yul\":3307:3310   */\n      0xe0\n        /* \"#utility.yul\":3303:3323   */\n      shl\n        /* \"#utility.yul\":3300:3301   */\n      0x00\n        /* \"#utility.yul\":3293:3324   */\n      mstore\n        /* \"#utility.yul\":3343:3347   */\n      0x11\n        /* \"#utility.yul\":3340:3341   */\n      0x04\n        /* \"#utility.yul\":3333:3348   */\n      mstore\n        /* \"#utility.yul\":3367:3371   */\n      0x24\n        /* \"#utility.yul\":3364:3365   */\n      0x00\n        /* \"#utility.yul\":3357:3372   */\n      revert\n        /* \"#utility.yul\":3383:3758   */\n    tag_203:\n        /* \"#utility.yul\":3471:3472   */\n      0x01\n        /* \"#utility.yul\":3489:3494   */\n      dup2\n        /* \"#utility.yul\":3503:3752   */\n    tag_237:\n        /* \"#utility.yul\":3524:3525   */\n      0x01\n        /* \"#utility.yul\":3514:3522   */\n      dup5\n        /* \"#utility.yul\":3511:3526   */\n      gt\n        /* \"#utility.yul\":3503:3752   */\n      iszero\n      tag_239\n      jumpi\n        /* \"#utility.yul\":3574:3578   */\n      dup1\n        /* \"#utility.yul\":3569:3572   */\n      dup6\n        /* \"#utility.yul\":3565:3579   */\n      div\n        /* \"#utility.yul\":3559:3563   */\n      dup2\n        /* \"#utility.yul\":3556:3580   */\n      gt\n        /* \"#utility.yul\":3553:3603   */\n      iszero\n      tag_241\n      jumpi\n        /* \"#utility.yul\":3583:3601   */\n      tag_241\n      tag_202\n      jump\t// in\n    tag_241:\n        /* \"#utility.yul\":3633:3634   */\n      0x01\n        /* \"#utility.yul\":3623:3631   */\n      dup5\n        /* \"#utility.yul\":3619:3635   */\n      and\n        /* \"#utility.yul\":3616:3665   */\n      iszero\n      tag_242\n      jumpi\n        /* \"#utility.yul\":3647:3663   */\n      swap1\n      dup2\n      mul\n      swap1\n        /* \"#utility.yul\":3616:3665   */\n    tag_242:\n        /* \"#utility.yul\":3730:3731   */\n      0x01\n        /* \"#utility.yul\":3726:3742   */\n      swap4\n      swap1\n      swap4\n      shr\n      swap3\n        /* \"#utility.yul\":3686:3701   */\n      dup1\n      mul\n        /* \"#utility.yul\":3503:3752   */\n      jump(tag_237)\n    tag_239:\n        /* \"#utility.yul\":3383:3758   */\n      swap4\n      pop\n      swap4\n      swap2\n      pop\n      pop\n      jump\t// out\n        /* \"#utility.yul\":3763:4665   */\n    tag_204:\n        /* \"#utility.yul\":3812:3817   */\n      0x00\n        /* \"#utility.yul\":3842:3850   */\n      dup3\n        /* \"#utility.yul\":3832:3912   */\n      tag_244\n      jumpi\n      pop\n        /* \"#utility.yul\":3883:3884   */\n      0x01\n        /* \"#utility.yul\":3897:3902   */\n      jump(tag_103)\n        /* \"#utility.yul\":3832:3912   */\n    tag_244:\n        /* \"#utility.yul\":3931:3935   */\n      dup2\n        /* \"#utility.yul\":3921:3997   */\n      tag_245\n      jumpi\n      pop\n        /* \"#utility.yul\":3968:3969   */\n      0x00\n        /* \"#utility.yul\":3982:3987   */\n      jump(tag_103)\n        /* \"#utility.yul\":3921:3997   */\n    tag_245:\n        /* \"#utility.yul\":4013:4017   */\n      dup2\n        /* \"#utility.yul\":4031:4032   */\n      0x01\n        /* \"#utility.yul\":4026:4085   */\n      dup2\n      eq\n      tag_247\n      jumpi\n        /* \"#utility.yul\":4099:4100   */\n      0x02\n        /* \"#utility.yul\":4094:4268   */\n      dup2\n      eq\n      tag_248\n      jumpi\n        /* \"#utility.yul\":4006:4268   */\n      jump(tag_246)\n        /* \"#utility.yul\":4026:4085   */\n    tag_247:\n        /* \"#utility.yul\":4056:4057   */\n      0x01\n        /* \"#utility.yul\":4047:4057   */\n      swap2\n      pop\n        /* \"#utility.yul\":4070:4075   */\n      pop\n      jump(tag_103)\n        /* \"#utility.yul\":4094:4268   */\n    tag_248:\n        /* \"#utility.yul\":4131:4134   */\n      0xff\n        /* \"#utility.yul\":4121:4129   */\n      dup5\n        /* \"#utility.yul\":4118:4135   */\n      gt\n        /* \"#utility.yul\":4115:4158   */\n      iszero\n      tag_250\n      jumpi\n        /* \"#utility.yul\":4138:4156   */\n      tag_250\n      tag_202\n      jump\t// in\n    tag_250:\n      pop\n      pop\n        /* \"#utility.yul\":4194:4195   */\n      0x01\n        /* \"#utility.yul\":4180:4196   */\n      dup3\n      shl\n        /* \"#utility.yul\":4253:4258   */\n      jump(tag_103)\n        /* \"#utility.yul\":4006:4268   */\n    tag_246:\n      pop\n        /* \"#utility.yul\":4352:4354   */\n      0x20\n        /* \"#utility.yul\":4342:4350   */\n      dup4\n        /* \"#utility.yul\":4339:4355   */\n      lt\n        /* \"#utility.yul\":4333:4336   */\n      0x0133\n        /* \"#utility.yul\":4327:4331   */\n      dup4\n        /* \"#utility.yul\":4324:4337   */\n      lt\n        /* \"#utility.yul\":4320:4356   */\n      and\n        /* \"#utility.yul\":4314:4316   */\n      0x4e\n        /* \"#utility.yul\":4304:4312   */\n      dup5\n        /* \"#utility.yul\":4301:4317   */\n      lt\n        /* \"#utility.yul\":4296:4298   */\n      0x0b\n        /* \"#utility.yul\":4290:4294   */\n      dup5\n        /* \"#utility.yul\":4287:4299   */\n      lt\n        /* \"#utility.yul\":4283:4318   */\n      and\n        /* \"#utility.yul\":4280:4357   */\n      or\n        /* \"#utility.yul\":4277:4480   */\n      iszero\n      tag_251\n      jumpi\n      pop\n        /* \"#utility.yul\":4389:4408   */\n      dup2\n      dup2\n      exp\n        /* \"#utility.yul\":4465:4470   */\n      jump(tag_103)\n        /* \"#utility.yul\":4277:4480   */\n    tag_251:\n        /* \"#utility.yul\":4512:4554   */\n      tag_252\n      not(0x00)\n        /* \"#utility.yul\":4537:4545   */\n      dup5\n        /* \"#utility.yul\":4531:4535   */\n      dup5\n        /* \"#utility.yul\":4512:4554   */\n      tag_203\n      jump\t// in\n    tag_252:\n        /* \"#utility.yul\":4590:4596   */\n      dup1\n        /* \"#utility.yul\":4586:4587   */\n      0x00\n        /* \"#utility.yul\":4582:4588   */\n      not\n        /* \"#utility.yul\":4578:4597   */\n      div\n        /* \"#utility.yul\":4569:4576   */\n      dup3\n        /* \"#utility.yul\":4566:4598   */\n      gt\n        /* \"#utility.yul\":4563:4621   */\n      iszero\n      tag_254\n      jumpi\n        /* \"#utility.yul\":4601:4619   */\n      tag_254\n      tag_202\n      jump\t// in\n    tag_254:\n        /* \"#utility.yul\":4639:4659   */\n      mul\n      swap4\n        /* \"#utility.yul\":3763:4665   */\n      swap3\n      pop\n      pop\n      pop\n      jump\t// out\n        /* \"#utility.yul\":4670:4810   */\n    tag_119:\n        /* \"#utility.yul\":4728:4733   */\n      0x00\n        /* \"#utility.yul\":4757:4804   */\n      tag_227\n        /* \"#utility.yul\":4798:4802   */\n      0xff\n        /* \"#utility.yul\":4788:4796   */\n      dup5\n        /* \"#utility.yul\":4784:4803   */\n      and\n        /* \"#utility.yul\":4778:4782   */\n      dup4\n        /* \"#utility.yul\":4757:4804   */\n      tag_204\n      jump\t// in\n        /* \"#utility.yul\":4815:4983   */\n    tag_121:\n        /* \"#utility.yul\":4888:4897   */\n      dup1\n      dup3\n      mul\n        /* \"#utility.yul\":4919:4928   */\n      dup2\n      iszero\n        /* \"#utility.yul\":4936:4951   */\n      dup3\n      dup3\n      div\n        /* \"#utility.yul\":4930:4952   */\n      dup5\n      eq\n        /* \"#utility.yul\":4916:4953   */\n      or\n        /* \"#utility.yul\":4906:4977   */\n      tag_103\n      jumpi\n        /* \"#utility.yul\":4957:4975   */\n      tag_103\n      tag_202\n      jump\t// in\n        /* \"#utility.yul\":4988:5113   */\n    tag_136:\n        /* \"#utility.yul\":5053:5062   */\n      dup1\n      dup3\n      add\n        /* \"#utility.yul\":5074:5084   */\n      dup1\n      dup3\n      gt\n        /* \"#utility.yul\":5071:5107   */\n      iszero\n      tag_103\n      jumpi\n        /* \"#utility.yul\":5087:5105   */\n      tag_103\n      tag_202\n      jump\t// in\n\n    auxdata: 0xa26469706673582212201dc1a6dfb5997c63b688fec31920cad970f147b65fc18f1f19e76e83794c05de64736f6c634300081a0033\n}\n",
				"bytecode": {
					"linkReferences": {},
					"object": "6080604052600680546001600160a01b0319908116736f5c8cfc8fc4ff2c003d5d4dfe6673f23e17ee4c1790915560078054821673e40ec4fbd2dd72ca3e9a825b570c2182370d05691790556008805490911673b0c9eb3164e940df84fddc65167aa00aa466ae5b17905534801561007657600080fd5b5060405161119838038061119883398101604081905261009591610293565b838360036100a383826103ae565b5060046100b082826103ae565b5050600580546001600160a01b0319166001600160a01b0384169081179091556100f791506100dd600c90565b6100e890600a61056b565b6100f29085610581565b610100565b505050506105ab565b61010a828261010e565b5050565b6001600160a01b0382166101685760405162461bcd60e51b815260206004820152601f60248201527f45524332303a206d696e7420746f20746865207a65726f206164647265737300604482015260640160405180910390fd5b806002600082825461017a9190610598565b90915550506001600160a01b038216600081815260208181526040808320805486019055518481527fddf252ad1be2c89b69c2b068fc378daa952ba7f163c4a11628f55a4df523b3ef910160405180910390a361010a600083835b505050565b634e487b7160e01b600052604160045260246000fd5b600082601f83011261020157600080fd5b81516001600160401b0381111561021a5761021a6101da565b604051601f8201601f19908116603f011681016001600160401b0381118282101715610248576102486101da565b60405281815283820160200185101561026057600080fd5b60005b8281101561027f57602081860181015183830182015201610263565b506000918101602001919091529392505050565b600080600080608085870312156102a957600080fd5b84516001600160401b038111156102bf57600080fd5b6102cb878288016101f0565b602087015190955090506001600160401b038111156102e957600080fd5b6102f5878288016101f0565b60408701516060880151919550935090506001600160a01b038116811461031b57600080fd5b939692955090935050565b600181811c9082168061033a57607f821691505b60208210810361035a57634e487b7160e01b600052602260045260246000fd5b50919050565b601f8211156101d557806000526020600020601f840160051c810160208510156103875750805b601f840160051c820191505b818110156103a75760008155600101610393565b5050505050565b81516001600160401b038111156103c7576103c76101da565b6103db816103d58454610326565b84610360565b6020601f82116001811461040f57600083156103f75750848201515b600019600385901b1c1916600184901b1784556103a7565b600084815260208120601f198516915b8281101561043f578785015182556020948501946001909201910161041f565b508482101561045d5786840151600019600387901b60f8161c191681555b50505050600190811b01905550565b634e487b7160e01b600052601160045260246000fd5b6001815b60018411156104bd578085048111156104a1576104a161046c565b60018416156104af57908102905b60019390931c928002610486565b935093915050565b6000826104d457506001610565565b816104e157506000610565565b81600181146104f757600281146105015761051d565b6001915050610565565b60ff8411156105125761051261046c565b50506001821b610565565b5060208310610133831016604e8410600b8410161715610540575081810a610565565b61054d6000198484610482565b80600019048211156105615761056161046c565b0290505b92915050565b600061057a60ff8416836104c5565b9392505050565b80820281158282048414176105655761056561046c565b808201808211156105655761056561046c565b610bde806105ba6000396000f3fe608060405234801561001057600080fd5b50600436106101165760003560e01c806370a08231116100a2578063a64b6e5f11610071578063a64b6e5f1461024d578063a9059cbb14610260578063b4a99a4e14610273578063d616f1bd14610286578063dd62ed3e1461029957600080fd5b806370a08231146101f657806370d20fde1461021f57806395d89b4114610232578063a457c2d71461023a57600080fd5b806323b872dd116100e957806323b872dd14610199578063266e588c146101ac578063313ce567146101c157806339509351146101d057806340c10f19146101e357600080fd5b806306fdde031461011b578063095ea7b3146101395780630b8b4b241461015c57806318160ddd14610187575b600080fd5b6101236102ac565b60405161013091906108f9565b60405180910390f35b61014c610147366004610963565b61033e565b6040519015158152602001610130565b60065461016f906001600160a01b031681565b6040516001600160a01b039091168152602001610130565b6002545b604051908152602001610130565b61014c6101a736600461098d565b610358565b6101bf6101ba3660046109ca565b61037c565b005b604051600c8152602001610130565b61014c6101de366004610963565b6103ed565b6101bf6101f1366004610963565b61040f565b61018b6102043660046109e3565b6001600160a01b031660009081526020819052604090205490565b60085461016f906001600160a01b031681565b610123610419565b61014c610248366004610963565b610428565b61014c61025b36600461098d565b6104a8565b61014c61026e366004610963565b6104bf565b60055461016f906001600160a01b031681565b60075461016f906001600160a01b031681565b61018b6102a7366004610a05565b6104cd565b6060600380546102bb90610a38565b80601f01602080910402602001604051908101604052809291908181526020018280546102e790610a38565b80156103345780601f1061030957610100808354040283529160200191610334565b820191906000526020600020905b81548152906001019060200180831161031757829003601f168201915b5050505050905090565b60003361034c8185856104f8565b60019150505b92915050565b60003361036685828561061c565b610371858585610696565b506001949350505050565b6005546006546103ab916001600160a01b039081169116600c5b6103a190600a610b6f565b61025b9085610b7e565b506005546007546103ca916001600160a01b039081169116600c610396565b506005546008546103e9916001600160a01b039081169116600c610396565b5050565b60003361034c81858561040083836104cd565b61040a9190610b95565b6104f8565b6103e9828261083a565b6060600480546102bb90610a38565b6000338161043682866104cd565b90508381101561049b5760405162461bcd60e51b815260206004820152602560248201527f45524332303a2064656372656173656420616c6c6f77616e63652062656c6f77604482015264207a65726f60d81b60648201526084015b60405180910390fd5b61037182868684036104f8565b60006104b5848484610696565b5060019392505050565b60003361034c818585610696565b6001600160a01b03918216600090815260016020908152604080832093909416825291909152205490565b6001600160a01b03831661055a5760405162461bcd60e51b8152602060048201526024808201527f45524332303a20617070726f76652066726f6d20746865207a65726f206164646044820152637265737360e01b6064820152608401610492565b6001600160a01b0382166105bb5760405162461bcd60e51b815260206004820152602260248201527f45524332303a20617070726f766520746f20746865207a65726f206164647265604482015261737360f01b6064820152608401610492565b6001600160a01b0383811660008181526001602090815260408083209487168084529482529182902085905590518481527f8c5be1e5ebec7d5bd14f71427d1e84f3dd0314c0f7b2291e5b200ac8c7c3b925910160405180910390a3505050565b600061062884846104cd565b9050600019811461069057818110156106835760405162461bcd60e51b815260206004820152601d60248201527f45524332303a20696e73756666696369656e7420616c6c6f77616e63650000006044820152606401610492565b61069084848484036104f8565b50505050565b6001600160a01b0383166106fa5760405162461bcd60e51b815260206004820152602560248201527f45524332303a207472616e736665722066726f6d20746865207a65726f206164604482015264647265737360d81b6064820152608401610492565b6001600160a01b03821661075c5760405162461bcd60e51b815260206004820152602360248201527f45524332303a207472616e7366657220746f20746865207a65726f206164647260448201526265737360e81b6064820152608401610492565b6001600160a01b038316600090815260208190526040902054818110156107d45760405162461bcd60e51b815260206004820152602660248201527f45524332303a207472616e7366657220616d6f756e7420657863656564732062604482015265616c616e636560d01b6064820152608401610492565b6001600160a01b03848116600081815260208181526040808320878703905593871680835291849020805487019055925185815290927fddf252ad1be2c89b69c2b068fc378daa952ba7f163c4a11628f55a4df523b3ef910160405180910390a3610690565b6001600160a01b0382166108905760405162461bcd60e51b815260206004820152601f60248201527f45524332303a206d696e7420746f20746865207a65726f2061646472657373006044820152606401610492565b80600260008282546108a29190610b95565b90915550506001600160a01b038216600081815260208181526040808320805486019055518481527fddf252ad1be2c89b69c2b068fc378daa952ba7f163c4a11628f55a4df523b3ef910160405180910390a35050565b602081526000825180602084015260005b81811015610927576020818601810151604086840101520161090a565b506000604082850101526040601f19601f83011684010191505092915050565b80356001600160a01b038116811461095e57600080fd5b919050565b6000806040838503121561097657600080fd5b61097f83610947565b946020939093013593505050565b6000806000606084860312156109a257600080fd5b6109ab84610947565b92506109b960208501610947565b929592945050506040919091013590565b6000602082840312156109dc57600080fd5b5035919050565b6000602082840312156109f557600080fd5b6109fe82610947565b9392505050565b60008060408385031215610a1857600080fd5b610a2183610947565b9150610a2f60208401610947565b90509250929050565b600181811c90821680610a4c57607f821691505b602082108103610a6c57634e487b7160e01b600052602260045260246000fd5b50919050565b634e487b7160e01b600052601160045260246000fd5b6001815b6001841115610ac357808504811115610aa757610aa7610a72565b6001841615610ab557908102905b60019390931c928002610a8c565b935093915050565b600082610ada57506001610352565b81610ae757506000610352565b8160018114610afd5760028114610b0757610b23565b6001915050610352565b60ff841115610b1857610b18610a72565b50506001821b610352565b5060208310610133831016604e8410600b8410161715610b46575081810a610352565b610b536000198484610a88565b8060001904821115610b6757610b67610a72565b029392505050565b60006109fe60ff841683610acb565b808202811582820484141761035257610352610a72565b8082018082111561035257610352610a7256fea26469706673582212201dc1a6dfb5997c63b688fec31920cad970f147b65fc18f1f19e76e83794c05de64736f6c634300081a0033",
					"opcodes": "PUSH1 0x80 PUSH1 0x40 MSTORE PUSH1 0x6 DUP1 SLOAD PUSH1 0x1 PUSH1 0x1 PUSH1 0xA0 SHL SUB NOT SWAP1 DUP2 AND PUSH20 0x6F5C8CFC8FC4FF2C003D5D4DFE6673F23E17EE4C OR SWAP1 SWAP2 SSTORE PUSH1 0x7 DUP1 SLOAD DUP3 AND PUSH20 0xE40EC4FBD2DD72CA3E9A825B570C2182370D0569 OR SWAP1 SSTORE PUSH1 0x8 DUP1 SLOAD SWAP1 SWAP2 AND PUSH20 0xB0C9EB3164E940DF84FDDC65167AA00AA466AE5B OR SWAP1 SSTORE CALLVALUE DUP1 ISZERO PUSH2 0x76 JUMPI PUSH1 0x0 DUP1 REVERT JUMPDEST POP PUSH1 0x40 MLOAD PUSH2 0x1198 CODESIZE SUB DUP1 PUSH2 0x1198 DUP4 CODECOPY DUP2 ADD PUSH1 0x40 DUP2 SWAP1 MSTORE PUSH2 0x95 SWAP2 PUSH2 0x293 JUMP JUMPDEST DUP4 DUP4 PUSH1 0x3 PUSH2 0xA3 DUP4 DUP3 PUSH2 0x3AE JUMP JUMPDEST POP PUSH1 0x4 PUSH2 0xB0 DUP3 DUP3 PUSH2 0x3AE JUMP JUMPDEST POP POP PUSH1 0x5 DUP1 SLOAD PUSH1 0x1 PUSH1 0x1 PUSH1 0xA0 SHL SUB NOT AND PUSH1 0x1 PUSH1 0x1 PUSH1 0xA0 SHL SUB DUP5 AND SWAP1 DUP2 OR SWAP1 SWAP2 SSTORE PUSH2 0xF7 SWAP2 POP PUSH2 0xDD PUSH1 0xC SWAP1 JUMP JUMPDEST PUSH2 0xE8 SWAP1 PUSH1 0xA PUSH2 0x56B JUMP JUMPDEST PUSH2 0xF2 SWAP1 DUP6 PUSH2 0x581 JUMP JUMPDEST PUSH2 0x100 JUMP JUMPDEST POP POP POP POP PUSH2 0x5AB JUMP JUMPDEST PUSH2 0x10A DUP3 DUP3 PUSH2 0x10E JUMP JUMPDEST POP POP JUMP JUMPDEST PUSH1 0x1 PUSH1 0x1 PUSH1 0xA0 SHL SUB DUP3 AND PUSH2 0x168 JUMPI PUSH1 0x40 MLOAD PUSH3 0x461BCD PUSH1 0xE5 SHL DUP2 MSTORE PUSH1 0x20 PUSH1 0x4 DUP3 ADD MSTORE PUSH1 0x1F PUSH1 0x24 DUP3 ADD MSTORE PUSH32 0x45524332303A206D696E7420746F20746865207A65726F206164647265737300 PUSH1 0x44 DUP3 ADD MSTORE PUSH1 0x64 ADD PUSH1 0x40 MLOAD DUP1 SWAP2 SUB SWAP1 REVERT JUMPDEST DUP1 PUSH1 0x2 PUSH1 0x0 DUP3 DUP3 SLOAD PUSH2 0x17A SWAP2 SWAP1 PUSH2 0x598 JUMP JUMPDEST SWAP1 SWAP2 SSTORE POP POP PUSH1 0x1 PUSH1 0x1 PUSH1 0xA0 SHL SUB DUP3 AND PUSH1 0x0 DUP2 DUP2 MSTORE PUSH1 0x20 DUP2 DUP2 MSTORE PUSH1 0x40 DUP1 DUP4 KECCAK256 DUP1 SLOAD DUP7 ADD SWAP1 SSTORE MLOAD DUP5 DUP2 MSTORE PUSH32 0xDDF252AD1BE2C89B69C2B068FC378DAA952BA7F163C4A11628F55A4DF523B3EF SWAP2 ADD PUSH1 0x40 MLOAD DUP1 SWAP2 SUB SWAP1 LOG3 PUSH2 0x10A PUSH1 0x0 DUP4 DUP4 JUMPDEST POP POP POP JUMP JUMPDEST PUSH4 0x4E487B71 PUSH1 0xE0 SHL PUSH1 0x0 MSTORE PUSH1 0x41 PUSH1 0x4 MSTORE PUSH1 0x24 PUSH1 0x0 REVERT JUMPDEST PUSH1 0x0 DUP3 PUSH1 0x1F DUP4 ADD SLT PUSH2 0x201 JUMPI PUSH1 0x0 DUP1 REVERT JUMPDEST DUP2 MLOAD PUSH1 0x1 PUSH1 0x1 PUSH1 0x40 SHL SUB DUP2 GT ISZERO PUSH2 0x21A JUMPI PUSH2 0x21A PUSH2 0x1DA JUMP JUMPDEST PUSH1 0x40 MLOAD PUSH1 0x1F DUP3 ADD PUSH1 0x1F NOT SWAP1 DUP2 AND PUSH1 0x3F ADD AND DUP2 ADD PUSH1 0x1 PUSH1 0x1 PUSH1 0x40 SHL SUB DUP2 GT DUP3 DUP3 LT OR ISZERO PUSH2 0x248 JUMPI PUSH2 0x248 PUSH2 0x1DA JUMP JUMPDEST PUSH1 0x40 MSTORE DUP2 DUP2 MSTORE DUP4 DUP3 ADD PUSH1 0x20 ADD DUP6 LT ISZERO PUSH2 0x260 JUMPI PUSH1 0x0 DUP1 REVERT JUMPDEST PUSH1 0x0 JUMPDEST DUP3 DUP2 LT ISZERO PUSH2 0x27F JUMPI PUSH1 0x20 DUP2 DUP7 ADD DUP2 ADD MLOAD DUP4 DUP4 ADD DUP3 ADD MSTORE ADD PUSH2 0x263 JUMP JUMPDEST POP PUSH1 0x0 SWAP2 DUP2 ADD PUSH1 0x20 ADD SWAP2 SWAP1 SWAP2 MSTORE SWAP4 SWAP3 POP POP POP JUMP JUMPDEST PUSH1 0x0 DUP1 PUSH1 0x0 DUP1 PUSH1 0x80 DUP6 DUP8 SUB SLT ISZERO PUSH2 0x2A9 JUMPI PUSH1 0x0 DUP1 REVERT JUMPDEST DUP5 MLOAD PUSH1 0x1 PUSH1 0x1 PUSH1 0x40 SHL SUB DUP2 GT ISZERO PUSH2 0x2BF JUMPI PUSH1 0x0 DUP1 REVERT JUMPDEST PUSH2 0x2CB DUP8 DUP3 DUP9 ADD PUSH2 0x1F0 JUMP JUMPDEST PUSH1 0x20 DUP8 ADD MLOAD SWAP1 SWAP6 POP SWAP1 POP PUSH1 0x1 PUSH1 0x1 PUSH1 0x40 SHL SUB DUP2 GT ISZERO PUSH2 0x2E9 JUMPI PUSH1 0x0 DUP1 REVERT JUMPDEST PUSH2 0x2F5 DUP8 DUP3 DUP9 ADD PUSH2 0x1F0 JUMP JUMPDEST PUSH1 0x40 DUP8 ADD MLOAD PUSH1 0x60 DUP9 ADD MLOAD SWAP2 SWAP6 POP SWAP4 POP SWAP1 POP PUSH1 0x1 PUSH1 0x1 PUSH1 0xA0 SHL SUB DUP2 AND DUP2 EQ PUSH2 0x31B JUMPI PUSH1 0x0 DUP1 REVERT JUMPDEST SWAP4 SWAP7 SWAP3 SWAP6 POP SWAP1 SWAP4 POP POP JUMP JUMPDEST PUSH1 0x1 DUP2 DUP2 SHR SWAP1 DUP3 AND DUP1 PUSH2 0x33A JUMPI PUSH1 0x7F DUP3 AND SWAP2 POP JUMPDEST PUSH1 0x20 DUP3 LT DUP2 SUB PUSH2 0x35A JUMPI PUSH4 0x4E487B71 PUSH1 0xE0 SHL PUSH1 0x0 MSTORE PUSH1 0x22 PUSH1 0x4 MSTORE PUSH1 0x24 PUSH1 0x0 REVERT JUMPDEST POP SWAP2 SWAP1 POP JUMP JUMPDEST PUSH1 0x1F DUP3 GT ISZERO PUSH2 0x1D5 JUMPI DUP1 PUSH1 0x0 MSTORE PUSH1 0x20 PUSH1 0x0 KECCAK256 PUSH1 0x1F DUP5 ADD PUSH1 0x5 SHR DUP2 ADD PUSH1 0x20 DUP6 LT ISZERO PUSH2 0x387 JUMPI POP DUP1 JUMPDEST PUSH1 0x1F DUP5 ADD PUSH1 0x5 SHR DUP3 ADD SWAP2 POP JUMPDEST DUP2 DUP2 LT ISZERO PUSH2 0x3A7 JUMPI PUSH1 0x0 DUP2 SSTORE PUSH1 0x1 ADD PUSH2 0x393 JUMP JUMPDEST POP POP POP POP POP JUMP JUMPDEST DUP2 MLOAD PUSH1 0x1 PUSH1 0x1 PUSH1 0x40 SHL SUB DUP2 GT ISZERO PUSH2 0x3C7 JUMPI PUSH2 0x3C7 PUSH2 0x1DA JUMP JUMPDEST PUSH2 0x3DB DUP2 PUSH2 0x3D5 DUP5 SLOAD PUSH2 0x326 JUMP JUMPDEST DUP5 PUSH2 0x360 JUMP JUMPDEST PUSH1 0x20 PUSH1 0x1F DUP3 GT PUSH1 0x1 DUP2 EQ PUSH2 0x40F JUMPI PUSH1 0x0 DUP4 ISZERO PUSH2 0x3F7 JUMPI POP DUP5 DUP3 ADD MLOAD JUMPDEST PUSH1 0x0 NOT PUSH1 0x3 DUP6 SWAP1 SHL SHR NOT AND PUSH1 0x1 DUP5 SWAP1 SHL OR DUP5 SSTORE PUSH2 0x3A7 JUMP JUMPDEST PUSH1 0x0 DUP5 DUP2 MSTORE PUSH1 0x20 DUP2 KECCAK256 PUSH1 0x1F NOT DUP6 AND SWAP2 JUMPDEST DUP3 DUP2 LT ISZERO PUSH2 0x43F JUMPI DUP8 DUP6 ADD MLOAD DUP3 SSTORE PUSH1 0x20 SWAP5 DUP6 ADD SWAP5 PUSH1 0x1 SWAP1 SWAP3 ADD SWAP2 ADD PUSH2 0x41F JUMP JUMPDEST POP DUP5 DUP3 LT ISZERO PUSH2 0x45D JUMPI DUP7 DUP5 ADD MLOAD PUSH1 0x0 NOT PUSH1 0x3 DUP8 SWAP1 SHL PUSH1 0xF8 AND SHR NOT AND DUP2 SSTORE JUMPDEST POP POP POP POP PUSH1 0x1 SWAP1 DUP2 SHL ADD SWAP1 SSTORE POP JUMP JUMPDEST PUSH4 0x4E487B71 PUSH1 0xE0 SHL PUSH1 0x0 MSTORE PUSH1 0x11 PUSH1 0x4 MSTORE PUSH1 0x24 PUSH1 0x0 REVERT JUMPDEST PUSH1 0x1 DUP2 JUMPDEST PUSH1 0x1 DUP5 GT ISZERO PUSH2 0x4BD JUMPI DUP1 DUP6 DIV DUP2 GT ISZERO PUSH2 0x4A1 JUMPI PUSH2 0x4A1 PUSH2 0x46C JUMP JUMPDEST PUSH1 0x1 DUP5 AND ISZERO PUSH2 0x4AF JUMPI SWAP1 DUP2 MUL SWAP1 JUMPDEST PUSH1 0x1 SWAP4 SWAP1 SWAP4 SHR SWAP3 DUP1 MUL PUSH2 0x486 JUMP JUMPDEST SWAP4 POP SWAP4 SWAP2 POP POP JUMP JUMPDEST PUSH1 0x0 DUP3 PUSH2 0x4D4 JUMPI POP PUSH1 0x1 PUSH2 0x565 JUMP JUMPDEST DUP2 PUSH2 0x4E1 JUMPI POP PUSH1 0x0 PUSH2 0x565 JUMP JUMPDEST DUP2 PUSH1 0x1 DUP2 EQ PUSH2 0x4F7 JUMPI PUSH1 0x2 DUP2 EQ PUSH2 0x501 JUMPI PUSH2 0x51D JUMP JUMPDEST PUSH1 0x1 SWAP2 POP POP PUSH2 0x565 JUMP JUMPDEST PUSH1 0xFF DUP5 GT ISZERO PUSH2 0x512 JUMPI PUSH2 0x512 PUSH2 0x46C JUMP JUMPDEST POP POP PUSH1 0x1 DUP3 SHL PUSH2 0x565 JUMP JUMPDEST POP PUSH1 0x20 DUP4 LT PUSH2 0x133 DUP4 LT AND PUSH1 0x4E DUP5 LT PUSH1 0xB DUP5 LT AND OR ISZERO PUSH2 0x540 JUMPI POP DUP2 DUP2 EXP PUSH2 0x565 JUMP JUMPDEST PUSH2 0x54D PUSH1 0x0 NOT DUP5 DUP5 PUSH2 0x482 JUMP JUMPDEST DUP1 PUSH1 0x0 NOT DIV DUP3 GT ISZERO PUSH2 0x561 JUMPI PUSH2 0x561 PUSH2 0x46C JUMP JUMPDEST MUL SWAP1 POP JUMPDEST SWAP3 SWAP2 POP POP JUMP JUMPDEST PUSH1 0x0 PUSH2 0x57A PUSH1 0xFF DUP5 AND DUP4 PUSH2 0x4C5 JUMP JUMPDEST SWAP4 SWAP3 POP POP POP JUMP JUMPDEST DUP1 DUP3 MUL DUP2 ISZERO DUP3 DUP3 DIV DUP5 EQ OR PUSH2 0x565 JUMPI PUSH2 0x565 PUSH2 0x46C JUMP JUMPDEST DUP1 DUP3 ADD DUP1 DUP3 GT ISZERO PUSH2 0x565 JUMPI PUSH2 0x565 PUSH2 0x46C JUMP JUMPDEST PUSH2 0xBDE DUP1 PUSH2 0x5BA PUSH1 0x0 CODECOPY PUSH1 0x0 RETURN INVALID PUSH1 0x80 PUSH1 0x40 MSTORE CALLVALUE DUP1 ISZERO PUSH2 0x10 JUMPI PUSH1 0x0 DUP1 REVERT JUMPDEST POP PUSH1 0x4 CALLDATASIZE LT PUSH2 0x116 JUMPI PUSH1 0x0 CALLDATALOAD PUSH1 0xE0 SHR DUP1 PUSH4 0x70A08231 GT PUSH2 0xA2 JUMPI DUP1 PUSH4 0xA64B6E5F GT PUSH2 0x71 JUMPI DUP1 PUSH4 0xA64B6E5F EQ PUSH2 0x24D JUMPI DUP1 PUSH4 0xA9059CBB EQ PUSH2 0x260 JUMPI DUP1 PUSH4 0xB4A99A4E EQ PUSH2 0x273 JUMPI DUP1 PUSH4 0xD616F1BD EQ PUSH2 0x286 JUMPI DUP1 PUSH4 0xDD62ED3E EQ PUSH2 0x299 JUMPI PUSH1 0x0 DUP1 REVERT JUMPDEST DUP1 PUSH4 0x70A08231 EQ PUSH2 0x1F6 JUMPI DUP1 PUSH4 0x70D20FDE EQ PUSH2 0x21F JUMPI DUP1 PUSH4 0x95D89B41 EQ PUSH2 0x232 JUMPI DUP1 PUSH4 0xA457C2D7 EQ PUSH2 0x23A JUMPI PUSH1 0x0 DUP1 REVERT JUMPDEST DUP1 PUSH4 0x23B872DD GT PUSH2 0xE9 JUMPI DUP1 PUSH4 0x23B872DD EQ PUSH2 0x199 JUMPI DUP1 PUSH4 0x266E588C EQ PUSH2 0x1AC JUMPI DUP1 PUSH4 0x313CE567 EQ PUSH2 0x1C1 JUMPI DUP1 PUSH4 0x39509351 EQ PUSH2 0x1D0 JUMPI DUP1 PUSH4 0x40C10F19 EQ PUSH2 0x1E3 JUMPI PUSH1 0x0 DUP1 REVERT JUMPDEST DUP1 PUSH4 0x6FDDE03 EQ PUSH2 0x11B JUMPI DUP1 PUSH4 0x95EA7B3 EQ PUSH2 0x139 JUMPI DUP1 PUSH4 0xB8B4B24 EQ PUSH2 0x15C JUMPI DUP1 PUSH4 0x18160DDD EQ PUSH2 0x187 JUMPI JUMPDEST PUSH1 0x0 DUP1 REVERT JUMPDEST PUSH2 0x123 PUSH2 0x2AC JUMP JUMPDEST PUSH1 0x40 MLOAD PUSH2 0x130 SWAP2 SWAP1 PUSH2 0x8F9 JUMP JUMPDEST PUSH1 0x40 MLOAD DUP1 SWAP2 SUB SWAP1 RETURN JUMPDEST PUSH2 0x14C PUSH2 0x147 CALLDATASIZE PUSH1 0x4 PUSH2 0x963 JUMP JUMPDEST PUSH2 0x33E JUMP JUMPDEST PUSH1 0x40 MLOAD SWAP1 ISZERO ISZERO DUP2 MSTORE PUSH1 0x20 ADD PUSH2 0x130 JUMP JUMPDEST PUSH1 0x6 SLOAD PUSH2 0x16F SWAP1 PUSH1 0x1 PUSH1 0x1 PUSH1 0xA0 SHL SUB AND DUP2 JUMP JUMPDEST PUSH1 0x40 MLOAD PUSH1 0x1 PUSH1 0x1 PUSH1 0xA0 SHL SUB SWAP1 SWAP2 AND DUP2 MSTORE PUSH1 0x20 ADD PUSH2 0x130 JUMP JUMPDEST PUSH1 0x2 SLOAD JUMPDEST PUSH1 0x40 MLOAD SWAP1 DUP2 MSTORE PUSH1 0x20 ADD PUSH2 0x130 JUMP JUMPDEST PUSH2 0x14C PUSH2 0x1A7 CALLDATASIZE PUSH1 0x4 PUSH2 0x98D JUMP JUMPDEST PUSH2 0x358 JUMP JUMPDEST PUSH2 0x1BF PUSH2 0x1BA CALLDATASIZE PUSH1 0x4 PUSH2 0x9CA JUMP JUMPDEST PUSH2 0x37C JUMP JUMPDEST STOP JUMPDEST PUSH1 0x40 MLOAD PUSH1 0xC DUP2 MSTORE PUSH1 0x20 ADD PUSH2 0x130 JUMP JUMPDEST PUSH2 0x14C PUSH2 0x1DE CALLDATASIZE PUSH1 0x4 PUSH2 0x963 JUMP JUMPDEST PUSH2 0x3ED JUMP JUMPDEST PUSH2 0x1BF PUSH2 0x1F1 CALLDATASIZE PUSH1 0x4 PUSH2 0x963 JUMP JUMPDEST PUSH2 0x40F JUMP JUMPDEST PUSH2 0x18B PUSH2 0x204 CALLDATASIZE PUSH1 0x4 PUSH2 0x9E3 JUMP JUMPDEST PUSH1 0x1 PUSH1 0x1 PUSH1 0xA0 SHL SUB AND PUSH1 0x0 SWAP1 DUP2 MSTORE PUSH1 0x20 DUP2 SWAP1 MSTORE PUSH1 0x40 SWAP1 KECCAK256 SLOAD SWAP1 JUMP JUMPDEST PUSH1 0x8 SLOAD PUSH2 0x16F SWAP1 PUSH1 0x1 PUSH1 0x1 PUSH1 0xA0 SHL SUB AND DUP2 JUMP JUMPDEST PUSH2 0x123 PUSH2 0x419 JUMP JUMPDEST PUSH2 0x14C PUSH2 0x248 CALLDATASIZE PUSH1 0x4 PUSH2 0x963 JUMP JUMPDEST PUSH2 0x428 JUMP JUMPDEST PUSH2 0x14C PUSH2 0x25B CALLDATASIZE PUSH1 0x4 PUSH2 0x98D JUMP JUMPDEST PUSH2 0x4A8 JUMP JUMPDEST PUSH2 0x14C PUSH2 0x26E CALLDATASIZE PUSH1 0x4 PUSH2 0x963 JUMP JUMPDEST PUSH2 0x4BF JUMP JUMPDEST PUSH1 0x5 SLOAD PUSH2 0x16F SWAP1 PUSH1 0x1 PUSH1 0x1 PUSH1 0xA0 SHL SUB AND DUP2 JUMP JUMPDEST PUSH1 0x7 SLOAD PUSH2 0x16F SWAP1 PUSH1 0x1 PUSH1 0x1 PUSH1 0xA0 SHL SUB AND DUP2 JUMP JUMPDEST PUSH2 0x18B PUSH2 0x2A7 CALLDATASIZE PUSH1 0x4 PUSH2 0xA05 JUMP JUMPDEST PUSH2 0x4CD JUMP JUMPDEST PUSH1 0x60 PUSH1 0x3 DUP1 SLOAD PUSH2 0x2BB SWAP1 PUSH2 0xA38 JUMP JUMPDEST DUP1 PUSH1 0x1F ADD PUSH1 0x20 DUP1 SWAP2 DIV MUL PUSH1 0x20 ADD PUSH1 0x40 MLOAD SWAP1 DUP2 ADD PUSH1 0x40 MSTORE DUP1 SWAP3 SWAP2 SWAP1 DUP2 DUP2 MSTORE PUSH1 0x20 ADD DUP3 DUP1 SLOAD PUSH2 0x2E7 SWAP1 PUSH2 0xA38 JUMP JUMPDEST DUP1 ISZERO PUSH2 0x334 JUMPI DUP1 PUSH1 0x1F LT PUSH2 0x309 JUMPI PUSH2 0x100 DUP1 DUP4 SLOAD DIV MUL DUP4 MSTORE SWAP2 PUSH1 0x20 ADD SWAP2 PUSH2 0x334 JUMP JUMPDEST DUP3 ADD SWAP2 SWAP1 PUSH1 0x0 MSTORE PUSH1 0x20 PUSH1 0x0 KECCAK256 SWAP1 JUMPDEST DUP2 SLOAD DUP2 MSTORE SWAP1 PUSH1 0x1 ADD SWAP1 PUSH1 0x20 ADD DUP1 DUP4 GT PUSH2 0x317 JUMPI DUP3 SWAP1 SUB PUSH1 0x1F AND DUP3 ADD SWAP2 JUMPDEST POP POP POP POP POP SWAP1 POP SWAP1 JUMP JUMPDEST PUSH1 0x0 CALLER PUSH2 0x34C DUP2 DUP6 DUP6 PUSH2 0x4F8 JUMP JUMPDEST PUSH1 0x1 SWAP2 POP POP JUMPDEST SWAP3 SWAP2 POP POP JUMP JUMPDEST PUSH1 0x0 CALLER PUSH2 0x366 DUP6 DUP3 DUP6 PUSH2 0x61C JUMP JUMPDEST PUSH2 0x371 DUP6 DUP6 DUP6 PUSH2 0x696 JUMP JUMPDEST POP PUSH1 0x1 SWAP5 SWAP4 POP POP POP POP JUMP JUMPDEST PUSH1 0x5 SLOAD PUSH1 0x6 SLOAD PUSH2 0x3AB SWAP2 PUSH1 0x1 PUSH1 0x1 PUSH1 0xA0 SHL SUB SWAP1 DUP2 AND SWAP2 AND PUSH1 0xC JUMPDEST PUSH2 0x3A1 SWAP1 PUSH1 0xA PUSH2 0xB6F JUMP JUMPDEST PUSH2 0x25B SWAP1 DUP6 PUSH2 0xB7E JUMP JUMPDEST POP PUSH1 0x5 SLOAD PUSH1 0x7 SLOAD PUSH2 0x3CA SWAP2 PUSH1 0x1 PUSH1 0x1 PUSH1 0xA0 SHL SUB SWAP1 DUP2 AND SWAP2 AND PUSH1 0xC PUSH2 0x396 JUMP JUMPDEST POP PUSH1 0x5 SLOAD PUSH1 0x8 SLOAD PUSH2 0x3E9 SWAP2 PUSH1 0x1 PUSH1 0x1 PUSH1 0xA0 SHL SUB SWAP1 DUP2 AND SWAP2 AND PUSH1 0xC PUSH2 0x396 JUMP JUMPDEST POP POP JUMP JUMPDEST PUSH1 0x0 CALLER PUSH2 0x34C DUP2 DUP6 DUP6 PUSH2 0x400 DUP4 DUP4 PUSH2 0x4CD JUMP JUMPDEST PUSH2 0x40A SWAP2 SWAP1 PUSH2 0xB95 JUMP JUMPDEST PUSH2 0x4F8 JUMP JUMPDEST PUSH2 0x3E9 DUP3 DUP3 PUSH2 0x83A JUMP JUMPDEST PUSH1 0x60 PUSH1 0x4 DUP1 SLOAD PUSH2 0x2BB SWAP1 PUSH2 0xA38 JUMP JUMPDEST PUSH1 0x0 CALLER DUP2 PUSH2 0x436 DUP3 DUP7 PUSH2 0x4CD JUMP JUMPDEST SWAP1 POP DUP4 DUP2 LT ISZERO PUSH2 0x49B JUMPI PUSH1 0x40 MLOAD PUSH3 0x461BCD PUSH1 0xE5 SHL DUP2 MSTORE PUSH1 0x20 PUSH1 0x4 DUP3 ADD MSTORE PUSH1 0x25 PUSH1 0x24 DUP3 ADD MSTORE PUSH32 0x45524332303A2064656372656173656420616C6C6F77616E63652062656C6F77 PUSH1 0x44 DUP3 ADD MSTORE PUSH5 0x207A65726F PUSH1 0xD8 SHL PUSH1 0x64 DUP3 ADD MSTORE PUSH1 0x84 ADD JUMPDEST PUSH1 0x40 MLOAD DUP1 SWAP2 SUB SWAP1 REVERT JUMPDEST PUSH2 0x371 DUP3 DUP7 DUP7 DUP5 SUB PUSH2 0x4F8 JUMP JUMPDEST PUSH1 0x0 PUSH2 0x4B5 DUP5 DUP5 DUP5 PUSH2 0x696 JUMP JUMPDEST POP PUSH1 0x1 SWAP4 SWAP3 POP POP POP JUMP JUMPDEST PUSH1 0x0 CALLER PUSH2 0x34C DUP2 DUP6 DUP6 PUSH2 0x696 JUMP JUMPDEST PUSH1 0x1 PUSH1 0x1 PUSH1 0xA0 SHL SUB SWAP2 DUP3 AND PUSH1 0x0 SWAP1 DUP2 MSTORE PUSH1 0x1 PUSH1 0x20 SWAP1 DUP2 MSTORE PUSH1 0x40 DUP1 DUP4 KECCAK256 SWAP4 SWAP1 SWAP5 AND DUP3 MSTORE SWAP2 SWAP1 SWAP2 MSTORE KECCAK256 SLOAD SWAP1 JUMP JUMPDEST PUSH1 0x1 PUSH1 0x1 PUSH1 0xA0 SHL SUB DUP4 AND PUSH2 0x55A JUMPI PUSH1 0x40 MLOAD PUSH3 0x461BCD PUSH1 0xE5 SHL DUP2 MSTORE PUSH1 0x20 PUSH1 0x4 DUP3 ADD MSTORE PUSH1 0x24 DUP1 DUP3 ADD MSTORE PUSH32 0x45524332303A20617070726F76652066726F6D20746865207A65726F20616464 PUSH1 0x44 DUP3 ADD MSTORE PUSH4 0x72657373 PUSH1 0xE0 SHL PUSH1 0x64 DUP3 ADD MSTORE PUSH1 0x84 ADD PUSH2 0x492 JUMP JUMPDEST PUSH1 0x1 PUSH1 0x1 PUSH1 0xA0 SHL SUB DUP3 AND PUSH2 0x5BB JUMPI PUSH1 0x40 MLOAD PUSH3 0x461BCD PUSH1 0xE5 SHL DUP2 MSTORE PUSH1 0x20 PUSH1 0x4 DUP3 ADD MSTORE PUSH1 0x22 PUSH1 0x24 DUP3 ADD MSTORE PUSH32 0x45524332303A20617070726F766520746F20746865207A65726F206164647265 PUSH1 0x44 DUP3 ADD MSTORE PUSH2 0x7373 PUSH1 0xF0 SHL PUSH1 0x64 DUP3 ADD MSTORE PUSH1 0x84 ADD PUSH2 0x492 JUMP JUMPDEST PUSH1 0x1 PUSH1 0x1 PUSH1 0xA0 SHL SUB DUP4 DUP2 AND PUSH1 0x0 DUP2 DUP2 MSTORE PUSH1 0x1 PUSH1 0x20 SWAP1 DUP2 MSTORE PUSH1 0x40 DUP1 DUP4 KECCAK256 SWAP5 DUP8 AND DUP1 DUP5 MSTORE SWAP5 DUP3 MSTORE SWAP2 DUP3 SWAP1 KECCAK256 DUP6 SWAP1 SSTORE SWAP1 MLOAD DUP5 DUP2 MSTORE PUSH32 0x8C5BE1E5EBEC7D5BD14F71427D1E84F3DD0314C0F7B2291E5B200AC8C7C3B925 SWAP2 ADD PUSH1 0x40 MLOAD DUP1 SWAP2 SUB SWAP1 LOG3 POP POP POP JUMP JUMPDEST PUSH1 0x0 PUSH2 0x628 DUP5 DUP5 PUSH2 0x4CD JUMP JUMPDEST SWAP1 POP PUSH1 0x0 NOT DUP2 EQ PUSH2 0x690 JUMPI DUP2 DUP2 LT ISZERO PUSH2 0x683 JUMPI PUSH1 0x40 MLOAD PUSH3 0x461BCD PUSH1 0xE5 SHL DUP2 MSTORE PUSH1 0x20 PUSH1 0x4 DUP3 ADD MSTORE PUSH1 0x1D PUSH1 0x24 DUP3 ADD MSTORE PUSH32 0x45524332303A20696E73756666696369656E7420616C6C6F77616E6365000000 PUSH1 0x44 DUP3 ADD MSTORE PUSH1 0x64 ADD PUSH2 0x492 JUMP JUMPDEST PUSH2 0x690 DUP5 DUP5 DUP5 DUP5 SUB PUSH2 0x4F8 JUMP JUMPDEST POP POP POP POP JUMP JUMPDEST PUSH1 0x1 PUSH1 0x1 PUSH1 0xA0 SHL SUB DUP4 AND PUSH2 0x6FA JUMPI PUSH1 0x40 MLOAD PUSH3 0x461BCD PUSH1 0xE5 SHL DUP2 MSTORE PUSH1 0x20 PUSH1 0x4 DUP3 ADD MSTORE PUSH1 0x25 PUSH1 0x24 DUP3 ADD MSTORE PUSH32 0x45524332303A207472616E736665722066726F6D20746865207A65726F206164 PUSH1 0x44 DUP3 ADD MSTORE PUSH5 0x6472657373 PUSH1 0xD8 SHL PUSH1 0x64 DUP3 ADD MSTORE PUSH1 0x84 ADD PUSH2 0x492 JUMP JUMPDEST PUSH1 0x1 PUSH1 0x1 PUSH1 0xA0 SHL SUB DUP3 AND PUSH2 0x75C JUMPI PUSH1 0x40 MLOAD PUSH3 0x461BCD PUSH1 0xE5 SHL DUP2 MSTORE PUSH1 0x20 PUSH1 0x4 DUP3 ADD MSTORE PUSH1 0x23 PUSH1 0x24 DUP3 ADD MSTORE PUSH32 0x45524332303A207472616E7366657220746F20746865207A65726F2061646472 PUSH1 0x44 DUP3 ADD MSTORE PUSH3 0x657373 PUSH1 0xE8 SHL PUSH1 0x64 DUP3 ADD MSTORE PUSH1 0x84 ADD PUSH2 0x492 JUMP JUMPDEST PUSH1 0x1 PUSH1 0x1 PUSH1 0xA0 SHL SUB DUP4 AND PUSH1 0x0 SWAP1 DUP2 MSTORE PUSH1 0x20 DUP2 SWAP1 MSTORE PUSH1 0x40 SWAP1 KECCAK256 SLOAD DUP2 DUP2 LT ISZERO PUSH2 0x7D4 JUMPI PUSH1 0x40 MLOAD PUSH3 0x461BCD PUSH1 0xE5 SHL DUP2 MSTORE PUSH1 0x20 PUSH1 0x4 DUP3 ADD MSTORE PUSH1 0x26 PUSH1 0x24 DUP3 ADD MSTORE PUSH32 0x45524332303A207472616E7366657220616D6F756E7420657863656564732062 PUSH1 0x44 DUP3 ADD MSTORE PUSH6 0x616C616E6365 PUSH1 0xD0 SHL PUSH1 0x64 DUP3 ADD MSTORE PUSH1 0x84 ADD PUSH2 0x492 JUMP JUMPDEST PUSH1 0x1 PUSH1 0x1 PUSH1 0xA0 SHL SUB DUP5 DUP2 AND PUSH1 0x0 DUP2 DUP2 MSTORE PUSH1 0x20 DUP2 DUP2 MSTORE PUSH1 0x40 DUP1 DUP4 KECCAK256 DUP8 DUP8 SUB SWAP1 SSTORE SWAP4 DUP8 AND DUP1 DUP4 MSTORE SWAP2 DUP5 SWAP1 KECCAK256 DUP1 SLOAD DUP8 ADD SWAP1 SSTORE SWAP3 MLOAD DUP6 DUP2 MSTORE SWAP1 SWAP3 PUSH32 0xDDF252AD1BE2C89B69C2B068FC378DAA952BA7F163C4A11628F55A4DF523B3EF SWAP2 ADD PUSH1 0x40 MLOAD DUP1 SWAP2 SUB SWAP1 LOG3 PUSH2 0x690 JUMP JUMPDEST PUSH1 0x1 PUSH1 0x1 PUSH1 0xA0 SHL SUB DUP3 AND PUSH2 0x890 JUMPI PUSH1 0x40 MLOAD PUSH3 0x461BCD PUSH1 0xE5 SHL DUP2 MSTORE PUSH1 0x20 PUSH1 0x4 DUP3 ADD MSTORE PUSH1 0x1F PUSH1 0x24 DUP3 ADD MSTORE PUSH32 0x45524332303A206D696E7420746F20746865207A65726F206164647265737300 PUSH1 0x44 DUP3 ADD MSTORE PUSH1 0x64 ADD PUSH2 0x492 JUMP JUMPDEST DUP1 PUSH1 0x2 PUSH1 0x0 DUP3 DUP3 SLOAD PUSH2 0x8A2 SWAP2 SWAP1 PUSH2 0xB95 JUMP JUMPDEST SWAP1 SWAP2 SSTORE POP POP PUSH1 0x1 PUSH1 0x1 PUSH1 0xA0 SHL SUB DUP3 AND PUSH1 0x0 DUP2 DUP2 MSTORE PUSH1 0x20 DUP2 DUP2 MSTORE PUSH1 0x40 DUP1 DUP4 KECCAK256 DUP1 SLOAD DUP7 ADD SWAP1 SSTORE MLOAD DUP5 DUP2 MSTORE PUSH32 0xDDF252AD1BE2C89B69C2B068FC378DAA952BA7F163C4A11628F55A4DF523B3EF SWAP2 ADD PUSH1 0x40 MLOAD DUP1 SWAP2 SUB SWAP1 LOG3 POP POP JUMP JUMPDEST PUSH1 0x20 DUP2 MSTORE PUSH1 0x0 DUP3 MLOAD DUP1 PUSH1 0x20 DUP5 ADD MSTORE PUSH1 0x0 JUMPDEST DUP2 DUP2 LT ISZERO PUSH2 0x927 JUMPI PUSH1 0x20 DUP2 DUP7 ADD DUP2 ADD MLOAD PUSH1 0x40 DUP7 DUP5 ADD ADD MSTORE ADD PUSH2 0x90A JUMP JUMPDEST POP PUSH1 0x0 PUSH1 0x40 DUP3 DUP6 ADD ADD MSTORE PUSH1 0x40 PUSH1 0x1F NOT PUSH1 0x1F DUP4 ADD AND DUP5 ADD ADD SWAP2 POP POP SWAP3 SWAP2 POP POP JUMP JUMPDEST DUP1 CALLDATALOAD PUSH1 0x1 PUSH1 0x1 PUSH1 0xA0 SHL SUB DUP2 AND DUP2 EQ PUSH2 0x95E JUMPI PUSH1 0x0 DUP1 REVERT JUMPDEST SWAP2 SWAP1 POP JUMP JUMPDEST PUSH1 0x0 DUP1 PUSH1 0x40 DUP4 DUP6 SUB SLT ISZERO PUSH2 0x976 JUMPI PUSH1 0x0 DUP1 REVERT JUMPDEST PUSH2 0x97F DUP4 PUSH2 0x947 JUMP JUMPDEST SWAP5 PUSH1 0x20 SWAP4 SWAP1 SWAP4 ADD CALLDATALOAD SWAP4 POP POP POP JUMP JUMPDEST PUSH1 0x0 DUP1 PUSH1 0x0 PUSH1 0x60 DUP5 DUP7 SUB SLT ISZERO PUSH2 0x9A2 JUMPI PUSH1 0x0 DUP1 REVERT JUMPDEST PUSH2 0x9AB DUP5 PUSH2 0x947 JUMP JUMPDEST SWAP3 POP PUSH2 0x9B9 PUSH1 0x20 DUP6 ADD PUSH2 0x947 JUMP JUMPDEST SWAP3 SWAP6 SWAP3 SWAP5 POP POP POP PUSH1 0x40 SWAP2 SWAP1 SWAP2 ADD CALLDATALOAD SWAP1 JUMP JUMPDEST PUSH1 0x0 PUSH1 0x20 DUP3 DUP5 SUB SLT ISZERO PUSH2 0x9DC JUMPI PUSH1 0x0 DUP1 REVERT JUMPDEST POP CALLDATALOAD SWAP2 SWAP1 POP JUMP JUMPDEST PUSH1 0x0 PUSH1 0x20 DUP3 DUP5 SUB SLT ISZERO PUSH2 0x9F5 JUMPI PUSH1 0x0 DUP1 REVERT JUMPDEST PUSH2 0x9FE DUP3 PUSH2 0x947 JUMP JUMPDEST SWAP4 SWAP3 POP POP POP JUMP JUMPDEST PUSH1 0x0 DUP1 PUSH1 0x40 DUP4 DUP6 SUB SLT ISZERO PUSH2 0xA18 JUMPI PUSH1 0x0 DUP1 REVERT JUMPDEST PUSH2 0xA21 DUP4 PUSH2 0x947 JUMP JUMPDEST SWAP2 POP PUSH2 0xA2F PUSH1 0x20 DUP5 ADD PUSH2 0x947 JUMP JUMPDEST SWAP1 POP SWAP3 POP SWAP3 SWAP1 POP JUMP JUMPDEST PUSH1 0x1 DUP2 DUP2 SHR SWAP1 DUP3 AND DUP1 PUSH2 0xA4C JUMPI PUSH1 0x7F DUP3 AND SWAP2 POP JUMPDEST PUSH1 0x20 DUP3 LT DUP2 SUB PUSH2 0xA6C JUMPI PUSH4 0x4E487B71 PUSH1 0xE0 SHL PUSH1 0x0 MSTORE PUSH1 0x22 PUSH1 0x4 MSTORE PUSH1 0x24 PUSH1 0x0 REVERT JUMPDEST POP SWAP2 SWAP1 POP JUMP JUMPDEST PUSH4 0x4E487B71 PUSH1 0xE0 SHL PUSH1 0x0 MSTORE PUSH1 0x11 PUSH1 0x4 MSTORE PUSH1 0x24 PUSH1 0x0 REVERT JUMPDEST PUSH1 0x1 DUP2 JUMPDEST PUSH1 0x1 DUP5 GT ISZERO PUSH2 0xAC3 JUMPI DUP1 DUP6 DIV DUP2 GT ISZERO PUSH2 0xAA7 JUMPI PUSH2 0xAA7 PUSH2 0xA72 JUMP JUMPDEST PUSH1 0x1 DUP5 AND ISZERO PUSH2 0xAB5 JUMPI SWAP1 DUP2 MUL SWAP1 JUMPDEST PUSH1 0x1 SWAP4 SWAP1 SWAP4 SHR SWAP3 DUP1 MUL PUSH2 0xA8C JUMP JUMPDEST SWAP4 POP SWAP4 SWAP2 POP POP JUMP JUMPDEST PUSH1 0x0 DUP3 PUSH2 0xADA JUMPI POP PUSH1 0x1 PUSH2 0x352 JUMP JUMPDEST DUP2 PUSH2 0xAE7 JUMPI POP PUSH1 0x0 PUSH2 0x352 JUMP JUMPDEST DUP2 PUSH1 0x1 DUP2 EQ PUSH2 0xAFD JUMPI PUSH1 0x2 DUP2 EQ PUSH2 0xB07 JUMPI PUSH2 0xB23 JUMP JUMPDEST PUSH1 0x1 SWAP2 POP POP PUSH2 0x352 JUMP JUMPDEST PUSH1 0xFF DUP5 GT ISZERO PUSH2 0xB18 JUMPI PUSH2 0xB18 PUSH2 0xA72 JUMP JUMPDEST POP POP PUSH1 0x1 DUP3 SHL PUSH2 0x352 JUMP JUMPDEST POP PUSH1 0x20 DUP4 LT PUSH2 0x133 DUP4 LT AND PUSH1 0x4E DUP5 LT PUSH1 0xB DUP5 LT AND OR ISZERO PUSH2 0xB46 JUMPI POP DUP2 DUP2 EXP PUSH2 0x352 JUMP JUMPDEST PUSH2 0xB53 PUSH1 0x0 NOT DUP5 DUP5 PUSH2 0xA88 JUMP JUMPDEST DUP1 PUSH1 0x0 NOT DIV DUP3 GT ISZERO PUSH2 0xB67 JUMPI PUSH2 0xB67 PUSH2 0xA72 JUMP JUMPDEST MUL SWAP4 SWAP3 POP POP POP JUMP JUMPDEST PUSH1 0x0 PUSH2 0x9FE PUSH1 0xFF DUP5 AND DUP4 PUSH2 0xACB JUMP JUMPDEST DUP1 DUP3 MUL DUP2 ISZERO DUP3 DUP3 DIV DUP5 EQ OR PUSH2 0x352 JUMPI PUSH2 0x352 PUSH2 0xA72 JUMP JUMPDEST DUP1 DUP3 ADD DUP1 DUP3 GT ISZERO PUSH2 0x352 JUMPI PUSH2 0x352 PUSH2 0xA72 JUMP INVALID LOG2 PUSH5 0x6970667358 0x22 SLT KECCAK256 SAR 0xC1 0xA6 0xDF 0xB5 SWAP10 PUSH29 0x63B688FEC31920CAD970F147B65FC18F1F19E76E83794C05DE64736F6C PUSH4 0x4300081A STOP CALLER "
				},
				"gasEstimates": {
					"creation": {
						"codeDepositCost": "607600",
						"executionCost": "infinite",
						"totalCost": "infinite"
					},
					"external": {
						"Ben()": "2425",
						"Owner()": "2403",
						"Rick()": "2382",
						"Tom()": "2405",
						"allowance(address,address)": "infinite",
						"approve(address,uint256)": "24651",
						"balanceOf(address)": "2563",
						"decimals()": "244",
						"decreaseAllowance(address,uint256)": "27039",
						"giveStartTokensToUsers(uint256)": "infinite",
						"increaseAllowance(address,uint256)": "infinite",
						"mint(address,uint256)": "50916",
						"name()": "infinite",
						"symbol()": "infinite",
						"totalSupply()": "2371",
						"transfer(address,uint256)": "51094",
						"transferFrom(address,address,uint256)": "infinite",
						"transferTokens(address,address,uint256)": "infinite"
					}
				},
				"methodIdentifiers": {
					"Ben()": "d616f1bd",
					"Owner()": "b4a99a4e",
					"Rick()": "70d20fde",
					"Tom()": "0b8b4b24",
					"allowance(address,address)": "dd62ed3e",
					"approve(address,uint256)": "095ea7b3",
					"balanceOf(address)": "70a08231",
					"decimals()": "313ce567",
					"decreaseAllowance(address,uint256)": "a457c2d7",
					"giveStartTokensToUsers(uint256)": "266e588c",
					"increaseAllowance(address,uint256)": "39509351",
					"mint(address,uint256)": "40c10f19",
					"name()": "06fdde03",
					"symbol()": "95d89b41",
					"totalSupply()": "18160ddd",
					"transfer(address,uint256)": "a9059cbb",
					"transferFrom(address,address,uint256)": "23b872dd",
					"transferTokens(address,address,uint256)": "a64b6e5f"
				}
			},
			"storageLayout": {
				"storage": [
					{
						"astId": 128,
						"contract": "fixcontract/Token.sol:Token",
						"label": "_balances",
						"offset": 0,
						"slot": "0",
						"type": "t_mapping(t_address,t_uint256)"
					},
					{
						"astId": 134,
						"contract": "fixcontract/Token.sol:Token",
						"label": "_allowances",
						"offset": 0,
						"slot": "1",
						"type": "t_mapping(t_address,t_mapping(t_address,t_uint256))"
					},
					{
						"astId": 136,
						"contract": "fixcontract/Token.sol:Token",
						"label": "_totalSupply",
						"offset": 0,
						"slot": "2",
						"type": "t_uint256"
					},
					{
						"astId": 138,
						"contract": "fixcontract/Token.sol:Token",
						"label": "_name",
						"offset": 0,
						"slot": "3",
						"type": "t_string_storage"
					},
					{
						"astId": 140,
						"contract": "fixcontract/Token.sol:Token",
						"label": "_symbol",
						"offset": 0,
						"slot": "4",
						"type": "t_string_storage"
					},
					{
						"astId": 706,
						"contract": "fixcontract/Token.sol:Token",
						"label": "Owner",
						"offset": 0,
						"slot": "5",
						"type": "t_address"
					},
					{
						"astId": 709,
						"contract": "fixcontract/Token.sol:Token",
						"label": "Tom",
						"offset": 0,
						"slot": "6",
						"type": "t_address"
					},
					{
						"astId": 712,
						"contract": "fixcontract/Token.sol:Token",
						"label": "Ben",
						"offset": 0,
						"slot": "7",
						"type": "t_address"
					},
					{
						"astId": 715,
						"contract": "fixcontract/Token.sol:Token",
						"label": "Rick",
						"offset": 0,
						"slot": "8",
						"type": "t_address"
					}
				],
				"types": {
					"t_address": {
						"encoding": "inplace",
						"label": "address",
						"numberOfBytes": "20"
					},
					"t_mapping(t_address,t_mapping(t_address,t_uint256))": {
						"encoding": "mapping",
						"key": "t_address",
						"label": "mapping(address => mapping(address => uint256))",
						"numberOfBytes": "32",
						"value": "t_mapping(t_address,t_uint256)"
					},
					"t_mapping(t_address,t_uint256)": {
						"encoding": "mapping",
						"key": "t_address",
						"label": "mapping(address => uint256)",
						"numberOfBytes": "32",
						"value": "t_uint256"
					},
					"t_string_storage": {
						"encoding": "bytes",
						"label": "string",
						"numberOfBytes": "32"
					},
					"t_uint256": {
						"encoding": "inplace",
						"label": "uint256",
						"numberOfBytes": "32"
					}
				}
			},
			"userdoc": {
				"kind": "user",
				"methods": {},
				"version": 1
			}
		}
	}
}