{
	"data": {
		"bytecode": {
			"linkReferences": {},
			"object": "6080604052600080546001600160a01b0319908116736f5c8cfc8fc4ff2c003d5d4dfe6673f23e17ee4c1790915560018054821673e40ec4fbd2dd72ca3e9a825b570c2182370d05691790556002805490911673b0c9eb3164e940df84fddc65167aa00aa466ae5b17905568043a77aabd0078000060045534801561008357600080fd5b506040516110053803806110058339810160408190526100a2916100c7565b600380546001600160a01b0319166001600160a01b03929092169190911790556100f7565b6000602082840312156100d957600080fd5b81516001600160a01b03811681146100f057600080fd5b9392505050565b610eff806101066000396000f3fe608060405234801561001057600080fd5b50600436106101005760003560e01c806370d20fde116100975780638f10369a116100665780638f10369a146101e4578063b51b0d3914610190578063b706e6d4146101ed578063d616f1bd146101f657600080fd5b806370d20fde146101ac57806372b0eef8146101bf578063842b1118146101c85780638d4f3b20146101d157600080fd5b80633e43dfc0116100d35780633e43dfc01461016a5780635dd263c01461017d578063611ade4f1461019057806365c0c1be146101a357600080fd5b80630b8b4b24146101055780632ad2e08c146101355780632d9aa3071461014a5780633c61701214610161575b600080fd5b600054610118906001600160a01b031681565b6040516001600160a01b0390911681526020015b60405180910390f35b610148610143366004610c8e565b610209565b005b61015360095481565b60405190815260200161012c565b61015360085481565b610148610178366004610c8e565b610562565b61014861018b366004610cb0565b61089e565b61015361019e366004610c8e565b610ba2565b61015360065481565b600254610118906001600160a01b031681565b61015360055481565b61015360075481565b6101536101df366004610c8e565b610c17565b61015360045481565b610153600a5481565b600154610118906001600160a01b031681565b6001546000906001600160a01b03908116908316036102d757606462278d00600654426102369190610cf2565b6102409190610d05565b61024b906005610d27565b6102559190610d05565b600954600a546008546102689190610d3e565b6102729190610d3e565b61027d906001610d3e565b60095461028a9190610d05565b60045460065461029a9042610cf2565b6009546102a79190610d27565b6102b19190610d27565b6102bb9190610d27565b6102c59190610d27565b6102d0906001610d3e565b4260065590505b6000546001600160a01b03908116908316036103a257606462278d00600554426103019190610cf2565b61030b9190610d05565b610316906005610d27565b6103209190610d05565b600954600a546008546103339190610d3e565b61033d9190610d3e565b610348906001610d3e565b6008546103559190610d05565b6004546005546103659042610cf2565b6008546103729190610d27565b61037c9190610d27565b6103869190610d27565b6103909190610d27565b61039b906001610d3e565b4260055590505b6002546001600160a01b039081169083160361046d57606462278d00600754426103cc9190610cf2565b6103d69190610d05565b6103e1906005610d27565b6103eb9190610d05565b600954600a546008546103fe9190610d3e565b6104089190610d3e565b610413906001610d3e565b600a546104209190610d05565b6004546007546104309042610cf2565b600a5461043d9190610d27565b6104479190610d27565b6104519190610d27565b61045b9190610d27565b610466906001610d3e565b4260075590505b6003546040805163313ce56760e01b815290516001600160a01b039092169163a64b6e5f9130918691859163313ce567916004808201926020929091908290030181865afa1580156104c3573d6000803e3d6000fd5b505050506040513d601f19601f820116820180604052508101906104e79190610d51565b6104f290600a610e5b565b6104fc9086610d27565b6040518463ffffffff1660e01b815260040161051a93929190610e6a565b6020604051808303816000875af1158015610539573d6000803e3d6000fd5b505050506040513d601f19601f8201168201806040525081019061055d9190610e8e565b505050565b6001546001600160a01b0390811690821603610675576003546001546040805163313ce56760e01b815290516001600160a01b039384169363a64b6e5f933093911691859163313ce5679160048083019260209291908290030181865afa1580156105d1573d6000803e3d6000fd5b505050506040513d601f19601f820116820180604052508101906105f59190610d51565b61060090600a610e5b565b60095461060d9190610d27565b6040518463ffffffff1660e01b815260040161062b93929190610e6a565b6020604051808303816000875af115801561064a573d6000803e3d6000fd5b505050506040513d601f19601f8201168201806040525081019061066e9190610e8e565b5060006009555b6000546001600160a01b0390811690821603610788576003546000546040805163313ce56760e01b815290516001600160a01b039384169363a64b6e5f933093911691859163313ce5679160048083019260209291908290030181865afa1580156106e4573d6000803e3d6000fd5b505050506040513d601f19601f820116820180604052508101906107089190610d51565b61071390600a610e5b565b6008546107209190610d27565b6040518463ffffffff1660e01b815260040161073e93929190610e6a565b6020604051808303816000875af115801561075d573d6000803e3d6000fd5b505050506040513d601f19601f820116820180604052508101906107819190610e8e565b5060006008555b6002546001600160a01b039081169082160361089b576003546002546040805163313ce56760e01b815290516001600160a01b039384169363a64b6e5f933093911691859163313ce5679160048083019260209291908290030181865afa1580156107f7573d6000803e3d6000fd5b505050506040513d601f19601f8201168201806040525081019061081b9190610d51565b61082690600a610e5b565b600a546108339190610d27565b6040518463ffffffff1660e01b815260040161085193929190610e6a565b6020604051808303816000875af1158015610870573d6000803e3d6000fd5b505050506040513d601f19601f820116820180604052508101906108949190610e8e565b506000600a555b50565b6001546001600160a01b03908116908216036109bf5781600960008282546108c69190610d3e565b90915550506003546001546040805163313ce56760e01b815290516001600160a01b039384169363a64b6e5f9316913091859163313ce5679160048083019260209291908290030181865afa158015610923573d6000803e3d6000fd5b505050506040513d601f19601f820116820180604052508101906109479190610d51565b61095290600a610e5b565b61095c9087610d27565b6040518463ffffffff1660e01b815260040161097a93929190610e6a565b6020604051808303816000875af1158015610999573d6000803e3d6000fd5b505050506040513d601f19601f820116820180604052508101906109bd9190610e8e565b505b6000546001600160a01b0390811690821603610ae05781600860008282546109e79190610d3e565b90915550506003546000546040805163313ce56760e01b815290516001600160a01b039384169363a64b6e5f9316913091859163313ce5679160048083019260209291908290030181865afa158015610a44573d6000803e3d6000fd5b505050506040513d601f19601f82011682018060405250810190610a689190610d51565b610a7390600a610e5b565b610a7d9087610d27565b6040518463ffffffff1660e01b8152600401610a9b93929190610e6a565b6020604051808303816000875af1158015610aba573d6000803e3d6000fd5b505050506040513d601f19601f82011682018060405250810190610ade9190610e8e565b505b6002546001600160a01b0390811690821603610b9e5781600a6000828254610b089190610d3e565b90915550506003546002546040805163313ce56760e01b815290516001600160a01b039384169363a64b6e5f9316913091859163313ce5679160048083019260209291908290030181865afa158015610b65573d6000803e3d6000fd5b505050506040513d601f19601f82011682018060405250810190610b899190610d51565b610b9490600a610e5b565b6104fc9087610d27565b5050565b6003546040516370a0823160e01b81526001600160a01b03838116600483015260009216906370a0823190602401602060405180830381865afa158015610bed573d6000803e3d6000fd5b505050506040513d601f19601f82011682018060405250810190610c119190610eb0565b92915050565b600080546001600160a01b0390811690831603610c3657505060085490565b6001546001600160a01b0390811690831603610c5457505060095490565b6002546001600160a01b0390811690831603610c72575050600a5490565b919050565b80356001600160a01b0381168114610c7257600080fd5b600060208284031215610ca057600080fd5b610ca982610c77565b9392505050565b60008060408385031215610cc357600080fd5b82359150610cd360208401610c77565b90509250929050565b634e487b7160e01b600052601160045260246000fd5b81810381811115610c1157610c11610cdc565b600082610d2257634e487b7160e01b600052601260045260246000fd5b500490565b8082028115828204841417610c1157610c11610cdc565b80820180821115610c1157610c11610cdc565b600060208284031215610d6357600080fd5b815160ff81168114610ca957600080fd5b6001815b6001841115610daf57808504811115610d9357610d93610cdc565b6001841615610da157908102905b60019390931c928002610d78565b935093915050565b600082610dc657506001610c11565b81610dd357506000610c11565b8160018114610de95760028114610df357610e0f565b6001915050610c11565b60ff841115610e0457610e04610cdc565b50506001821b610c11565b5060208310610133831016604e8410600b8410161715610e32575081810a610c11565b610e3f6000198484610d74565b8060001904821115610e5357610e53610cdc565b029392505050565b6000610ca960ff841683610db7565b6001600160a01b039384168152919092166020820152604081019190915260600190565b600060208284031215610ea057600080fd5b81518015158114610ca957600080fd5b600060208284031215610ec257600080fd5b505191905056fea264697066735822122041fa8ae9cc3b427bfc869a13b2bc12b6a65c46433b16fae73797d585ce7d921764736f6c634300081a0033",
			"opcodes": "PUSH1 0x80 PUSH1 0x40 MSTORE PUSH1 0x0 DUP1 SLOAD PUSH1 0x1 PUSH1 0x1 PUSH1 0xA0 SHL SUB NOT SWAP1 DUP2 AND PUSH20 0x6F5C8CFC8FC4FF2C003D5D4DFE6673F23E17EE4C OR SWAP1 SWAP2 SSTORE PUSH1 0x1 DUP1 SLOAD DUP3 AND PUSH20 0xE40EC4FBD2DD72CA3E9A825B570C2182370D0569 OR SWAP1 SSTORE PUSH1 0x2 DUP1 SLOAD SWAP1 SWAP2 AND PUSH20 0xB0C9EB3164E940DF84FDDC65167AA00AA466AE5B OR SWAP1 SSTORE PUSH9 0x43A77AABD00780000 PUSH1 0x4 SSTORE CALLVALUE DUP1 ISZERO PUSH2 0x83 JUMPI PUSH1 0x0 DUP1 REVERT JUMPDEST POP PUSH1 0x40 MLOAD PUSH2 0x1005 CODESIZE SUB DUP1 PUSH2 0x1005 DUP4 CODECOPY DUP2 ADD PUSH1 0x40 DUP2 SWAP1 MSTORE PUSH2 0xA2 SWAP2 PUSH2 0xC7 JUMP JUMPDEST PUSH1 0x3 DUP1 SLOAD PUSH1 0x1 PUSH1 0x1 PUSH1 0xA0 SHL SUB NOT AND PUSH1 0x1 PUSH1 0x1 PUSH1 0xA0 SHL SUB SWAP3 SWAP1 SWAP3 AND SWAP2 SWAP1 SWAP2 OR SWAP1 SSTORE PUSH2 0xF7 JUMP JUMPDEST PUSH1 0x0 PUSH1 0x20 DUP3 DUP5 SUB SLT ISZERO PUSH2 0xD9 JUMPI PUSH1 0x0 DUP1 REVERT JUMPDEST DUP2 MLOAD PUSH1 0x1 PUSH1 0x1 PUSH1 0xA0 SHL SUB DUP2 AND DUP2 EQ PUSH2 0xF0 JUMPI PUSH1 0x0 DUP1 REVERT JUMPDEST SWAP4 SWAP3 POP POP POP JUMP JUMPDEST PUSH2 0xEFF DUP1 PUSH2 0x106 PUSH1 0x0 CODECOPY PUSH1 0x0 RETURN INVALID PUSH1 0x80 PUSH1 0x40 MSTORE CALLVALUE DUP1 ISZERO PUSH2 0x10 JUMPI PUSH1 0x0 DUP1 REVERT JUMPDEST POP PUSH1 0x4 CALLDATASIZE LT PUSH2 0x100 JUMPI PUSH1 0x0 CALLDATALOAD PUSH1 0xE0 SHR DUP1 PUSH4 0x70D20FDE GT PUSH2 0x97 JUMPI DUP1 PUSH4 0x8F10369A GT PUSH2 0x66 JUMPI DUP1 PUSH4 0x8F10369A EQ PUSH2 0x1E4 JUMPI DUP1 PUSH4 0xB51B0D39 EQ PUSH2 0x190 JUMPI DUP1 PUSH4 0xB706E6D4 EQ PUSH2 0x1ED JUMPI DUP1 PUSH4 0xD616F1BD EQ PUSH2 0x1F6 JUMPI PUSH1 0x0 DUP1 REVERT JUMPDEST DUP1 PUSH4 0x70D20FDE EQ PUSH2 0x1AC JUMPI DUP1 PUSH4 0x72B0EEF8 EQ PUSH2 0x1BF JUMPI DUP1 PUSH4 0x842B1118 EQ PUSH2 0x1C8 JUMPI DUP1 PUSH4 0x8D4F3B20 EQ PUSH2 0x1D1 JUMPI PUSH1 0x0 DUP1 REVERT JUMPDEST DUP1 PUSH4 0x3E43DFC0 GT PUSH2 0xD3 JUMPI DUP1 PUSH4 0x3E43DFC0 EQ PUSH2 0x16A JUMPI DUP1 PUSH4 0x5DD263C0 EQ PUSH2 0x17D JUMPI DUP1 PUSH4 0x611ADE4F EQ PUSH2 0x190 JUMPI DUP1 PUSH4 0x65C0C1BE EQ PUSH2 0x1A3 JUMPI PUSH1 0x0 DUP1 REVERT JUMPDEST DUP1 PUSH4 0xB8B4B24 EQ PUSH2 0x105 JUMPI DUP1 PUSH4 0x2AD2E08C EQ PUSH2 0x135 JUMPI DUP1 PUSH4 0x2D9AA307 EQ PUSH2 0x14A JUMPI DUP1 PUSH4 0x3C617012 EQ PUSH2 0x161 JUMPI JUMPDEST PUSH1 0x0 DUP1 REVERT JUMPDEST PUSH1 0x0 SLOAD PUSH2 0x118 SWAP1 PUSH1 0x1 PUSH1 0x1 PUSH1 0xA0 SHL SUB AND DUP2 JUMP JUMPDEST PUSH1 0x40 MLOAD PUSH1 0x1 PUSH1 0x1 PUSH1 0xA0 SHL SUB SWAP1 SWAP2 AND DUP2 MSTORE PUSH1 0x20 ADD JUMPDEST PUSH1 0x40 MLOAD DUP1 SWAP2 SUB SWAP1 RETURN JUMPDEST PUSH2 0x148 PUSH2 0x143 CALLDATASIZE PUSH1 0x4 PUSH2 0xC8E JUMP JUMPDEST PUSH2 0x209 JUMP JUMPDEST STOP JUMPDEST PUSH2 0x153 PUSH1 0x9 SLOAD DUP2 JUMP JUMPDEST PUSH1 0x40 MLOAD SWAP1 DUP2 MSTORE PUSH1 0x20 ADD PUSH2 0x12C JUMP JUMPDEST PUSH2 0x153 PUSH1 0x8 SLOAD DUP2 JUMP JUMPDEST PUSH2 0x148 PUSH2 0x178 CALLDATASIZE PUSH1 0x4 PUSH2 0xC8E JUMP JUMPDEST PUSH2 0x562 JUMP JUMPDEST PUSH2 0x148 PUSH2 0x18B CALLDATASIZE PUSH1 0x4 PUSH2 0xCB0 JUMP JUMPDEST PUSH2 0x89E JUMP JUMPDEST PUSH2 0x153 PUSH2 0x19E CALLDATASIZE PUSH1 0x4 PUSH2 0xC8E JUMP JUMPDEST PUSH2 0xBA2 JUMP JUMPDEST PUSH2 0x153 PUSH1 0x6 SLOAD DUP2 JUMP JUMPDEST PUSH1 0x2 SLOAD PUSH2 0x118 SWAP1 PUSH1 0x1 PUSH1 0x1 PUSH1 0xA0 SHL SUB AND DUP2 JUMP JUMPDEST PUSH2 0x153 PUSH1 0x5 SLOAD DUP2 JUMP JUMPDEST PUSH2 0x153 PUSH1 0x7 SLOAD DUP2 JUMP JUMPDEST PUSH2 0x153 PUSH2 0x1DF CALLDATASIZE PUSH1 0x4 PUSH2 0xC8E JUMP JUMPDEST PUSH2 0xC17 JUMP JUMPDEST PUSH2 0x153 PUSH1 0x4 SLOAD DUP2 JUMP JUMPDEST PUSH2 0x153 PUSH1 0xA SLOAD DUP2 JUMP JUMPDEST PUSH1 0x1 SLOAD PUSH2 0x118 SWAP1 PUSH1 0x1 PUSH1 0x1 PUSH1 0xA0 SHL SUB AND DUP2 JUMP JUMPDEST PUSH1 0x1 SLOAD PUSH1 0x0 SWAP1 PUSH1 0x1 PUSH1 0x1 PUSH1 0xA0 SHL SUB SWAP1 DUP2 AND SWAP1 DUP4 AND SUB PUSH2 0x2D7 JUMPI PUSH1 0x64 PUSH3 0x278D00 PUSH1 0x6 SLOAD TIMESTAMP PUSH2 0x236 SWAP2 SWAP1 PUSH2 0xCF2 JUMP JUMPDEST PUSH2 0x240 SWAP2 SWAP1 PUSH2 0xD05 JUMP JUMPDEST PUSH2 0x24B SWAP1 PUSH1 0x5 PUSH2 0xD27 JUMP JUMPDEST PUSH2 0x255 SWAP2 SWAP1 PUSH2 0xD05 JUMP JUMPDEST PUSH1 0x9 SLOAD PUSH1 0xA SLOAD PUSH1 0x8 SLOAD PUSH2 0x268 SWAP2 SWAP1 PUSH2 0xD3E JUMP JUMPDEST PUSH2 0x272 SWAP2 SWAP1 PUSH2 0xD3E JUMP JUMPDEST PUSH2 0x27D SWAP1 PUSH1 0x1 PUSH2 0xD3E JUMP JUMPDEST PUSH1 0x9 SLOAD PUSH2 0x28A SWAP2 SWAP1 PUSH2 0xD05 JUMP JUMPDEST PUSH1 0x4 SLOAD PUSH1 0x6 SLOAD PUSH2 0x29A SWAP1 TIMESTAMP PUSH2 0xCF2 JUMP JUMPDEST PUSH1 0x9 SLOAD PUSH2 0x2A7 SWAP2 SWAP1 PUSH2 0xD27 JUMP JUMPDEST PUSH2 0x2B1 SWAP2 SWAP1 PUSH2 0xD27 JUMP JUMPDEST PUSH2 0x2BB SWAP2 SWAP1 PUSH2 0xD27 JUMP JUMPDEST PUSH2 0x2C5 SWAP2 SWAP1 PUSH2 0xD27 JUMP JUMPDEST PUSH2 0x2D0 SWAP1 PUSH1 0x1 PUSH2 0xD3E JUMP JUMPDEST TIMESTAMP PUSH1 0x6 SSTORE SWAP1 POP JUMPDEST PUSH1 0x0 SLOAD PUSH1 0x1 PUSH1 0x1 PUSH1 0xA0 SHL SUB SWAP1 DUP2 AND SWAP1 DUP4 AND SUB PUSH2 0x3A2 JUMPI PUSH1 0x64 PUSH3 0x278D00 PUSH1 0x5 SLOAD TIMESTAMP PUSH2 0x301 SWAP2 SWAP1 PUSH2 0xCF2 JUMP JUMPDEST PUSH2 0x30B SWAP2 SWAP1 PUSH2 0xD05 JUMP JUMPDEST PUSH2 0x316 SWAP1 PUSH1 0x5 PUSH2 0xD27 JUMP JUMPDEST PUSH2 0x320 SWAP2 SWAP1 PUSH2 0xD05 JUMP JUMPDEST PUSH1 0x9 SLOAD PUSH1 0xA SLOAD PUSH1 0x8 SLOAD PUSH2 0x333 SWAP2 SWAP1 PUSH2 0xD3E JUMP JUMPDEST PUSH2 0x33D SWAP2 SWAP1 PUSH2 0xD3E JUMP JUMPDEST PUSH2 0x348 SWAP1 PUSH1 0x1 PUSH2 0xD3E JUMP JUMPDEST PUSH1 0x8 SLOAD PUSH2 0x355 SWAP2 SWAP1 PUSH2 0xD05 JUMP JUMPDEST PUSH1 0x4 SLOAD PUSH1 0x5 SLOAD PUSH2 0x365 SWAP1 TIMESTAMP PUSH2 0xCF2 JUMP JUMPDEST PUSH1 0x8 SLOAD PUSH2 0x372 SWAP2 SWAP1 PUSH2 0xD27 JUMP JUMPDEST PUSH2 0x37C SWAP2 SWAP1 PUSH2 0xD27 JUMP JUMPDEST PUSH2 0x386 SWAP2 SWAP1 PUSH2 0xD27 JUMP JUMPDEST PUSH2 0x390 SWAP2 SWAP1 PUSH2 0xD27 JUMP JUMPDEST PUSH2 0x39B SWAP1 PUSH1 0x1 PUSH2 0xD3E JUMP JUMPDEST TIMESTAMP PUSH1 0x5 SSTORE SWAP1 POP JUMPDEST PUSH1 0x2 SLOAD PUSH1 0x1 PUSH1 0x1 PUSH1 0xA0 SHL SUB SWAP1 DUP2 AND SWAP1 DUP4 AND SUB PUSH2 0x46D JUMPI PUSH1 0x64 PUSH3 0x278D00 PUSH1 0x7 SLOAD TIMESTAMP PUSH2 0x3CC SWAP2 SWAP1 PUSH2 0xCF2 JUMP JUMPDEST PUSH2 0x3D6 SWAP2 SWAP1 PUSH2 0xD05 JUMP JUMPDEST PUSH2 0x3E1 SWAP1 PUSH1 0x5 PUSH2 0xD27 JUMP JUMPDEST PUSH2 0x3EB SWAP2 SWAP1 PUSH2 0xD05 JUMP JUMPDEST PUSH1 0x9 SLOAD PUSH1 0xA SLOAD PUSH1 0x8 SLOAD PUSH2 0x3FE SWAP2 SWAP1 PUSH2 0xD3E JUMP JUMPDEST PUSH2 0x408 SWAP2 SWAP1 PUSH2 0xD3E JUMP JUMPDEST PUSH2 0x413 SWAP1 PUSH1 0x1 PUSH2 0xD3E JUMP JUMPDEST PUSH1 0xA SLOAD PUSH2 0x420 SWAP2 SWAP1 PUSH2 0xD05 JUMP JUMPDEST PUSH1 0x4 SLOAD PUSH1 0x7 SLOAD PUSH2 0x430 SWAP1 TIMESTAMP PUSH2 0xCF2 JUMP JUMPDEST PUSH1 0xA SLOAD PUSH2 0x43D SWAP2 SWAP1 PUSH2 0xD27 JUMP JUMPDEST PUSH2 0x447 SWAP2 SWAP1 PUSH2 0xD27 JUMP JUMPDEST PUSH2 0x451 SWAP2 SWAP1 PUSH2 0xD27 JUMP JUMPDEST PUSH2 0x45B SWAP2 SWAP1 PUSH2 0xD27 JUMP JUMPDEST PUSH2 0x466 SWAP1 PUSH1 0x1 PUSH2 0xD3E JUMP JUMPDEST TIMESTAMP PUSH1 0x7 SSTORE SWAP1 POP JUMPDEST PUSH1 0x3 SLOAD PUSH1 0x40 DUP1 MLOAD PUSH4 0x313CE567 PUSH1 0xE0 SHL DUP2 MSTORE SWAP1 MLOAD PUSH1 0x1 PUSH1 0x1 PUSH1 0xA0 SHL SUB SWAP1 SWAP3 AND SWAP2 PUSH4 0xA64B6E5F SWAP2 ADDRESS SWAP2 DUP7 SWAP2 DUP6 SWAP2 PUSH4 0x313CE567 SWAP2 PUSH1 0x4 DUP1 DUP3 ADD SWAP3 PUSH1 0x20 SWAP3 SWAP1 SWAP2 SWAP1 DUP3 SWAP1 SUB ADD DUP2 DUP7 GAS STATICCALL ISZERO DUP1 ISZERO PUSH2 0x4C3 JUMPI RETURNDATASIZE PUSH1 0x0 DUP1 RETURNDATACOPY RETURNDATASIZE PUSH1 0x0 REVERT JUMPDEST POP POP POP POP PUSH1 0x40 MLOAD RETURNDATASIZE PUSH1 0x1F NOT PUSH1 0x1F DUP3 ADD AND DUP3 ADD DUP1 PUSH1 0x40 MSTORE POP DUP2 ADD SWAP1 PUSH2 0x4E7 SWAP2 SWAP1 PUSH2 0xD51 JUMP JUMPDEST PUSH2 0x4F2 SWAP1 PUSH1 0xA PUSH2 0xE5B JUMP JUMPDEST PUSH2 0x4FC SWAP1 DUP7 PUSH2 0xD27 JUMP JUMPDEST PUSH1 0x40 MLOAD DUP5 PUSH4 0xFFFFFFFF AND PUSH1 0xE0 SHL DUP2 MSTORE PUSH1 0x4 ADD PUSH2 0x51A SWAP4 SWAP3 SWAP2 SWAP1 PUSH2 0xE6A JUMP JUMPDEST PUSH1 0x20 PUSH1 0x40 MLOAD DUP1 DUP4 SUB DUP2 PUSH1 0x0 DUP8 GAS CALL ISZERO DUP1 ISZERO PUSH2 0x539 JUMPI RETURNDATASIZE PUSH1 0x0 DUP1 RETURNDATACOPY RETURNDATASIZE PUSH1 0x0 REVERT JUMPDEST POP POP POP POP PUSH1 0x40 MLOAD RETURNDATASIZE PUSH1 0x1F NOT PUSH1 0x1F DUP3 ADD AND DUP3 ADD DUP1 PUSH1 0x40 MSTORE POP DUP2 ADD SWAP1 PUSH2 0x55D SWAP2 SWAP1 PUSH2 0xE8E JUMP JUMPDEST POP POP POP JUMP JUMPDEST PUSH1 0x1 SLOAD PUSH1 0x1 PUSH1 0x1 PUSH1 0xA0 SHL SUB SWAP1 DUP2 AND SWAP1 DUP3 AND SUB PUSH2 0x675 JUMPI PUSH1 0x3 SLOAD PUSH1 0x1 SLOAD PUSH1 0x40 DUP1 MLOAD PUSH4 0x313CE567 PUSH1 0xE0 SHL DUP2 MSTORE SWAP1 MLOAD PUSH1 0x1 PUSH1 0x1 PUSH1 0xA0 SHL SUB SWAP4 DUP5 AND SWAP4 PUSH4 0xA64B6E5F SWAP4 ADDRESS SWAP4 SWAP2 AND SWAP2 DUP6 SWAP2 PUSH4 0x313CE567 SWAP2 PUSH1 0x4 DUP1 DUP4 ADD SWAP3 PUSH1 0x20 SWAP3 SWAP2 SWAP1 DUP3 SWAP1 SUB ADD DUP2 DUP7 GAS STATICCALL ISZERO DUP1 ISZERO PUSH2 0x5D1 JUMPI RETURNDATASIZE PUSH1 0x0 DUP1 RETURNDATACOPY RETURNDATASIZE PUSH1 0x0 REVERT JUMPDEST POP POP POP POP PUSH1 0x40 MLOAD RETURNDATASIZE PUSH1 0x1F NOT PUSH1 0x1F DUP3 ADD AND DUP3 ADD DUP1 PUSH1 0x40 MSTORE POP DUP2 ADD SWAP1 PUSH2 0x5F5 SWAP2 SWAP1 PUSH2 0xD51 JUMP JUMPDEST PUSH2 0x600 SWAP1 PUSH1 0xA PUSH2 0xE5B JUMP JUMPDEST PUSH1 0x9 SLOAD PUSH2 0x60D SWAP2 SWAP1 PUSH2 0xD27 JUMP JUMPDEST PUSH1 0x40 MLOAD DUP5 PUSH4 0xFFFFFFFF AND PUSH1 0xE0 SHL DUP2 MSTORE PUSH1 0x4 ADD PUSH2 0x62B SWAP4 SWAP3 SWAP2 SWAP1 PUSH2 0xE6A JUMP JUMPDEST PUSH1 0x20 PUSH1 0x40 MLOAD DUP1 DUP4 SUB DUP2 PUSH1 0x0 DUP8 GAS CALL ISZERO DUP1 ISZERO PUSH2 0x64A JUMPI RETURNDATASIZE PUSH1 0x0 DUP1 RETURNDATACOPY RETURNDATASIZE PUSH1 0x0 REVERT JUMPDEST POP POP POP POP PUSH1 0x40 MLOAD RETURNDATASIZE PUSH1 0x1F NOT PUSH1 0x1F DUP3 ADD AND DUP3 ADD DUP1 PUSH1 0x40 MSTORE POP DUP2 ADD SWAP1 PUSH2 0x66E SWAP2 SWAP1 PUSH2 0xE8E JUMP JUMPDEST POP PUSH1 0x0 PUSH1 0x9 SSTORE JUMPDEST PUSH1 0x0 SLOAD PUSH1 0x1 PUSH1 0x1 PUSH1 0xA0 SHL SUB SWAP1 DUP2 AND SWAP1 DUP3 AND SUB PUSH2 0x788 JUMPI PUSH1 0x3 SLOAD PUSH1 0x0 SLOAD PUSH1 0x40 DUP1 MLOAD PUSH4 0x313CE567 PUSH1 0xE0 SHL DUP2 MSTORE SWAP1 MLOAD PUSH1 0x1 PUSH1 0x1 PUSH1 0xA0 SHL SUB SWAP4 DUP5 AND SWAP4 PUSH4 0xA64B6E5F SWAP4 ADDRESS SWAP4 SWAP2 AND SWAP2 DUP6 SWAP2 PUSH4 0x313CE567 SWAP2 PUSH1 0x4 DUP1 DUP4 ADD SWAP3 PUSH1 0x20 SWAP3 SWAP2 SWAP1 DUP3 SWAP1 SUB ADD DUP2 DUP7 GAS STATICCALL ISZERO DUP1 ISZERO PUSH2 0x6E4 JUMPI RETURNDATASIZE PUSH1 0x0 DUP1 RETURNDATACOPY RETURNDATASIZE PUSH1 0x0 REVERT JUMPDEST POP POP POP POP PUSH1 0x40 MLOAD RETURNDATASIZE PUSH1 0x1F NOT PUSH1 0x1F DUP3 ADD AND DUP3 ADD DUP1 PUSH1 0x40 MSTORE POP DUP2 ADD SWAP1 PUSH2 0x708 SWAP2 SWAP1 PUSH2 0xD51 JUMP JUMPDEST PUSH2 0x713 SWAP1 PUSH1 0xA PUSH2 0xE5B JUMP JUMPDEST PUSH1 0x8 SLOAD PUSH2 0x720 SWAP2 SWAP1 PUSH2 0xD27 JUMP JUMPDEST PUSH1 0x40 MLOAD DUP5 PUSH4 0xFFFFFFFF AND PUSH1 0xE0 SHL DUP2 MSTORE PUSH1 0x4 ADD PUSH2 0x73E SWAP4 SWAP3 SWAP2 SWAP1 PUSH2 0xE6A JUMP JUMPDEST PUSH1 0x20 PUSH1 0x40 MLOAD DUP1 DUP4 SUB DUP2 PUSH1 0x0 DUP8 GAS CALL ISZERO DUP1 ISZERO PUSH2 0x75D JUMPI RETURNDATASIZE PUSH1 0x0 DUP1 RETURNDATACOPY RETURNDATASIZE PUSH1 0x0 REVERT JUMPDEST POP POP POP POP PUSH1 0x40 MLOAD RETURNDATASIZE PUSH1 0x1F NOT PUSH1 0x1F DUP3 ADD AND DUP3 ADD DUP1 PUSH1 0x40 MSTORE POP DUP2 ADD SWAP1 PUSH2 0x781 SWAP2 SWAP1 PUSH2 0xE8E JUMP JUMPDEST POP PUSH1 0x0 PUSH1 0x8 SSTORE JUMPDEST PUSH1 0x2 SLOAD PUSH1 0x1 PUSH1 0x1 PUSH1 0xA0 SHL SUB SWAP1 DUP2 AND SWAP1 DUP3 AND SUB PUSH2 0x89B JUMPI PUSH1 0x3 SLOAD PUSH1 0x2 SLOAD PUSH1 0x40 DUP1 MLOAD PUSH4 0x313CE567 PUSH1 0xE0 SHL DUP2 MSTORE SWAP1 MLOAD PUSH1 0x1 PUSH1 0x1 PUSH1 0xA0 SHL SUB SWAP4 DUP5 AND SWAP4 PUSH4 0xA64B6E5F SWAP4 ADDRESS SWAP4 SWAP2 AND SWAP2 DUP6 SWAP2 PUSH4 0x313CE567 SWAP2 PUSH1 0x4 DUP1 DUP4 ADD SWAP3 PUSH1 0x20 SWAP3 SWAP2 SWAP1 DUP3 SWAP1 SUB ADD DUP2 DUP7 GAS STATICCALL ISZERO DUP1 ISZERO PUSH2 0x7F7 JUMPI RETURNDATASIZE PUSH1 0x0 DUP1 RETURNDATACOPY RETURNDATASIZE PUSH1 0x0 REVERT JUMPDEST POP POP POP POP PUSH1 0x40 MLOAD RETURNDATASIZE PUSH1 0x1F NOT PUSH1 0x1F DUP3 ADD AND DUP3 ADD DUP1 PUSH1 0x40 MSTORE POP DUP2 ADD SWAP1 PUSH2 0x81B SWAP2 SWAP1 PUSH2 0xD51 JUMP JUMPDEST PUSH2 0x826 SWAP1 PUSH1 0xA PUSH2 0xE5B JUMP JUMPDEST PUSH1 0xA SLOAD PUSH2 0x833 SWAP2 SWAP1 PUSH2 0xD27 JUMP JUMPDEST PUSH1 0x40 MLOAD DUP5 PUSH4 0xFFFFFFFF AND PUSH1 0xE0 SHL DUP2 MSTORE PUSH1 0x4 ADD PUSH2 0x851 SWAP4 SWAP3 SWAP2 SWAP1 PUSH2 0xE6A JUMP JUMPDEST PUSH1 0x20 PUSH1 0x40 MLOAD DUP1 DUP4 SUB DUP2 PUSH1 0x0 DUP8 GAS CALL ISZERO DUP1 ISZERO PUSH2 0x870 JUMPI RETURNDATASIZE PUSH1 0x0 DUP1 RETURNDATACOPY RETURNDATASIZE PUSH1 0x0 REVERT JUMPDEST POP POP POP POP PUSH1 0x40 MLOAD RETURNDATASIZE PUSH1 0x1F NOT PUSH1 0x1F DUP3 ADD AND DUP3 ADD DUP1 PUSH1 0x40 MSTORE POP DUP2 ADD SWAP1 PUSH2 0x894 SWAP2 SWAP1 PUSH2 0xE8E JUMP JUMPDEST POP PUSH1 0x0 PUSH1 0xA SSTORE JUMPDEST POP JUMP JUMPDEST PUSH1 0x1 SLOAD PUSH1 0x1 PUSH1 0x1 PUSH1 0xA0 SHL SUB SWAP1 DUP2 AND SWAP1 DUP3 AND SUB PUSH2 0x9BF JUMPI DUP2 PUSH1 0x9 PUSH1 0x0 DUP3 DUP3 SLOAD PUSH2 0x8C6 SWAP2 SWAP1 PUSH2 0xD3E JUMP JUMPDEST SWAP1 SWAP2 SSTORE POP POP PUSH1 0x3 SLOAD PUSH1 0x1 SLOAD PUSH1 0x40 DUP1 MLOAD PUSH4 0x313CE567 PUSH1 0xE0 SHL DUP2 MSTORE SWAP1 MLOAD PUSH1 0x1 PUSH1 0x1 PUSH1 0xA0 SHL SUB SWAP4 DUP5 AND SWAP4 PUSH4 0xA64B6E5F SWAP4 AND SWAP2 ADDRESS SWAP2 DUP6 SWAP2 PUSH4 0x313CE567 SWAP2 PUSH1 0x4 DUP1 DUP4 ADD SWAP3 PUSH1 0x20 SWAP3 SWAP2 SWAP1 DUP3 SWAP1 SUB ADD DUP2 DUP7 GAS STATICCALL ISZERO DUP1 ISZERO PUSH2 0x923 JUMPI RETURNDATASIZE PUSH1 0x0 DUP1 RETURNDATACOPY RETURNDATASIZE PUSH1 0x0 REVERT JUMPDEST POP POP POP POP PUSH1 0x40 MLOAD RETURNDATASIZE PUSH1 0x1F NOT PUSH1 0x1F DUP3 ADD AND DUP3 ADD DUP1 PUSH1 0x40 MSTORE POP DUP2 ADD SWAP1 PUSH2 0x947 SWAP2 SWAP1 PUSH2 0xD51 JUMP JUMPDEST PUSH2 0x952 SWAP1 PUSH1 0xA PUSH2 0xE5B JUMP JUMPDEST PUSH2 0x95C SWAP1 DUP8 PUSH2 0xD27 JUMP JUMPDEST PUSH1 0x40 MLOAD DUP5 PUSH4 0xFFFFFFFF AND PUSH1 0xE0 SHL DUP2 MSTORE PUSH1 0x4 ADD PUSH2 0x97A SWAP4 SWAP3 SWAP2 SWAP1 PUSH2 0xE6A JUMP JUMPDEST PUSH1 0x20 PUSH1 0x40 MLOAD DUP1 DUP4 SUB DUP2 PUSH1 0x0 DUP8 GAS CALL ISZERO DUP1 ISZERO PUSH2 0x999 JUMPI RETURNDATASIZE PUSH1 0x0 DUP1 RETURNDATACOPY RETURNDATASIZE PUSH1 0x0 REVERT JUMPDEST POP POP POP POP PUSH1 0x40 MLOAD RETURNDATASIZE PUSH1 0x1F NOT PUSH1 0x1F DUP3 ADD AND DUP3 ADD DUP1 PUSH1 0x40 MSTORE POP DUP2 ADD SWAP1 PUSH2 0x9BD SWAP2 SWAP1 PUSH2 0xE8E JUMP JUMPDEST POP JUMPDEST PUSH1 0x0 SLOAD PUSH1 0x1 PUSH1 0x1 PUSH1 0xA0 SHL SUB SWAP1 DUP2 AND SWAP1 DUP3 AND SUB PUSH2 0xAE0 JUMPI DUP2 PUSH1 0x8 PUSH1 0x0 DUP3 DUP3 SLOAD PUSH2 0x9E7 SWAP2 SWAP1 PUSH2 0xD3E JUMP JUMPDEST SWAP1 SWAP2 SSTORE POP POP PUSH1 0x3 SLOAD PUSH1 0x0 SLOAD PUSH1 0x40 DUP1 MLOAD PUSH4 0x313CE567 PUSH1 0xE0 SHL DUP2 MSTORE SWAP1 MLOAD PUSH1 0x1 PUSH1 0x1 PUSH1 0xA0 SHL SUB SWAP4 DUP5 AND SWAP4 PUSH4 0xA64B6E5F SWAP4 AND SWAP2 ADDRESS SWAP2 DUP6 SWAP2 PUSH4 0x313CE567 SWAP2 PUSH1 0x4 DUP1 DUP4 ADD SWAP3 PUSH1 0x20 SWAP3 SWAP2 SWAP1 DUP3 SWAP1 SUB ADD DUP2 DUP7 GAS STATICCALL ISZERO DUP1 ISZERO PUSH2 0xA44 JUMPI RETURNDATASIZE PUSH1 0x0 DUP1 RETURNDATACOPY RETURNDATASIZE PUSH1 0x0 REVERT JUMPDEST POP POP POP POP PUSH1 0x40 MLOAD RETURNDATASIZE PUSH1 0x1F NOT PUSH1 0x1F DUP3 ADD AND DUP3 ADD DUP1 PUSH1 0x40 MSTORE POP DUP2 ADD SWAP1 PUSH2 0xA68 SWAP2 SWAP1 PUSH2 0xD51 JUMP JUMPDEST PUSH2 0xA73 SWAP1 PUSH1 0xA PUSH2 0xE5B JUMP JUMPDEST PUSH2 0xA7D SWAP1 DUP8 PUSH2 0xD27 JUMP JUMPDEST PUSH1 0x40 MLOAD DUP5 PUSH4 0xFFFFFFFF AND PUSH1 0xE0 SHL DUP2 MSTORE PUSH1 0x4 ADD PUSH2 0xA9B SWAP4 SWAP3 SWAP2 SWAP1 PUSH2 0xE6A JUMP JUMPDEST PUSH1 0x20 PUSH1 0x40 MLOAD DUP1 DUP4 SUB DUP2 PUSH1 0x0 DUP8 GAS CALL ISZERO DUP1 ISZERO PUSH2 0xABA JUMPI RETURNDATASIZE PUSH1 0x0 DUP1 RETURNDATACOPY RETURNDATASIZE PUSH1 0x0 REVERT JUMPDEST POP POP POP POP PUSH1 0x40 MLOAD RETURNDATASIZE PUSH1 0x1F NOT PUSH1 0x1F DUP3 ADD AND DUP3 ADD DUP1 PUSH1 0x40 MSTORE POP DUP2 ADD SWAP1 PUSH2 0xADE SWAP2 SWAP1 PUSH2 0xE8E JUMP JUMPDEST POP JUMPDEST PUSH1 0x2 SLOAD PUSH1 0x1 PUSH1 0x1 PUSH1 0xA0 SHL SUB SWAP1 DUP2 AND SWAP1 DUP3 AND SUB PUSH2 0xB9E JUMPI DUP2 PUSH1 0xA PUSH1 0x0 DUP3 DUP3 SLOAD PUSH2 0xB08 SWAP2 SWAP1 PUSH2 0xD3E JUMP JUMPDEST SWAP1 SWAP2 SSTORE POP POP PUSH1 0x3 SLOAD PUSH1 0x2 SLOAD PUSH1 0x40 DUP1 MLOAD PUSH4 0x313CE567 PUSH1 0xE0 SHL DUP2 MSTORE SWAP1 MLOAD PUSH1 0x1 PUSH1 0x1 PUSH1 0xA0 SHL SUB SWAP4 DUP5 AND SWAP4 PUSH4 0xA64B6E5F SWAP4 AND SWAP2 ADDRESS SWAP2 DUP6 SWAP2 PUSH4 0x313CE567 SWAP2 PUSH1 0x4 DUP1 DUP4 ADD SWAP3 PUSH1 0x20 SWAP3 SWAP2 SWAP1 DUP3 SWAP1 SUB ADD DUP2 DUP7 GAS STATICCALL ISZERO DUP1 ISZERO PUSH2 0xB65 JUMPI RETURNDATASIZE PUSH1 0x0 DUP1 RETURNDATACOPY RETURNDATASIZE PUSH1 0x0 REVERT JUMPDEST POP POP POP POP PUSH1 0x40 MLOAD RETURNDATASIZE PUSH1 0x1F NOT PUSH1 0x1F DUP3 ADD AND DUP3 ADD DUP1 PUSH1 0x40 MSTORE POP DUP2 ADD SWAP1 PUSH2 0xB89 SWAP2 SWAP1 PUSH2 0xD51 JUMP JUMPDEST PUSH2 0xB94 SWAP1 PUSH1 0xA PUSH2 0xE5B JUMP JUMPDEST PUSH2 0x4FC SWAP1 DUP8 PUSH2 0xD27 JUMP JUMPDEST POP POP JUMP JUMPDEST PUSH1 0x3 SLOAD PUSH1 0x40 MLOAD PUSH4 0x70A08231 PUSH1 0xE0 SHL DUP2 MSTORE PUSH1 0x1 PUSH1 0x1 PUSH1 0xA0 SHL SUB DUP4 DUP2 AND PUSH1 0x4 DUP4 ADD MSTORE PUSH1 0x0 SWAP3 AND SWAP1 PUSH4 0x70A08231 SWAP1 PUSH1 0x24 ADD PUSH1 0x20 PUSH1 0x40 MLOAD DUP1 DUP4 SUB DUP2 DUP7 GAS STATICCALL ISZERO DUP1 ISZERO PUSH2 0xBED JUMPI RETURNDATASIZE PUSH1 0x0 DUP1 RETURNDATACOPY RETURNDATASIZE PUSH1 0x0 REVERT JUMPDEST POP POP POP POP PUSH1 0x40 MLOAD RETURNDATASIZE PUSH1 0x1F NOT PUSH1 0x1F DUP3 ADD AND DUP3 ADD DUP1 PUSH1 0x40 MSTORE POP DUP2 ADD SWAP1 PUSH2 0xC11 SWAP2 SWAP1 PUSH2 0xEB0 JUMP JUMPDEST SWAP3 SWAP2 POP POP JUMP JUMPDEST PUSH1 0x0 DUP1 SLOAD PUSH1 0x1 PUSH1 0x1 PUSH1 0xA0 SHL SUB SWAP1 DUP2 AND SWAP1 DUP4 AND SUB PUSH2 0xC36 JUMPI POP POP PUSH1 0x8 SLOAD SWAP1 JUMP JUMPDEST PUSH1 0x1 SLOAD PUSH1 0x1 PUSH1 0x1 PUSH1 0xA0 SHL SUB SWAP1 DUP2 AND SWAP1 DUP4 AND SUB PUSH2 0xC54 JUMPI POP POP PUSH1 0x9 SLOAD SWAP1 JUMP JUMPDEST PUSH1 0x2 SLOAD PUSH1 0x1 PUSH1 0x1 PUSH1 0xA0 SHL SUB SWAP1 DUP2 AND SWAP1 DUP4 AND SUB PUSH2 0xC72 JUMPI POP POP PUSH1 0xA SLOAD SWAP1 JUMP JUMPDEST SWAP2 SWAP1 POP JUMP JUMPDEST DUP1 CALLDATALOAD PUSH1 0x1 PUSH1 0x1 PUSH1 0xA0 SHL SUB DUP2 AND DUP2 EQ PUSH2 0xC72 JUMPI PUSH1 0x0 DUP1 REVERT JUMPDEST PUSH1 0x0 PUSH1 0x20 DUP3 DUP5 SUB SLT ISZERO PUSH2 0xCA0 JUMPI PUSH1 0x0 DUP1 REVERT JUMPDEST PUSH2 0xCA9 DUP3 PUSH2 0xC77 JUMP JUMPDEST SWAP4 SWAP3 POP POP POP JUMP JUMPDEST PUSH1 0x0 DUP1 PUSH1 0x40 DUP4 DUP6 SUB SLT ISZERO PUSH2 0xCC3 JUMPI PUSH1 0x0 DUP1 REVERT JUMPDEST DUP3 CALLDATALOAD SWAP2 POP PUSH2 0xCD3 PUSH1 0x20 DUP5 ADD PUSH2 0xC77 JUMP JUMPDEST SWAP1 POP SWAP3 POP SWAP3 SWAP1 POP JUMP JUMPDEST PUSH4 0x4E487B71 PUSH1 0xE0 SHL PUSH1 0x0 MSTORE PUSH1 0x11 PUSH1 0x4 MSTORE PUSH1 0x24 PUSH1 0x0 REVERT JUMPDEST DUP2 DUP2 SUB DUP2 DUP2 GT ISZERO PUSH2 0xC11 JUMPI PUSH2 0xC11 PUSH2 0xCDC JUMP JUMPDEST PUSH1 0x0 DUP3 PUSH2 0xD22 JUMPI PUSH4 0x4E487B71 PUSH1 0xE0 SHL PUSH1 0x0 MSTORE PUSH1 0x12 PUSH1 0x4 MSTORE PUSH1 0x24 PUSH1 0x0 REVERT JUMPDEST POP DIV SWAP1 JUMP JUMPDEST DUP1 DUP3 MUL DUP2 ISZERO DUP3 DUP3 DIV DUP5 EQ OR PUSH2 0xC11 JUMPI PUSH2 0xC11 PUSH2 0xCDC JUMP JUMPDEST DUP1 DUP3 ADD DUP1 DUP3 GT ISZERO PUSH2 0xC11 JUMPI PUSH2 0xC11 PUSH2 0xCDC JUMP JUMPDEST PUSH1 0x0 PUSH1 0x20 DUP3 DUP5 SUB SLT ISZERO PUSH2 0xD63 JUMPI PUSH1 0x0 DUP1 REVERT JUMPDEST DUP2 MLOAD PUSH1 0xFF DUP2 AND DUP2 EQ PUSH2 0xCA9 JUMPI PUSH1 0x0 DUP1 REVERT JUMPDEST PUSH1 0x1 DUP2 JUMPDEST PUSH1 0x1 DUP5 GT ISZERO PUSH2 0xDAF JUMPI DUP1 DUP6 DIV DUP2 GT ISZERO PUSH2 0xD93 JUMPI PUSH2 0xD93 PUSH2 0xCDC JUMP JUMPDEST PUSH1 0x1 DUP5 AND ISZERO PUSH2 0xDA1 JUMPI SWAP1 DUP2 MUL SWAP1 JUMPDEST PUSH1 0x1 SWAP4 SWAP1 SWAP4 SHR SWAP3 DUP1 MUL PUSH2 0xD78 JUMP JUMPDEST SWAP4 POP SWAP4 SWAP2 POP POP JUMP JUMPDEST PUSH1 0x0 DUP3 PUSH2 0xDC6 JUMPI POP PUSH1 0x1 PUSH2 0xC11 JUMP JUMPDEST DUP2 PUSH2 0xDD3 JUMPI POP PUSH1 0x0 PUSH2 0xC11 JUMP JUMPDEST DUP2 PUSH1 0x1 DUP2 EQ PUSH2 0xDE9 JUMPI PUSH1 0x2 DUP2 EQ PUSH2 0xDF3 JUMPI PUSH2 0xE0F JUMP JUMPDEST PUSH1 0x1 SWAP2 POP POP PUSH2 0xC11 JUMP JUMPDEST PUSH1 0xFF DUP5 GT ISZERO PUSH2 0xE04 JUMPI PUSH2 0xE04 PUSH2 0xCDC JUMP JUMPDEST POP POP PUSH1 0x1 DUP3 SHL PUSH2 0xC11 JUMP JUMPDEST POP PUSH1 0x20 DUP4 LT PUSH2 0x133 DUP4 LT AND PUSH1 0x4E DUP5 LT PUSH1 0xB DUP5 LT AND OR ISZERO PUSH2 0xE32 JUMPI POP DUP2 DUP2 EXP PUSH2 0xC11 JUMP JUMPDEST PUSH2 0xE3F PUSH1 0x0 NOT DUP5 DUP5 PUSH2 0xD74 JUMP JUMPDEST DUP1 PUSH1 0x0 NOT DIV DUP3 GT ISZERO PUSH2 0xE53 JUMPI PUSH2 0xE53 PUSH2 0xCDC JUMP JUMPDEST MUL SWAP4 SWAP3 POP POP POP JUMP JUMPDEST PUSH1 0x0 PUSH2 0xCA9 PUSH1 0xFF DUP5 AND DUP4 PUSH2 0xDB7 JUMP JUMPDEST PUSH1 0x1 PUSH1 0x1 PUSH1 0xA0 SHL SUB SWAP4 DUP5 AND DUP2 MSTORE SWAP2 SWAP1 SWAP3 AND PUSH1 0x20 DUP3 ADD MSTORE PUSH1 0x40 DUP2 ADD SWAP2 SWAP1 SWAP2 MSTORE PUSH1 0x60 ADD SWAP1 JUMP JUMPDEST PUSH1 0x0 PUSH1 0x20 DUP3 DUP5 SUB SLT ISZERO PUSH2 0xEA0 JUMPI PUSH1 0x0 DUP1 REVERT JUMPDEST DUP2 MLOAD DUP1 ISZERO ISZERO DUP2 EQ PUSH2 0xCA9 JUMPI PUSH1 0x0 DUP1 REVERT JUMPDEST PUSH1 0x0 PUSH1 0x20 DUP3 DUP5 SUB SLT ISZERO PUSH2 0xEC2 JUMPI PUSH1 0x0 DUP1 REVERT JUMPDEST POP MLOAD SWAP2 SWAP1 POP JUMP INVALID LOG2 PUSH5 0x6970667358 0x22 SLT KECCAK256 COINBASE STATICCALL DUP11 0xE9 0xCC EXTCODESIZE TIMESTAMP PUSH28 0xFC869A13B2BC12B6A65C46433B16FAE73797D585CE7D921764736F6C PUSH4 0x4300081A STOP CALLER "
		},
		"gasEstimates": {
			"creation": {
				"codeDepositCost": "767800",
				"executionCost": "infinite",
				"totalCost": "infinite"
			},
			"external": {
				"Ben()": "2414",
				"BenLPBalance()": "2363",
				"BenLastReward()": "2384",
				"Rick()": "2349",
				"RickLPBalance()": "2361",
				"RickLastReward()": "2362",
				"Tom()": "2350",
				"TomLPBalance()": "2385",
				"TomLastReward()": "2340",
				"getMyStackingBalance(address)": "infinite",
				"getValueAllStackingLP(address)": "infinite",
				"putLPProfi(uint256,address)": "infinite",
				"returnMyStack(address)": "infinite",
				"rewardPerSecond()": "2317",
				"showNonStackedTokens(address)": "infinite",
				"takeReward(address)": "infinite"
			}
		},
		"methodIdentifiers": {
			"Ben()": "d616f1bd",
			"BenLPBalance()": "2d9aa307",
			"BenLastReward()": "65c0c1be",
			"Rick()": "70d20fde",
			"RickLPBalance()": "b706e6d4",
			"RickLastReward()": "842b1118",
			"Tom()": "0b8b4b24",
			"TomLPBalance()": "3c617012",
			"TomLastReward()": "72b0eef8",
			"getMyStackingBalance(address)": "8d4f3b20",
			"getValueAllStackingLP(address)": "b51b0d39",
			"putLPProfi(uint256,address)": "5dd263c0",
			"returnMyStack(address)": "3e43dfc0",
			"rewardPerSecond()": "8f10369a",
			"showNonStackedTokens(address)": "611ade4f",
			"takeReward(address)": "2ad2e08c"
		}
	},
	"abi": [
		{
			"inputs": [
				{
					"internalType": "address",
					"name": "_lptokenAddress",
					"type": "address"
				}
			],
			"stateMutability": "nonpayable",
			"type": "constructor"
		},
		{
			"inputs": [],
			"name": "Ben",
			"outputs": [
				{
					"internalType": "address",
					"name": "",
					"type": "address"
				}
			],
			"stateMutability": "view",
			"type": "function"
		},
		{
			"inputs": [],
			"name": "BenLPBalance",
			"outputs": [
				{
					"internalType": "uint256",
					"name": "",
					"type": "uint256"
				}
			],
			"stateMutability": "view",
			"type": "function"
		},
		{
			"inputs": [],
			"name": "BenLastReward",
			"outputs": [
				{
					"internalType": "uint256",
					"name": "",
					"type": "uint256"
				}
			],
			"stateMutability": "view",
			"type": "function"
		},
		{
			"inputs": [],
			"name": "Rick",
			"outputs": [
				{
					"internalType": "address",
					"name": "",
					"type": "address"
				}
			],
			"stateMutability": "view",
			"type": "function"
		},
		{
			"inputs": [],
			"name": "RickLPBalance",
			"outputs": [
				{
					"internalType": "uint256",
					"name": "",
					"type": "uint256"
				}
			],
			"stateMutability": "view",
			"type": "function"
		},
		{
			"inputs": [],
			"name": "RickLastReward",
			"outputs": [
				{
					"internalType": "uint256",
					"name": "",
					"type": "uint256"
				}
			],
			"stateMutability": "view",
			"type": "function"
		},
		{
			"inputs": [],
			"name": "Tom",
			"outputs": [
				{
					"internalType": "address",
					"name": "",
					"type": "address"
				}
			],
			"stateMutability": "view",
			"type": "function"
		},
		{
			"inputs": [],
			"name": "TomLPBalance",
			"outputs": [
				{
					"internalType": "uint256",
					"name": "",
					"type": "uint256"
				}
			],
			"stateMutability": "view",
			"type": "function"
		},
		{
			"inputs": [],
			"name": "TomLastReward",
			"outputs": [
				{
					"internalType": "uint256",
					"name": "",
					"type": "uint256"
				}
			],
			"stateMutability": "view",
			"type": "function"
		},
		{
			"inputs": [
				{
					"internalType": "address",
					"name": "sender",
					"type": "address"
				}
			],
			"name": "getMyStackingBalance",
			"outputs": [
				{
					"internalType": "uint256",
					"name": "",
					"type": "uint256"
				}
			],
			"stateMutability": "view",
			"type": "function"
		},
		{
			"inputs": [
				{
					"internalType": "address",
					"name": "sender",
					"type": "address"
				}
			],
			"name": "getValueAllStackingLP",
			"outputs": [
				{
					"internalType": "uint256",
					"name": "",
					"type": "uint256"
				}
			],
			"stateMutability": "view",
			"type": "function"
		},
		{
			"inputs": [
				{
					"internalType": "uint256",
					"name": "amount",
					"type": "uint256"
				},
				{
					"internalType": "address",
					"name": "sender",
					"type": "address"
				}
			],
			"name": "putLPProfi",
			"outputs": [],
			"stateMutability": "nonpayable",
			"type": "function"
		},
		{
			"inputs": [
				{
					"internalType": "address",
					"name": "sender",
					"type": "address"
				}
			],
			"name": "returnMyStack",
			"outputs": [],
			"stateMutability": "nonpayable",
			"type": "function"
		},
		{
			"inputs": [],
			"name": "rewardPerSecond",
			"outputs": [
				{
					"internalType": "uint256",
					"name": "",
					"type": "uint256"
				}
			],
			"stateMutability": "view",
			"type": "function"
		},
		{
			"inputs": [
				{
					"internalType": "address",
					"name": "sender",
					"type": "address"
				}
			],
			"name": "showNonStackedTokens",
			"outputs": [
				{
					"internalType": "uint256",
					"name": "",
					"type": "uint256"
				}
			],
			"stateMutability": "view",
			"type": "function"
		},
		{
			"inputs": [
				{
					"internalType": "address",
					"name": "sender",
					"type": "address"
				}
			],
			"name": "takeReward",
			"outputs": [],
			"stateMutability": "nonpayable",
			"type": "function"
		}
	]
}